{
  "address": "0x2afbF2085DecbE58083322B8e9c374EBc7241C7f",
  "abi": [
    {
      "inputs": [
        {
          "internalType": "uint256",
          "name": "cap_",
          "type": "uint256"
        },
        {
          "internalType": "string",
          "name": "name",
          "type": "string"
        },
        {
          "internalType": "string",
          "name": "symbol",
          "type": "string"
        },
        {
          "internalType": "address",
          "name": "defaultRoyaltyReceiver",
          "type": "address"
        },
        {
          "internalType": "uint96",
          "name": "defaultFeeNumerator",
          "type": "uint96"
        },
        {
          "internalType": "string",
          "name": "_contractUri",
          "type": "string"
        }
      ],
      "stateMutability": "nonpayable",
      "type": "constructor"
    },
    {
      "anonymous": false,
      "inputs": [
        {
          "indexed": true,
          "internalType": "address",
          "name": "owner",
          "type": "address"
        },
        {
          "indexed": true,
          "internalType": "address",
          "name": "approved",
          "type": "address"
        },
        {
          "indexed": true,
          "internalType": "uint256",
          "name": "tokenId",
          "type": "uint256"
        }
      ],
      "name": "Approval",
      "type": "event"
    },
    {
      "anonymous": false,
      "inputs": [
        {
          "indexed": true,
          "internalType": "address",
          "name": "owner",
          "type": "address"
        },
        {
          "indexed": true,
          "internalType": "address",
          "name": "operator",
          "type": "address"
        },
        {
          "indexed": false,
          "internalType": "bool",
          "name": "approved",
          "type": "bool"
        }
      ],
      "name": "ApprovalForAll",
      "type": "event"
    },
    {
      "anonymous": false,
      "inputs": [
        {
          "indexed": true,
          "internalType": "address",
          "name": "to",
          "type": "address"
        },
        {
          "indexed": false,
          "internalType": "uint256",
          "name": "tokenId",
          "type": "uint256"
        }
      ],
      "name": "Claimed",
      "type": "event"
    },
    {
      "anonymous": false,
      "inputs": [
        {
          "indexed": true,
          "internalType": "string",
          "name": "contractUri",
          "type": "string"
        }
      ],
      "name": "ContractURIUpdated",
      "type": "event"
    },
    {
      "anonymous": false,
      "inputs": [
        {
          "indexed": true,
          "internalType": "address",
          "name": "royaltyReceiver",
          "type": "address"
        },
        {
          "indexed": false,
          "internalType": "uint96",
          "name": "feeNumerator",
          "type": "uint96"
        }
      ],
      "name": "DefaultRoyaltyUpdated",
      "type": "event"
    },
    {
      "anonymous": false,
      "inputs": [
        {
          "indexed": false,
          "internalType": "uint256",
          "name": "cap",
          "type": "uint256"
        },
        {
          "indexed": false,
          "internalType": "string",
          "name": "name",
          "type": "string"
        },
        {
          "indexed": false,
          "internalType": "string",
          "name": "symbol",
          "type": "string"
        },
        {
          "indexed": false,
          "internalType": "address",
          "name": "defaultRoyaltyReceiver",
          "type": "address"
        },
        {
          "indexed": false,
          "internalType": "uint96",
          "name": "defaultFeeNumerator",
          "type": "uint96"
        },
        {
          "indexed": false,
          "internalType": "string",
          "name": "contractUri",
          "type": "string"
        }
      ],
      "name": "Initialized",
      "type": "event"
    },
    {
      "anonymous": false,
      "inputs": [
        {
          "indexed": true,
          "internalType": "bytes32",
          "name": "role",
          "type": "bytes32"
        },
        {
          "indexed": true,
          "internalType": "bytes32",
          "name": "previousAdminRole",
          "type": "bytes32"
        },
        {
          "indexed": true,
          "internalType": "bytes32",
          "name": "newAdminRole",
          "type": "bytes32"
        }
      ],
      "name": "RoleAdminChanged",
      "type": "event"
    },
    {
      "anonymous": false,
      "inputs": [
        {
          "indexed": true,
          "internalType": "bytes32",
          "name": "role",
          "type": "bytes32"
        },
        {
          "indexed": true,
          "internalType": "address",
          "name": "account",
          "type": "address"
        },
        {
          "indexed": true,
          "internalType": "address",
          "name": "sender",
          "type": "address"
        }
      ],
      "name": "RoleGranted",
      "type": "event"
    },
    {
      "anonymous": false,
      "inputs": [
        {
          "indexed": true,
          "internalType": "bytes32",
          "name": "role",
          "type": "bytes32"
        },
        {
          "indexed": true,
          "internalType": "address",
          "name": "account",
          "type": "address"
        },
        {
          "indexed": true,
          "internalType": "address",
          "name": "sender",
          "type": "address"
        }
      ],
      "name": "RoleRevoked",
      "type": "event"
    },
    {
      "anonymous": false,
      "inputs": [
        {
          "indexed": true,
          "internalType": "address",
          "name": "from",
          "type": "address"
        },
        {
          "indexed": true,
          "internalType": "address",
          "name": "to",
          "type": "address"
        },
        {
          "indexed": true,
          "internalType": "uint256",
          "name": "tokenId",
          "type": "uint256"
        }
      ],
      "name": "Transfer",
      "type": "event"
    },
    {
      "inputs": [],
      "name": "CAP",
      "outputs": [
        {
          "internalType": "uint256",
          "name": "",
          "type": "uint256"
        }
      ],
      "stateMutability": "view",
      "type": "function"
    },
    {
      "inputs": [],
      "name": "DEFAULT_ADMIN_ROLE",
      "outputs": [
        {
          "internalType": "bytes32",
          "name": "",
          "type": "bytes32"
        }
      ],
      "stateMutability": "view",
      "type": "function"
    },
    {
      "inputs": [],
      "name": "MINTER_ROLE",
      "outputs": [
        {
          "internalType": "bytes32",
          "name": "",
          "type": "bytes32"
        }
      ],
      "stateMutability": "view",
      "type": "function"
    },
    {
      "inputs": [
        {
          "internalType": "address",
          "name": "to",
          "type": "address"
        },
        {
          "internalType": "uint256",
          "name": "tokenId",
          "type": "uint256"
        }
      ],
      "name": "approve",
      "outputs": [],
      "stateMutability": "nonpayable",
      "type": "function"
    },
    {
      "inputs": [
        {
          "internalType": "address",
          "name": "owner",
          "type": "address"
        }
      ],
      "name": "balanceOf",
      "outputs": [
        {
          "internalType": "uint256",
          "name": "",
          "type": "uint256"
        }
      ],
      "stateMutability": "view",
      "type": "function"
    },
    {
      "inputs": [
        {
          "components": [
            {
              "internalType": "address",
              "name": "to",
              "type": "address"
            },
            {
              "internalType": "string",
              "name": "uri",
              "type": "string"
            },
            {
              "internalType": "uint256",
              "name": "tokenId",
              "type": "uint256"
            },
            {
              "internalType": "uint256",
              "name": "chainId",
              "type": "uint256"
            }
          ],
          "internalType": "struct ISignatureMintERC721.MintRequest",
          "name": "request",
          "type": "tuple"
        },
        {
          "internalType": "bytes",
          "name": "signature",
          "type": "bytes"
        }
      ],
      "name": "claim",
      "outputs": [
        {
          "internalType": "uint256",
          "name": "",
          "type": "uint256"
        }
      ],
      "stateMutability": "payable",
      "type": "function"
    },
    {
      "inputs": [],
      "name": "contractURI",
      "outputs": [
        {
          "internalType": "string",
          "name": "",
          "type": "string"
        }
      ],
      "stateMutability": "view",
      "type": "function"
    },
    {
      "inputs": [],
      "name": "contractUri",
      "outputs": [
        {
          "internalType": "string",
          "name": "",
          "type": "string"
        }
      ],
      "stateMutability": "view",
      "type": "function"
    },
    {
      "inputs": [
        {
          "internalType": "uint256",
          "name": "tokenId",
          "type": "uint256"
        }
      ],
      "name": "getApproved",
      "outputs": [
        {
          "internalType": "address",
          "name": "",
          "type": "address"
        }
      ],
      "stateMutability": "view",
      "type": "function"
    },
    {
      "inputs": [
        {
          "internalType": "bytes32",
          "name": "role",
          "type": "bytes32"
        }
      ],
      "name": "getRoleAdmin",
      "outputs": [
        {
          "internalType": "bytes32",
          "name": "",
          "type": "bytes32"
        }
      ],
      "stateMutability": "view",
      "type": "function"
    },
    {
      "inputs": [
        {
          "internalType": "bytes32",
          "name": "role",
          "type": "bytes32"
        },
        {
          "internalType": "address",
          "name": "account",
          "type": "address"
        }
      ],
      "name": "grantRole",
      "outputs": [],
      "stateMutability": "nonpayable",
      "type": "function"
    },
    {
      "inputs": [
        {
          "internalType": "bytes32",
          "name": "role",
          "type": "bytes32"
        },
        {
          "internalType": "address",
          "name": "account",
          "type": "address"
        }
      ],
      "name": "hasRole",
      "outputs": [
        {
          "internalType": "bool",
          "name": "",
          "type": "bool"
        }
      ],
      "stateMutability": "view",
      "type": "function"
    },
    {
      "inputs": [
        {
          "internalType": "address",
          "name": "owner",
          "type": "address"
        },
        {
          "internalType": "address",
          "name": "operator",
          "type": "address"
        }
      ],
      "name": "isApprovedForAll",
      "outputs": [
        {
          "internalType": "bool",
          "name": "",
          "type": "bool"
        }
      ],
      "stateMutability": "view",
      "type": "function"
    },
    {
      "inputs": [],
      "name": "name",
      "outputs": [
        {
          "internalType": "string",
          "name": "",
          "type": "string"
        }
      ],
      "stateMutability": "view",
      "type": "function"
    },
    {
      "inputs": [
        {
          "internalType": "uint256",
          "name": "tokenId",
          "type": "uint256"
        }
      ],
      "name": "ownerOf",
      "outputs": [
        {
          "internalType": "address",
          "name": "",
          "type": "address"
        }
      ],
      "stateMutability": "view",
      "type": "function"
    },
    {
      "inputs": [
        {
          "internalType": "bytes32",
          "name": "role",
          "type": "bytes32"
        },
        {
          "internalType": "address",
          "name": "account",
          "type": "address"
        }
      ],
      "name": "renounceRole",
      "outputs": [],
      "stateMutability": "nonpayable",
      "type": "function"
    },
    {
      "inputs": [
        {
          "internalType": "bytes32",
          "name": "role",
          "type": "bytes32"
        },
        {
          "internalType": "address",
          "name": "account",
          "type": "address"
        }
      ],
      "name": "revokeRole",
      "outputs": [],
      "stateMutability": "nonpayable",
      "type": "function"
    },
    {
      "inputs": [
        {
          "internalType": "uint256",
          "name": "tokenId",
          "type": "uint256"
        },
        {
          "internalType": "uint256",
          "name": "salePrice",
          "type": "uint256"
        }
      ],
      "name": "royaltyInfo",
      "outputs": [
        {
          "internalType": "address",
          "name": "receiver",
          "type": "address"
        },
        {
          "internalType": "uint256",
          "name": "royaltyAmount",
          "type": "uint256"
        }
      ],
      "stateMutability": "view",
      "type": "function"
    },
    {
      "inputs": [],
      "name": "safeLazyMint",
      "outputs": [
        {
          "internalType": "uint256",
          "name": "",
          "type": "uint256"
        }
      ],
      "stateMutability": "nonpayable",
      "type": "function"
    },
    {
      "inputs": [
        {
          "internalType": "uint256",
          "name": "quantity",
          "type": "uint256"
        }
      ],
      "name": "safeLazyMintBatch",
      "outputs": [
        {
          "internalType": "uint256",
          "name": "",
          "type": "uint256"
        }
      ],
      "stateMutability": "nonpayable",
      "type": "function"
    },
    {
      "inputs": [
        {
          "internalType": "address",
          "name": "to",
          "type": "address"
        },
        {
          "internalType": "uint256",
          "name": "tokenID",
          "type": "uint256"
        },
        {
          "internalType": "string",
          "name": "uri",
          "type": "string"
        }
      ],
      "name": "safeMint",
      "outputs": [
        {
          "internalType": "uint256",
          "name": "",
          "type": "uint256"
        }
      ],
      "stateMutability": "nonpayable",
      "type": "function"
    },
    {
      "inputs": [
        {
          "internalType": "address",
          "name": "from",
          "type": "address"
        },
        {
          "internalType": "address",
          "name": "to",
          "type": "address"
        },
        {
          "internalType": "uint256",
          "name": "tokenId",
          "type": "uint256"
        }
      ],
      "name": "safeTransferFrom",
      "outputs": [],
      "stateMutability": "nonpayable",
      "type": "function"
    },
    {
      "inputs": [
        {
          "internalType": "address",
          "name": "from",
          "type": "address"
        },
        {
          "internalType": "address",
          "name": "to",
          "type": "address"
        },
        {
          "internalType": "uint256",
          "name": "tokenId",
          "type": "uint256"
        },
        {
          "internalType": "bytes",
          "name": "data",
          "type": "bytes"
        }
      ],
      "name": "safeTransferFrom",
      "outputs": [],
      "stateMutability": "nonpayable",
      "type": "function"
    },
    {
      "inputs": [
        {
          "internalType": "address",
          "name": "operator",
          "type": "address"
        },
        {
          "internalType": "bool",
          "name": "approved",
          "type": "bool"
        }
      ],
      "name": "setApprovalForAll",
      "outputs": [],
      "stateMutability": "nonpayable",
      "type": "function"
    },
    {
      "inputs": [
        {
          "internalType": "string",
          "name": "_contractUri",
          "type": "string"
        }
      ],
      "name": "setContractURI",
      "outputs": [],
      "stateMutability": "nonpayable",
      "type": "function"
    },
    {
      "inputs": [
        {
          "internalType": "address",
          "name": "receiver",
          "type": "address"
        },
        {
          "internalType": "uint96",
          "name": "feeNumerator",
          "type": "uint96"
        }
      ],
      "name": "setDefaultRoyalty",
      "outputs": [],
      "stateMutability": "nonpayable",
      "type": "function"
    },
    {
      "inputs": [
        {
          "internalType": "bytes4",
          "name": "interfaceId",
          "type": "bytes4"
        }
      ],
      "name": "supportsInterface",
      "outputs": [
        {
          "internalType": "bool",
          "name": "",
          "type": "bool"
        }
      ],
      "stateMutability": "view",
      "type": "function"
    },
    {
      "inputs": [],
      "name": "symbol",
      "outputs": [
        {
          "internalType": "string",
          "name": "",
          "type": "string"
        }
      ],
      "stateMutability": "view",
      "type": "function"
    },
    {
      "inputs": [
        {
          "internalType": "uint256",
          "name": "index",
          "type": "uint256"
        }
      ],
      "name": "tokenByIndex",
      "outputs": [
        {
          "internalType": "uint256",
          "name": "",
          "type": "uint256"
        }
      ],
      "stateMutability": "view",
      "type": "function"
    },
    {
      "inputs": [
        {
          "internalType": "address",
          "name": "owner",
          "type": "address"
        },
        {
          "internalType": "uint256",
          "name": "index",
          "type": "uint256"
        }
      ],
      "name": "tokenOfOwnerByIndex",
      "outputs": [
        {
          "internalType": "uint256",
          "name": "",
          "type": "uint256"
        }
      ],
      "stateMutability": "view",
      "type": "function"
    },
    {
      "inputs": [
        {
          "internalType": "uint256",
          "name": "tokenId",
          "type": "uint256"
        }
      ],
      "name": "tokenURI",
      "outputs": [
        {
          "internalType": "string",
          "name": "",
          "type": "string"
        }
      ],
      "stateMutability": "view",
      "type": "function"
    },
    {
      "inputs": [],
      "name": "totalSupply",
      "outputs": [
        {
          "internalType": "uint256",
          "name": "",
          "type": "uint256"
        }
      ],
      "stateMutability": "view",
      "type": "function"
    },
    {
      "inputs": [
        {
          "internalType": "address",
          "name": "from",
          "type": "address"
        },
        {
          "internalType": "address",
          "name": "to",
          "type": "address"
        },
        {
          "internalType": "uint256",
          "name": "tokenId",
          "type": "uint256"
        }
      ],
      "name": "transferFrom",
      "outputs": [],
      "stateMutability": "nonpayable",
      "type": "function"
    }
  ],
  "transactionHash": "0x0031000bbcc4a6ba69127e7301da0b41f455159b78d5cf79667d1a989df46d73",
  "args": [
    11111,
    "CanisNFT",
    "CNFT",
    "0xaa1e7269C32472168507FA6b542976d06f7397C5",
    1000,
    ""
  ],
  "numDeployments": 1,
  "solcInputHash": "bfc474b32723df449a93865f99bf9412",
  "bytecode": "0x60a06040523480156200001157600080fd5b506040516200412c3803806200412c8339810160408190526200003491620004d7565b8451859085906200004d9060009060208501906200033a565b508051620000639060019060208401906200033a565b50505060008611620000bc5760405162461bcd60e51b815260206004820152601360248201527f4e46544361707065643a2063617020697320300000000000000000000000000060448201526064015b60405180910390fd5b60808690528051620000d690600e9060208401906200033a565b50620000ee83836200018560201b620013f71760201c565b620001076000335b6200028660201b620015111760201c565b620001337f9f2df0fed2c77648de5860a4cc508cd0818c85b8b8a1ab4ceeef8d981c8956a633620000f6565b7f8c24fb76651f6ab600606f76f222e17f46b7ba57183e0c466f4eaa01f30881ef60805186868686600e604051620001719695949392919062000613565b60405180910390a150505050505062000719565b6127106001600160601b0382161115620001f55760405162461bcd60e51b815260206004820152602a60248201527f455243323938313a20726f79616c7479206665652077696c6c206578636565646044820152692073616c65507269636560b01b6064820152608401620000b3565b6001600160a01b0382166200024d5760405162461bcd60e51b815260206004820152601960248201527f455243323938313a20696e76616c6964207265636569766572000000000000006044820152606401620000b3565b604080518082019091526001600160a01b039092168083526001600160601b039091166020909201829052600160a01b90910217600b55565b62000292828262000296565b5050565b6000828152600d602090815260408083206001600160a01b038516845290915290205460ff1662000292576000828152600d602090815260408083206001600160a01b03851684529091529020805460ff19166001179055620002f63390565b6001600160a01b0316816001600160a01b0316837f2f8788117e7eff1d82e926ec794901d17c78024a50270940304540a733656f0d60405160405180910390a45050565b8280546200034890620005d6565b90600052602060002090601f0160209004810192826200036c5760008555620003b7565b82601f106200038757805160ff1916838001178555620003b7565b82800160010185558215620003b7579182015b82811115620003b75782518255916020019190600101906200039a565b50620003c5929150620003c9565b5090565b5b80821115620003c55760008155600101620003ca565b634e487b7160e01b600052604160045260246000fd5b60005b8381101562000413578181015183820152602001620003f9565b8381111562000423576000848401525b50505050565b600082601f8301126200043b57600080fd5b81516001600160401b0380821115620004585762000458620003e0565b604051601f8301601f19908116603f01168101908282118183101715620004835762000483620003e0565b816040528381528660208588010111156200049d57600080fd5b620004b0846020830160208901620003f6565b9695505050505050565b80516001600160601b0381168114620004d257600080fd5b919050565b60008060008060008060c08789031215620004f157600080fd5b865160208801519096506001600160401b03808211156200051157600080fd5b6200051f8a838b0162000429565b965060408901519150808211156200053657600080fd5b620005448a838b0162000429565b60608a015190965091506001600160a01b03821682146200056457600080fd5b8194506200057560808a01620004ba565b935060a08901519150808211156200058c57600080fd5b506200059b89828a0162000429565b9150509295509295509295565b60008151808452620005c2816020860160208601620003f6565b601f01601f19169290920160200192915050565b600181811c90821680620005eb57607f821691505b602082108114156200060d57634e487b7160e01b600052602260045260246000fd5b50919050565b8681526000602060c0818401526200062f60c0840189620005a8565b8381036040850152620006438189620005a8565b6001600160a01b03881660608601526001600160601b038716608086015284810360a08601528554909150600090600181811c90828116806200068757607f831692505b868310811415620006a657634e487b7160e01b85526022600452602485fd5b828652602086019550808015620006c65760018114620006d85762000705565b60ff1985168752878701955062000705565b60008b81526020902060005b85811015620006ff57815489820152908401908901620006e4565b88019650505b50939e9d5050505050505050505050505050565b6080516139cd6200075f600039600081816106970152818161075e015281816107e001528181610b110152818161113e0152818161135a0152611b2e01526139cd6000f3fe6080604052600436106101fe5760003560e01c806370a082311161011d578063c0e24d5e116100b0578063d547741f1161007f578063e8a3d48511610064578063e8a3d48514610627578063e985e9c51461063c578063ec81b4831461068557600080fd5b8063d547741f146105f2578063d6836d161461061257600080fd5b8063c0e24d5e14610569578063c87b56dd1461057e578063cd279c7c1461059e578063d5391393146105be57600080fd5b806395d89b41116100ec57806395d89b41146104ff578063a217fddf14610514578063a22cb46514610529578063b88d4fde1461054957600080fd5b806370a08231146104665780638d6430011461048657806391d1485414610499578063938e3d7b146104df57600080fd5b8063248a9ca31161019557806336568abe1161016457806336568abe146103e657806342842e0e146104065780634f6ccce7146104265780636352211e1461044657600080fd5b8063248a9ca3146103375780632a55205a146103675780632f2ff15d146103a65780632f745c59146103c657600080fd5b8063081812fc116101d1578063081812fc146102aa578063095ea7b3146102e257806318160ddd1461030257806323b872dd1461031757600080fd5b806301ffc9a71461020357806304634d8d1461023857806306779e431461025a57806306fdde0314610288575b600080fd5b34801561020f57600080fd5b5061022361021e3660046131df565b6106b9565b60405190151581526020015b60405180910390f35b34801561024457600080fd5b50610258610253366004613218565b6106ca565b005b34801561026657600080fd5b5061027a610275366004613260565b610730565b60405190815260200161022f565b34801561029457600080fd5b5061029d6108aa565b60405161022f91906132d1565b3480156102b657600080fd5b506102ca6102c5366004613260565b61093c565b6040516001600160a01b03909116815260200161022f565b3480156102ee57600080fd5b506102586102fd3660046132e4565b610963565b34801561030e57600080fd5b5060095461027a565b34801561032357600080fd5b5061025861033236600461330e565b610a95565b34801561034357600080fd5b5061027a610352366004613260565b6000908152600d602052604090206001015490565b34801561037357600080fd5b5061038761038236600461334a565b610b0c565b604080516001600160a01b03909316835260208301919091520161022f565b3480156103b257600080fd5b506102586103c136600461336c565b610bbb565b3480156103d257600080fd5b5061027a6103e13660046132e4565b610be0565b3480156103f257600080fd5b5061025861040136600461336c565b610c88565b34801561041257600080fd5b5061025861042136600461330e565b610d14565b34801561043257600080fd5b5061027a610441366004613260565b610d2f565b34801561045257600080fd5b506102ca610461366004613260565b610dd3565b34801561047257600080fd5b5061027a610481366004613398565b610e38565b61027a6104943660046133f5565b610ed2565b3480156104a557600080fd5b506102236104b436600461336c565b6000918252600d602090815260408084206001600160a01b0393909316845291905290205460ff1690565b3480156104eb57600080fd5b506102586104fa3660046134f2565b610f9d565b34801561050b57600080fd5b5061029d610fff565b34801561052057600080fd5b5061027a600081565b34801561053557600080fd5b5061025861054436600461353b565b61100e565b34801561055557600080fd5b5061025861056436600461356c565b611019565b34801561057557600080fd5b5061029d611097565b34801561058a57600080fd5b5061029d610599366004613260565b611125565b3480156105aa57600080fd5b5061027a6105b93660046135e8565b611130565b3480156105ca57600080fd5b5061027a7f9f2df0fed2c77648de5860a4cc508cd0818c85b8b8a1ab4ceeef8d981c8956a681565b3480156105fe57600080fd5b5061025861060d36600461336c565b6112ec565b34801561061e57600080fd5b5061027a611311565b34801561063357600080fd5b5061029d6113e8565b34801561064857600080fd5b50610223610657366004613642565b6001600160a01b03918216600090815260056020908152604080832093909416825291909152205460ff1690565b34801561069157600080fd5b5061027a7f000000000000000000000000000000000000000000000000000000000000000081565b60006106c48261151b565b92915050565b60006106d581611559565b6106df83836113f7565b6040516bffffffffffffffffffffffff831681526001600160a01b038416907fe12d7d5bdb8218a22277dca8f854dd4573a1cea3d3e4808dc567df9eb1c14bf49060200160405180910390a2505050565b60007f9f2df0fed2c77648de5860a4cc508cd0818c85b8b8a1ab4ceeef8d981c8956a661075c81611559565b7f00000000000000000000000000000000000000000000000000000000000000008311156107d15760405162461bcd60e51b815260206004820152601760248201527f4e46544341505045443a2063617020657863656564656400000000000000000060448201526064015b60405180910390fd5b60006107dc600f5490565b90507f00000000000000000000000000000000000000000000000000000000000000006108098583613682565b11156108575760405162461bcd60e51b815260206004820152601760248201527f4e46544341505045443a2063617020657863656564656400000000000000000060448201526064016107c8565b60005b848110156108a057610870600f80546001019055565b600f546000818152601060205260409020805460ff191660011790559150806108988161369a565b91505061085a565b5091505b50919050565b6060600080546108b9906136b5565b80601f01602080910402602001604051908101604052809291908181526020018280546108e5906136b5565b80156109325780601f1061090757610100808354040283529160200191610932565b820191906000526020600020905b81548152906001019060200180831161091557829003601f168201915b5050505050905090565b600061094782611566565b506000908152600460205260409020546001600160a01b031690565b600061096e82610dd3565b9050806001600160a01b0316836001600160a01b031614156109f85760405162461bcd60e51b815260206004820152602160248201527f4552433732313a20617070726f76616c20746f2063757272656e74206f776e6560448201527f720000000000000000000000000000000000000000000000000000000000000060648201526084016107c8565b336001600160a01b0382161480610a145750610a148133610657565b610a865760405162461bcd60e51b815260206004820152603d60248201527f4552433732313a20617070726f76652063616c6c6572206973206e6f7420746f60448201527f6b656e206f776e6572206f7220617070726f76656420666f7220616c6c00000060648201526084016107c8565b610a9083836115ca565b505050565b610a9f3382611645565b610b015760405162461bcd60e51b815260206004820152602d60248201527f4552433732313a2063616c6c6572206973206e6f7420746f6b656e206f776e6560448201526c1c881bdc88185c1c1c9bdd9959609a1b60648201526084016107c8565b610a908383836116c4565b6000807f0000000000000000000000000000000000000000000000000000000000000000841115610ba55760405162461bcd60e51b815260206004820152602160248201527f43414e49534e46543a20544f4b454e20494420444f4553204e4f54204558495360448201527f540000000000000000000000000000000000000000000000000000000000000060648201526084016107c8565b610baf84846118d7565b915091505b9250929050565b6000828152600d6020526040902060010154610bd681611559565b610a908383611992565b6000610beb83610e38565b8210610c5f5760405162461bcd60e51b815260206004820152602b60248201527f455243373231456e756d657261626c653a206f776e657220696e646578206f7560448201527f74206f6620626f756e647300000000000000000000000000000000000000000060648201526084016107c8565b506001600160a01b03919091166000908152600760209081526040808320938352929052205490565b6001600160a01b0381163314610d065760405162461bcd60e51b815260206004820152602f60248201527f416363657373436f6e74726f6c3a2063616e206f6e6c792072656e6f756e636560448201527f20726f6c657320666f722073656c66000000000000000000000000000000000060648201526084016107c8565b610d108282611a34565b5050565b610a9083838360405180602001604052806000815250611019565b6000610d3a60095490565b8210610dae5760405162461bcd60e51b815260206004820152602c60248201527f455243373231456e756d657261626c653a20676c6f62616c20696e646578206f60448201527f7574206f6620626f756e6473000000000000000000000000000000000000000060648201526084016107c8565b60098281548110610dc157610dc16136ea565b90600052602060002001549050919050565b6000818152600260205260408120546001600160a01b0316806106c45760405162461bcd60e51b815260206004820152601860248201527f4552433732313a20696e76616c696420746f6b656e204944000000000000000060448201526064016107c8565b60006001600160a01b038216610eb65760405162461bcd60e51b815260206004820152602960248201527f4552433732313a2061646472657373207a65726f206973206e6f74206120766160448201527f6c6964206f776e6572000000000000000000000000000000000000000000000060648201526084016107c8565b506001600160a01b031660009081526003602052604090205490565b6000610edf848484611ab7565b506040848101356000908152601060205220805460ff19169055610f07338560400135611cf3565b610f566040850135610f1c6020870187613700565b8080601f016020809104026020016040519081016040528093929190818152602001838380828437600092019190915250611d0d92505050565b6040805190850135815233907fd8138f8a3f377c5259ca548e70e4c2de94f129f5a11036a15b69513cba2b426a9060200160405180910390a25060408301355b9392505050565b6000610fa881611559565b8151610fbb90600e906020850190613139565b50600e604051610fcb9190613747565b604051908190038120907f905d981207a7d0b6c62cc46ab0be2a076d0298e4a86d0ab79882dbd01ac3737890600090a25050565b6060600180546108b9906136b5565b610d10338383611db6565b6110233383611645565b6110855760405162461bcd60e51b815260206004820152602d60248201527f4552433732313a2063616c6c6572206973206e6f7420746f6b656e206f776e6560448201526c1c881bdc88185c1c1c9bdd9959609a1b60648201526084016107c8565b61109184848484611e85565b50505050565b600e80546110a4906136b5565b80601f01602080910402602001604051908101604052809291908181526020018280546110d0906136b5565b801561111d5780601f106110f25761010080835404028352916020019161111d565b820191906000526020600020905b81548152906001019060200180831161110057829003601f168201915b505050505081565b60606106c482611f03565b60008061113c81611559565b7f00000000000000000000000000000000000000000000000000000000000000008511156111ac5760405162461bcd60e51b815260206004820152601760248201527f4e46544341505045443a2063617020657863656564656400000000000000000060448201526064016107c8565b60008581526010602052604090205460ff1615156001146112355760405162461bcd60e51b815260206004820152602a60248201527f4e46544341505045443a20746f6b656e4964206e6f7420617661696c61626c6560448201527f20746f206d696e7465640000000000000000000000000000000000000000000060648201526084016107c8565b826112825760405162461bcd60e51b815260206004820152601360248201527f43414e49534e46543a20456d707479205552490000000000000000000000000060448201526064016107c8565b6000858152601060205260409020805460ff191690556112a28686611cf3565b6112e28585858080601f016020809104026020016040519081016040528093929190818152602001838380828437600092019190915250611d0d92505050565b5092949350505050565b6000828152600d602052604090206001015461130781611559565b610a908383611a34565b60007f9f2df0fed2c77648de5860a4cc508cd0818c85b8b8a1ab4ceeef8d981c8956a661133d81611559565b61134b600f80546001019055565b6000611356600f5490565b90507f00000000000000000000000000000000000000000000000000000000000000008111156113c85760405162461bcd60e51b815260206004820152601760248201527f4e46544341505045443a2063617020657863656564656400000000000000000060448201526064016107c8565b6000818152601060205260409020805460ff1916600117905591505b5090565b6060600e80546108b9906136b5565b6127106bffffffffffffffffffffffff8216111561147d5760405162461bcd60e51b815260206004820152602a60248201527f455243323938313a20726f79616c7479206665652077696c6c2065786365656460448201527f2073616c6550726963650000000000000000000000000000000000000000000060648201526084016107c8565b6001600160a01b0382166114d35760405162461bcd60e51b815260206004820152601960248201527f455243323938313a20696e76616c69642072656365697665720000000000000060448201526064016107c8565b604080518082019091526001600160a01b039092168083526bffffffffffffffffffffffff9091166020909201829052600160a01b90910217600b55565b610d108282611992565b60006001600160e01b031982167f7965db0b0000000000000000000000000000000000000000000000000000000014806106c457506106c48261200c565b611563813361204a565b50565b6000818152600260205260409020546001600160a01b03166115635760405162461bcd60e51b815260206004820152601860248201527f4552433732313a20696e76616c696420746f6b656e204944000000000000000060448201526064016107c8565b6000818152600460205260409020805473ffffffffffffffffffffffffffffffffffffffff19166001600160a01b038416908117909155819061160c82610dd3565b6001600160a01b03167f8c5be1e5ebec7d5bd14f71427d1e84f3dd0314c0f7b2291e5b200ac8c7c3b92560405160405180910390a45050565b60008061165183610dd3565b9050806001600160a01b0316846001600160a01b0316148061169857506001600160a01b0380821660009081526005602090815260408083209388168352929052205460ff165b806116bc5750836001600160a01b03166116b18461093c565b6001600160a01b0316145b949350505050565b826001600160a01b03166116d782610dd3565b6001600160a01b03161461173b5760405162461bcd60e51b815260206004820152602560248201527f4552433732313a207472616e736665722066726f6d20696e636f72726563742060448201526437bbb732b960d91b60648201526084016107c8565b6001600160a01b0382166117b65760405162461bcd60e51b8152602060048201526024808201527f4552433732313a207472616e7366657220746f20746865207a65726f2061646460448201527f726573730000000000000000000000000000000000000000000000000000000060648201526084016107c8565b6117c383838360016120bf565b826001600160a01b03166117d682610dd3565b6001600160a01b03161461183a5760405162461bcd60e51b815260206004820152602560248201527f4552433732313a207472616e736665722066726f6d20696e636f72726563742060448201526437bbb732b960d91b60648201526084016107c8565b6000818152600460209081526040808320805473ffffffffffffffffffffffffffffffffffffffff199081169091556001600160a01b0387811680865260038552838620805460001901905590871680865283862080546001019055868652600290945282852080549092168417909155905184937fddf252ad1be2c89b69c2b068fc378daa952ba7f163c4a11628f55a4df523b3ef91a4505050565b6000828152600c602090815260408083208151808301909252546001600160a01b038116808352600160a01b9091046bffffffffffffffffffffffff16928201929092528291611956575060408051808201909152600b546001600160a01b0381168252600160a01b90046bffffffffffffffffffffffff1660208201525b60208101516000906127109061197a906bffffffffffffffffffffffff16876137e3565b6119849190613802565b915196919550909350505050565b6000828152600d602090815260408083206001600160a01b038516845290915290205460ff16610d10576000828152600d602090815260408083206001600160a01b03851684529091529020805460ff191660011790556119f03390565b6001600160a01b0316816001600160a01b0316837f2f8788117e7eff1d82e926ec794901d17c78024a50270940304540a733656f0d60405160405180910390a45050565b6000828152600d602090815260408083206001600160a01b038516845290915290205460ff1615610d10576000828152600d602090815260408083206001600160a01b0385168085529252808320805460ff1916905551339285917ff6391f5c32d9c69d2a47ea670b442974b53935d1edc7fd64eb21e047a839171b9190a45050565b6000611ac48484846120cb565b90506000611ad56020860186613398565b6001600160a01b03161415611b2c5760405162461bcd60e51b815260206004820152601d60248201527f43414e49534e46543a20726563697069656e7420756e646566696e656400000060448201526064016107c8565b7f000000000000000000000000000000000000000000000000000000000000000084604001351115611ba05760405162461bcd60e51b815260206004820152601660248201527f43414e49534e46543a206361702065786365656465640000000000000000000060448201526064016107c8565b600f5484604001351115611c1c5760405162461bcd60e51b815260206004820152603860248201527f43414e49534e46543a207265717565737420746f6b656e2069642063616e6e6f60448201527f742062652067726561746572207468616e206d696e746564000000000000000060648201526084016107c8565b46846060013514611c955760405162461bcd60e51b815260206004820152603660248201527f43414e49534e46543a2074686520636861696e206964206d757374206265207460448201527f68652073616d6520617320746865206e6574776f726b0000000000000000000060648201526084016107c8565b6000611ca46020860186613700565b905011610f965760405162461bcd60e51b815260206004820152601360248201527f43414e49534e46543a20456d707479205552490000000000000000000000000060448201526064016107c8565b610d108282604051806020016040528060008152506121e9565b6000828152600260205260409020546001600160a01b0316611d975760405162461bcd60e51b815260206004820152602e60248201527f45524337323155524953746f726167653a2055524920736574206f66206e6f6e60448201527f6578697374656e7420746f6b656e00000000000000000000000000000000000060648201526084016107c8565b60008281526006602090815260409091208251610a9092840190613139565b816001600160a01b0316836001600160a01b03161415611e185760405162461bcd60e51b815260206004820152601960248201527f4552433732313a20617070726f766520746f2063616c6c65720000000000000060448201526064016107c8565b6001600160a01b03838116600081815260056020908152604080832094871680845294825291829020805460ff191686151590811790915591519182527f17307eab39ab6107e8899845ad3d59bd9653f200f220920489ca2b5937696c31910160405180910390a3505050565b611e908484846116c4565b611e9c84848484612267565b6110915760405162461bcd60e51b815260206004820152603260248201527f4552433732313a207472616e7366657220746f206e6f6e20455243373231526560448201527131b2b4bb32b91034b6b83632b6b2b73a32b960711b60648201526084016107c8565b6060611f0e82611566565b60008281526006602052604081208054611f27906136b5565b80601f0160208091040260200160405190810160405280929190818152602001828054611f53906136b5565b8015611fa05780601f10611f7557610100808354040283529160200191611fa0565b820191906000526020600020905b815481529060010190602001808311611f8357829003601f168201915b505050505090506000611fbe60408051602081019091526000815290565b9050805160001415611fd1575092915050565b815115612003578082604051602001611feb929190613824565b60405160208183030381529060405292505050919050565b6116bc846123bf565b60006001600160e01b031982167f2a55205a0000000000000000000000000000000000000000000000000000000014806106c457506106c482612432565b6000828152600d602090815260408083206001600160a01b038516845290915290205460ff16610d105761207d81612470565b612088836020612482565b604051602001612099929190613853565b60408051601f198184030181529082905262461bcd60e51b82526107c8916004016132d1565b61109184848484612663565b60006120d88484846127ab565b60408086013560009081526010602052205490915060ff1661213c5760405162461bcd60e51b815260206004820152601f60248201527f43414e49534e46543a20746f6b656e4964206e6f7420617661696c61626c650060448201526064016107c8565b6001600160a01b03811660009081527fef76e30f82cef9253094d0d65d59e3c3265bbc72eb79ef44631eea2b65477abc602052604090205460ff16610f965760405162461bcd60e51b815260206004820152602760248201527f43414e49534e46543a206d7573742068617665206d696e74657220726f6c652060448201527f746f206d696e740000000000000000000000000000000000000000000000000060648201526084016107c8565b6121f3838361284c565b6122006000848484612267565b610a905760405162461bcd60e51b815260206004820152603260248201527f4552433732313a207472616e7366657220746f206e6f6e20455243373231526560448201527131b2b4bb32b91034b6b83632b6b2b73a32b960711b60648201526084016107c8565b60006001600160a01b0384163b156123b457604051630a85bd0160e11b81526001600160a01b0385169063150b7a02906122ab9033908990889088906004016138d4565b602060405180830381600087803b1580156122c557600080fd5b505af19250505080156122f5575060408051601f3d908101601f191682019092526122f291810190613910565b60015b61239a573d808015612323576040519150601f19603f3d011682016040523d82523d6000602084013e612328565b606091505b5080516123925760405162461bcd60e51b815260206004820152603260248201527f4552433732313a207472616e7366657220746f206e6f6e20455243373231526560448201527131b2b4bb32b91034b6b83632b6b2b73a32b960711b60648201526084016107c8565b805181602001fd5b6001600160e01b031916630a85bd0160e11b1490506116bc565b506001949350505050565b60606123ca82611566565b60006123e160408051602081019091526000815290565b905060008151116124015760405180602001604052806000815250610f96565b8061240b846129f2565b60405160200161241c929190613824565b6040516020818303038152906040529392505050565b60006001600160e01b031982167f780e9d630000000000000000000000000000000000000000000000000000000014806106c457506106c482612a9c565b60606106c46001600160a01b03831660145b606060006124918360026137e3565b61249c906002613682565b67ffffffffffffffff8111156124b4576124b4613466565b6040519080825280601f01601f1916602001820160405280156124de576020820181803683370190505b5090507f300000000000000000000000000000000000000000000000000000000000000081600081518110612515576125156136ea565b60200101906001600160f81b031916908160001a9053507f780000000000000000000000000000000000000000000000000000000000000081600181518110612560576125606136ea565b60200101906001600160f81b031916908160001a90535060006125848460026137e3565b61258f906001613682565b90505b6001811115612614577f303132333435363738396162636465660000000000000000000000000000000085600f16601081106125d0576125d06136ea565b1a60f81b8282815181106125e6576125e66136ea565b60200101906001600160f81b031916908160001a90535060049490941c9361260d8161392d565b9050612592565b508315610f965760405162461bcd60e51b815260206004820181905260248201527f537472696e67733a20686578206c656e67746820696e73756666696369656e7460448201526064016107c8565b61266f84848484612b37565b60018111156126e65760405162461bcd60e51b815260206004820152603560248201527f455243373231456e756d657261626c653a20636f6e736563757469766520747260448201527f616e7366657273206e6f7420737570706f72746564000000000000000000000060648201526084016107c8565b816001600160a01b0385166127425761273d81600980546000838152600a60205260408120829055600182018355919091527f6e1540171b6c0c960b71a7020d9f60077f6af931a8bbf590da0223dacf75c7af0155565b612765565b836001600160a01b0316856001600160a01b031614612765576127658582612bbf565b6001600160a01b0384166127815761277c81612c5c565b6127a4565b846001600160a01b0316846001600160a01b0316146127a4576127a48482612d0b565b5050505050565b60006116bc83838080601f01602080910402602001604051908101604052809392919081815260200183838082843760009201919091525061284692506127f59150889050612d4f565b8051602091820120604080517f19457468657265756d205369676e6564204d6573736167653a0a33320000000081850152603c8082019390935281518082039093018352605c019052805191012090565b90612dcb565b6001600160a01b0382166128a25760405162461bcd60e51b815260206004820181905260248201527f4552433732313a206d696e7420746f20746865207a65726f206164647265737360448201526064016107c8565b6000818152600260205260409020546001600160a01b0316156129075760405162461bcd60e51b815260206004820152601c60248201527f4552433732313a20746f6b656e20616c7265616479206d696e7465640000000060448201526064016107c8565b6129156000838360016120bf565b6000818152600260205260409020546001600160a01b03161561297a5760405162461bcd60e51b815260206004820152601c60248201527f4552433732313a20746f6b656e20616c7265616479206d696e7465640000000060448201526064016107c8565b6001600160a01b0382166000818152600360209081526040808320805460010190558483526002909152808220805473ffffffffffffffffffffffffffffffffffffffff19168417905551839291907fddf252ad1be2c89b69c2b068fc378daa952ba7f163c4a11628f55a4df523b3ef908290a45050565b606060006129ff83612de7565b600101905060008167ffffffffffffffff811115612a1f57612a1f613466565b6040519080825280601f01601f191660200182016040528015612a49576020820181803683370190505b5090508181016020015b600019017f3031323334353637383961626364656600000000000000000000000000000000600a86061a8153600a8504945084612a8f57612a94565b612a53565b509392505050565b60006001600160e01b031982167f80ac58cd000000000000000000000000000000000000000000000000000000001480612aff57506001600160e01b031982167f5b5e139f00000000000000000000000000000000000000000000000000000000145b806106c457507f01ffc9a7000000000000000000000000000000000000000000000000000000006001600160e01b03198316146106c4565b6001811115611091576001600160a01b03841615612b7d576001600160a01b03841660009081526003602052604081208054839290612b77908490613944565b90915550505b6001600160a01b03831615611091576001600160a01b03831660009081526003602052604081208054839290612bb4908490613682565b909155505050505050565b60006001612bcc84610e38565b612bd69190613944565b600083815260086020526040902054909150808214612c29576001600160a01b03841660009081526007602090815260408083208584528252808320548484528184208190558352600890915290208190555b5060009182526008602090815260408084208490556001600160a01b039094168352600781528383209183525290812055565b600954600090612c6e90600190613944565b6000838152600a602052604081205460098054939450909284908110612c9657612c966136ea565b906000526020600020015490508060098381548110612cb757612cb76136ea565b6000918252602080832090910192909255828152600a90915260408082208490558582528120556009805480612cef57612cef61395b565b6001900381819060005260206000200160009055905550505050565b6000612d1683610e38565b6001600160a01b039093166000908152600760209081526040808320868452825280832085905593825260089052919091209190915550565b6060612d5e6020830183613398565b612d6b6020840184613700565b604051612d79929190613971565b604080519182900382206bffffffffffffffffffffffff19606094851b166020840152603483015284013560548201529083013560748201526094016040516020818303038152906040529050919050565b6000806000612dda8585612ec9565b91509150612a9481612f0c565b6000807a184f03e93ff9f4daa797ed6e38ed64bf6a1f0100000000000000008310612e30577a184f03e93ff9f4daa797ed6e38ed64bf6a1f010000000000000000830492506040015b6d04ee2d6d415b85acef81000000008310612e5c576d04ee2d6d415b85acef8100000000830492506020015b662386f26fc100008310612e7a57662386f26fc10000830492506010015b6305f5e1008310612e92576305f5e100830492506008015b6127108310612ea657612710830492506004015b60648310612eb8576064830492506002015b600a83106106c45760010192915050565b600080825160411415612f005760208301516040840151606085015160001a612ef487828585613075565b94509450505050610bb4565b50600090506002610bb4565b6000816004811115612f2057612f20613981565b1415612f295750565b6001816004811115612f3d57612f3d613981565b1415612f8b5760405162461bcd60e51b815260206004820152601860248201527f45434453413a20696e76616c6964207369676e6174757265000000000000000060448201526064016107c8565b6002816004811115612f9f57612f9f613981565b1415612fed5760405162461bcd60e51b815260206004820152601f60248201527f45434453413a20696e76616c6964207369676e6174757265206c656e6774680060448201526064016107c8565b600381600481111561300157613001613981565b14156115635760405162461bcd60e51b815260206004820152602260248201527f45434453413a20696e76616c6964207369676e6174757265202773272076616c60448201527f756500000000000000000000000000000000000000000000000000000000000060648201526084016107c8565b6000807f7fffffffffffffffffffffffffffffff5d576e7357a4501ddfe92f46681b20a08311156130ac5750600090506003613130565b6040805160008082526020820180845289905260ff881692820192909252606081018690526080810185905260019060a0016020604051602081039080840390855afa158015613100573d6000803e3d6000fd5b5050604051601f1901519150506001600160a01b03811661312957600060019250925050613130565b9150600090505b94509492505050565b828054613145906136b5565b90600052602060002090601f01602090048101928261316757600085556131ad565b82601f1061318057805160ff19168380011785556131ad565b828001600101855582156131ad579182015b828111156131ad578251825591602001919060010190613192565b506113e49291505b808211156113e457600081556001016131b5565b6001600160e01b03198116811461156357600080fd5b6000602082840312156131f157600080fd5b8135610f96816131c9565b80356001600160a01b038116811461321357600080fd5b919050565b6000806040838503121561322b57600080fd5b613234836131fc565b915060208301356bffffffffffffffffffffffff8116811461325557600080fd5b809150509250929050565b60006020828403121561327257600080fd5b5035919050565b60005b8381101561329457818101518382015260200161327c565b838111156110915750506000910152565b600081518084526132bd816020860160208601613279565b601f01601f19169290920160200192915050565b602081526000610f9660208301846132a5565b600080604083850312156132f757600080fd5b613300836131fc565b946020939093013593505050565b60008060006060848603121561332357600080fd5b61332c846131fc565b925061333a602085016131fc565b9150604084013590509250925092565b6000806040838503121561335d57600080fd5b50508035926020909101359150565b6000806040838503121561337f57600080fd5b8235915061338f602084016131fc565b90509250929050565b6000602082840312156133aa57600080fd5b610f96826131fc565b60008083601f8401126133c557600080fd5b50813567ffffffffffffffff8111156133dd57600080fd5b602083019150836020828501011115610bb457600080fd5b60008060006040848603121561340a57600080fd5b833567ffffffffffffffff8082111561342257600080fd5b908501906080828803121561343657600080fd5b9093506020850135908082111561344c57600080fd5b50613459868287016133b3565b9497909650939450505050565b634e487b7160e01b600052604160045260246000fd5b600067ffffffffffffffff8084111561349757613497613466565b604051601f8501601f19908116603f011681019082821181831017156134bf576134bf613466565b816040528093508581528686860111156134d857600080fd5b858560208301376000602087830101525050509392505050565b60006020828403121561350457600080fd5b813567ffffffffffffffff81111561351b57600080fd5b8201601f8101841361352c57600080fd5b6116bc8482356020840161347c565b6000806040838503121561354e57600080fd5b613557836131fc565b91506020830135801515811461325557600080fd5b6000806000806080858703121561358257600080fd5b61358b856131fc565b9350613599602086016131fc565b925060408501359150606085013567ffffffffffffffff8111156135bc57600080fd5b8501601f810187136135cd57600080fd5b6135dc8782356020840161347c565b91505092959194509250565b600080600080606085870312156135fe57600080fd5b613607856131fc565b935060208501359250604085013567ffffffffffffffff81111561362a57600080fd5b613636878288016133b3565b95989497509550505050565b6000806040838503121561365557600080fd5b61365e836131fc565b915061338f602084016131fc565b634e487b7160e01b600052601160045260246000fd5b600082198211156136955761369561366c565b500190565b60006000198214156136ae576136ae61366c565b5060010190565b600181811c908216806136c957607f821691505b602082108114156108a457634e487b7160e01b600052602260045260246000fd5b634e487b7160e01b600052603260045260246000fd5b6000808335601e1984360301811261371757600080fd5b83018035915067ffffffffffffffff82111561373257600080fd5b602001915036819003821315610bb457600080fd5b600080835481600182811c91508083168061376357607f831692505b602080841082141561378357634e487b7160e01b86526022600452602486fd5b81801561379757600181146137a8576137d5565b60ff198616895284890196506137d5565b60008a81526020902060005b868110156137cd5781548b8201529085019083016137b4565b505084890196505b509498975050505050505050565b60008160001904831182151516156137fd576137fd61366c565b500290565b60008261381f57634e487b7160e01b600052601260045260246000fd5b500490565b60008351613836818460208801613279565b83519083019061384a818360208801613279565b01949350505050565b7f416363657373436f6e74726f6c3a206163636f756e742000000000000000000081526000835161388b816017850160208801613279565b7f206973206d697373696e6720726f6c652000000000000000000000000000000060179184019182015283516138c8816028840160208801613279565b01602801949350505050565b60006001600160a01b0380871683528086166020840152508360408301526080606083015261390660808301846132a5565b9695505050505050565b60006020828403121561392257600080fd5b8151610f96816131c9565b60008161393c5761393c61366c565b506000190190565b6000828210156139565761395661366c565b500390565b634e487b7160e01b600052603160045260246000fd5b8183823760009101908152919050565b634e487b7160e01b600052602160045260246000fdfea2646970667358221220bb7ac5fdcf4d07797564eda6b8940825d4e8bc463c16dfea6256a501d3ba445664736f6c63430008090033",
  "devdoc": {
    "author": "Think and Dev",
    "kind": "dev",
    "methods": {
      "approve(address,uint256)": {
        "details": "See {IERC721-approve}."
      },
      "balanceOf(address)": {
        "details": "See {IERC721-balanceOf}."
      },
      "claim((address,string,uint256,uint256),bytes)": {
        "details": "Function that users has to call to get an NFT by signature",
        "params": {
          "request": "request data signed to claim a nft",
          "signature": "signature necesary for claim"
        }
      },
      "constructor": {
        "params": {
          "_contractUri": "Contract Uri",
          "cap_": "Max amount of NFTs to be minted. Cannot change",
          "defaultFeeNumerator": "Fees to be charged for royalties",
          "defaultRoyaltyReceiver": "NFT Royalties receiver for all the collection",
          "name": "NFT name",
          "symbol": "NFT symbol"
        }
      },
      "getApproved(uint256)": {
        "details": "See {IERC721-getApproved}."
      },
      "getRoleAdmin(bytes32)": {
        "details": "Returns the admin role that controls `role`. See {grantRole} and {revokeRole}. To change a role's admin, use {_setRoleAdmin}."
      },
      "grantRole(bytes32,address)": {
        "details": "Grants `role` to `account`. If `account` had not been already granted `role`, emits a {RoleGranted} event. Requirements: - the caller must have ``role``'s admin role. May emit a {RoleGranted} event."
      },
      "hasRole(bytes32,address)": {
        "details": "Returns `true` if `account` has been granted `role`."
      },
      "isApprovedForAll(address,address)": {
        "details": "See {IERC721-isApprovedForAll}."
      },
      "name()": {
        "details": "See {IERC721Metadata-name}."
      },
      "ownerOf(uint256)": {
        "details": "See {IERC721-ownerOf}."
      },
      "renounceRole(bytes32,address)": {
        "details": "Revokes `role` from the calling account. Roles are often managed via {grantRole} and {revokeRole}: this function's purpose is to provide a mechanism for accounts to lose their privileges if they are compromised (such as when a trusted device is misplaced). If the calling account had been revoked `role`, emits a {RoleRevoked} event. Requirements: - the caller must be `account`. May emit a {RoleRevoked} event."
      },
      "revokeRole(bytes32,address)": {
        "details": "Revokes `role` from `account`. If `account` had been granted `role`, emits a {RoleRevoked} event. Requirements: - the caller must have ``role``'s admin role. May emit a {RoleRevoked} event."
      },
      "royaltyInfo(uint256,uint256)": {
        "details": "Returns how much royalty is owed and to whom, based on a sale price that may be denominated in any unit of exchange. The royalty amount is denominated and should be paid in that same unit of exchange."
      },
      "safeLazyMint()": {
        "returns": {
          "_0": "id of the next NFT to be minted"
        }
      },
      "safeLazyMintBatch(uint256)": {
        "params": {
          "quantity": "amount of NFTs to be minted"
        },
        "returns": {
          "_0": "id of the next NFT to be minted"
        }
      },
      "safeMint(address,uint256,string)": {
        "returns": {
          "_0": "id of the new minted NFT"
        }
      },
      "safeTransferFrom(address,address,uint256)": {
        "details": "See {IERC721-safeTransferFrom}."
      },
      "safeTransferFrom(address,address,uint256,bytes)": {
        "details": "See {IERC721-safeTransferFrom}."
      },
      "setApprovalForAll(address,bool)": {
        "details": "See {IERC721-setApprovalForAll}."
      },
      "setContractURI(string)": {
        "params": {
          "_contractUri": "contractUri"
        }
      },
      "setDefaultRoyalty(address,uint96)": {
        "details": "Set royalty receiver and feenumerator to be charged",
        "params": {
          "feeNumerator": "fees to be charged to users on sales",
          "receiver": "Royalty beneficiary"
        }
      },
      "symbol()": {
        "details": "See {IERC721Metadata-symbol}."
      },
      "tokenByIndex(uint256)": {
        "details": "See {IERC721Enumerable-tokenByIndex}."
      },
      "tokenOfOwnerByIndex(address,uint256)": {
        "details": "See {IERC721Enumerable-tokenOfOwnerByIndex}."
      },
      "tokenURI(uint256)": {
        "custom:notice": "The following function is override required by Solidity."
      },
      "totalSupply()": {
        "details": "See {IERC721Enumerable-totalSupply}."
      },
      "transferFrom(address,address,uint256)": {
        "details": "See {IERC721-transferFrom}."
      }
    },
    "stateVariables": {
      "CAP": {
        "details": "Max amount of NFTs to be minted"
      },
      "MINTER_ROLE": {
        "details": "Minter rol"
      },
      "contractUri": {
        "details": "ContractUri"
      }
    },
    "title": "Canis NFT contract",
    "version": 1
  },
  "userdoc": {
    "kind": "user",
    "methods": {
      "claim((address,string,uint256,uint256),bytes)": {
        "notice": "Claim an nft by signature"
      },
      "constructor": {
        "notice": "Init contract"
      },
      "contractURI()": {
        "notice": "openSea integration royalty. See https://docs.opensea.io/docs/contract-level-metadata"
      },
      "safeLazyMint()": {
        "notice": "Lazy Mint NFTs"
      },
      "safeLazyMintBatch(uint256)": {
        "notice": "Laxy Batch Mint NFTs"
      },
      "safeMint(address,uint256,string)": {
        "notice": "Mint NFT initialized in lazyMint"
      },
      "setContractURI(string)": {
        "notice": "Modify contractUri for NFT collection"
      },
      "setDefaultRoyalty(address,uint96)": {
        "notice": "Royalties config"
      }
    },
    "version": 1
  },
  "storageLayout": {
    "storage": [
      {
        "astId": 1597,
        "contract": "contracts/CanisNFT.sol:CanisNFT",
        "label": "_name",
        "offset": 0,
        "slot": "0",
        "type": "t_string_storage"
      },
      {
        "astId": 1599,
        "contract": "contracts/CanisNFT.sol:CanisNFT",
        "label": "_symbol",
        "offset": 0,
        "slot": "1",
        "type": "t_string_storage"
      },
      {
        "astId": 1603,
        "contract": "contracts/CanisNFT.sol:CanisNFT",
        "label": "_owners",
        "offset": 0,
        "slot": "2",
        "type": "t_mapping(t_uint256,t_address)"
      },
      {
        "astId": 1607,
        "contract": "contracts/CanisNFT.sol:CanisNFT",
        "label": "_balances",
        "offset": 0,
        "slot": "3",
        "type": "t_mapping(t_address,t_uint256)"
      },
      {
        "astId": 1611,
        "contract": "contracts/CanisNFT.sol:CanisNFT",
        "label": "_tokenApprovals",
        "offset": 0,
        "slot": "4",
        "type": "t_mapping(t_uint256,t_address)"
      },
      {
        "astId": 1617,
        "contract": "contracts/CanisNFT.sol:CanisNFT",
        "label": "_operatorApprovals",
        "offset": 0,
        "slot": "5",
        "type": "t_mapping(t_address,t_mapping(t_address,t_bool))"
      },
      {
        "astId": 3017,
        "contract": "contracts/CanisNFT.sol:CanisNFT",
        "label": "_tokenURIs",
        "offset": 0,
        "slot": "6",
        "type": "t_mapping(t_uint256,t_string_storage)"
      },
      {
        "astId": 2665,
        "contract": "contracts/CanisNFT.sol:CanisNFT",
        "label": "_ownedTokens",
        "offset": 0,
        "slot": "7",
        "type": "t_mapping(t_address,t_mapping(t_uint256,t_uint256))"
      },
      {
        "astId": 2669,
        "contract": "contracts/CanisNFT.sol:CanisNFT",
        "label": "_ownedTokensIndex",
        "offset": 0,
        "slot": "8",
        "type": "t_mapping(t_uint256,t_uint256)"
      },
      {
        "astId": 2672,
        "contract": "contracts/CanisNFT.sol:CanisNFT",
        "label": "_allTokens",
        "offset": 0,
        "slot": "9",
        "type": "t_array(t_uint256)dyn_storage"
      },
      {
        "astId": 2676,
        "contract": "contracts/CanisNFT.sol:CanisNFT",
        "label": "_allTokensIndex",
        "offset": 0,
        "slot": "10",
        "type": "t_mapping(t_uint256,t_uint256)"
      },
      {
        "astId": 3204,
        "contract": "contracts/CanisNFT.sol:CanisNFT",
        "label": "_defaultRoyaltyInfo",
        "offset": 0,
        "slot": "11",
        "type": "t_struct(RoyaltyInfo)3201_storage"
      },
      {
        "astId": 3209,
        "contract": "contracts/CanisNFT.sol:CanisNFT",
        "label": "_tokenRoyaltyInfo",
        "offset": 0,
        "slot": "12",
        "type": "t_mapping(t_uint256,t_struct(RoyaltyInfo)3201_storage)"
      },
      {
        "astId": 24,
        "contract": "contracts/CanisNFT.sol:CanisNFT",
        "label": "_roles",
        "offset": 0,
        "slot": "13",
        "type": "t_mapping(t_bytes32,t_struct(RoleData)19_storage)"
      },
      {
        "astId": 5427,
        "contract": "contracts/CanisNFT.sol:CanisNFT",
        "label": "contractUri",
        "offset": 0,
        "slot": "14",
        "type": "t_string_storage"
      },
      {
        "astId": 5434,
        "contract": "contracts/CanisNFT.sol:CanisNFT",
        "label": "_tokenIdCounter",
        "offset": 0,
        "slot": "15",
        "type": "t_struct(Counter)3743_storage"
      },
      {
        "astId": 5452,
        "contract": "contracts/CanisNFT.sol:CanisNFT",
        "label": "availableToMint",
        "offset": 0,
        "slot": "16",
        "type": "t_mapping(t_uint256,t_bool)"
      }
    ],
    "types": {
      "t_address": {
        "encoding": "inplace",
        "label": "address",
        "numberOfBytes": "20"
      },
      "t_array(t_uint256)dyn_storage": {
        "base": "t_uint256",
        "encoding": "dynamic_array",
        "label": "uint256[]",
        "numberOfBytes": "32"
      },
      "t_bool": {
        "encoding": "inplace",
        "label": "bool",
        "numberOfBytes": "1"
      },
      "t_bytes32": {
        "encoding": "inplace",
        "label": "bytes32",
        "numberOfBytes": "32"
      },
      "t_mapping(t_address,t_bool)": {
        "encoding": "mapping",
        "key": "t_address",
        "label": "mapping(address => bool)",
        "numberOfBytes": "32",
        "value": "t_bool"
      },
      "t_mapping(t_address,t_mapping(t_address,t_bool))": {
        "encoding": "mapping",
        "key": "t_address",
        "label": "mapping(address => mapping(address => bool))",
        "numberOfBytes": "32",
        "value": "t_mapping(t_address,t_bool)"
      },
      "t_mapping(t_address,t_mapping(t_uint256,t_uint256))": {
        "encoding": "mapping",
        "key": "t_address",
        "label": "mapping(address => mapping(uint256 => uint256))",
        "numberOfBytes": "32",
        "value": "t_mapping(t_uint256,t_uint256)"
      },
      "t_mapping(t_address,t_uint256)": {
        "encoding": "mapping",
        "key": "t_address",
        "label": "mapping(address => uint256)",
        "numberOfBytes": "32",
        "value": "t_uint256"
      },
      "t_mapping(t_bytes32,t_struct(RoleData)19_storage)": {
        "encoding": "mapping",
        "key": "t_bytes32",
        "label": "mapping(bytes32 => struct AccessControl.RoleData)",
        "numberOfBytes": "32",
        "value": "t_struct(RoleData)19_storage"
      },
      "t_mapping(t_uint256,t_address)": {
        "encoding": "mapping",
        "key": "t_uint256",
        "label": "mapping(uint256 => address)",
        "numberOfBytes": "32",
        "value": "t_address"
      },
      "t_mapping(t_uint256,t_bool)": {
        "encoding": "mapping",
        "key": "t_uint256",
        "label": "mapping(uint256 => bool)",
        "numberOfBytes": "32",
        "value": "t_bool"
      },
      "t_mapping(t_uint256,t_string_storage)": {
        "encoding": "mapping",
        "key": "t_uint256",
        "label": "mapping(uint256 => string)",
        "numberOfBytes": "32",
        "value": "t_string_storage"
      },
      "t_mapping(t_uint256,t_struct(RoyaltyInfo)3201_storage)": {
        "encoding": "mapping",
        "key": "t_uint256",
        "label": "mapping(uint256 => struct ERC2981.RoyaltyInfo)",
        "numberOfBytes": "32",
        "value": "t_struct(RoyaltyInfo)3201_storage"
      },
      "t_mapping(t_uint256,t_uint256)": {
        "encoding": "mapping",
        "key": "t_uint256",
        "label": "mapping(uint256 => uint256)",
        "numberOfBytes": "32",
        "value": "t_uint256"
      },
      "t_string_storage": {
        "encoding": "bytes",
        "label": "string",
        "numberOfBytes": "32"
      },
      "t_struct(Counter)3743_storage": {
        "encoding": "inplace",
        "label": "struct Counters.Counter",
        "members": [
          {
            "astId": 3742,
            "contract": "contracts/CanisNFT.sol:CanisNFT",
            "label": "_value",
            "offset": 0,
            "slot": "0",
            "type": "t_uint256"
          }
        ],
        "numberOfBytes": "32"
      },
      "t_struct(RoleData)19_storage": {
        "encoding": "inplace",
        "label": "struct AccessControl.RoleData",
        "members": [
          {
            "astId": 16,
            "contract": "contracts/CanisNFT.sol:CanisNFT",
            "label": "members",
            "offset": 0,
            "slot": "0",
            "type": "t_mapping(t_address,t_bool)"
          },
          {
            "astId": 18,
            "contract": "contracts/CanisNFT.sol:CanisNFT",
            "label": "adminRole",
            "offset": 0,
            "slot": "1",
            "type": "t_bytes32"
          }
        ],
        "numberOfBytes": "64"
      },
      "t_struct(RoyaltyInfo)3201_storage": {
        "encoding": "inplace",
        "label": "struct ERC2981.RoyaltyInfo",
        "members": [
          {
            "astId": 3198,
            "contract": "contracts/CanisNFT.sol:CanisNFT",
            "label": "receiver",
            "offset": 0,
            "slot": "0",
            "type": "t_address"
          },
          {
            "astId": 3200,
            "contract": "contracts/CanisNFT.sol:CanisNFT",
            "label": "royaltyFraction",
            "offset": 20,
            "slot": "0",
            "type": "t_uint96"
          }
        ],
        "numberOfBytes": "32"
      },
      "t_uint256": {
        "encoding": "inplace",
        "label": "uint256",
        "numberOfBytes": "32"
      },
      "t_uint96": {
        "encoding": "inplace",
        "label": "uint96",
        "numberOfBytes": "12"
      }
    }
  }
}