{
  "address": "0x61fae76e583F6D718235d9549b643d53D4879a85",
  "abi": [
    {
      "inputs": [
        {
          "internalType": "address[]",
          "name": "payees",
          "type": "address[]"
        },
        {
          "internalType": "uint256[]",
          "name": "shares",
          "type": "uint256[]"
        }
      ],
      "stateMutability": "nonpayable",
      "type": "constructor"
    },
    {
      "anonymous": false,
      "inputs": [
        {
          "indexed": true,
          "internalType": "contract IERC20",
          "name": "token",
          "type": "address"
        },
        {
          "indexed": false,
          "internalType": "address",
          "name": "to",
          "type": "address"
        },
        {
          "indexed": false,
          "internalType": "uint256",
          "name": "amount",
          "type": "uint256"
        }
      ],
      "name": "ERC20PaymentReleased",
      "type": "event"
    },
    {
      "anonymous": false,
      "inputs": [
        {
          "indexed": true,
          "internalType": "address",
          "name": "previousOwner",
          "type": "address"
        },
        {
          "indexed": true,
          "internalType": "address",
          "name": "newOwner",
          "type": "address"
        }
      ],
      "name": "OwnershipTransferred",
      "type": "event"
    },
    {
      "anonymous": false,
      "inputs": [
        {
          "indexed": false,
          "internalType": "address",
          "name": "account",
          "type": "address"
        },
        {
          "indexed": false,
          "internalType": "uint256",
          "name": "shares",
          "type": "uint256"
        }
      ],
      "name": "PayeeAdded",
      "type": "event"
    },
    {
      "anonymous": false,
      "inputs": [
        {
          "indexed": false,
          "internalType": "address",
          "name": "account",
          "type": "address"
        },
        {
          "indexed": false,
          "internalType": "uint256",
          "name": "shares",
          "type": "uint256"
        }
      ],
      "name": "PayeeRemove",
      "type": "event"
    },
    {
      "anonymous": false,
      "inputs": [
        {
          "indexed": false,
          "internalType": "address",
          "name": "from",
          "type": "address"
        },
        {
          "indexed": false,
          "internalType": "uint256",
          "name": "amount",
          "type": "uint256"
        }
      ],
      "name": "PaymentReceived",
      "type": "event"
    },
    {
      "anonymous": false,
      "inputs": [
        {
          "indexed": false,
          "internalType": "address",
          "name": "to",
          "type": "address"
        },
        {
          "indexed": false,
          "internalType": "uint256",
          "name": "amount",
          "type": "uint256"
        }
      ],
      "name": "PaymentReleased",
      "type": "event"
    },
    {
      "inputs": [
        {
          "internalType": "address",
          "name": "account",
          "type": "address"
        },
        {
          "internalType": "uint256",
          "name": "shares",
          "type": "uint256"
        }
      ],
      "name": "addPayee",
      "outputs": [],
      "stateMutability": "nonpayable",
      "type": "function"
    },
    {
      "inputs": [],
      "name": "owner",
      "outputs": [
        {
          "internalType": "address",
          "name": "",
          "type": "address"
        }
      ],
      "stateMutability": "view",
      "type": "function"
    },
    {
      "inputs": [
        {
          "internalType": "uint256",
          "name": "index",
          "type": "uint256"
        }
      ],
      "name": "payee",
      "outputs": [
        {
          "internalType": "address",
          "name": "",
          "type": "address"
        }
      ],
      "stateMutability": "view",
      "type": "function"
    },
    {
      "inputs": [
        {
          "internalType": "address",
          "name": "account",
          "type": "address"
        }
      ],
      "name": "releasable",
      "outputs": [
        {
          "internalType": "uint256",
          "name": "",
          "type": "uint256"
        }
      ],
      "stateMutability": "view",
      "type": "function"
    },
    {
      "inputs": [
        {
          "internalType": "contract IERC20",
          "name": "token",
          "type": "address"
        },
        {
          "internalType": "address",
          "name": "account",
          "type": "address"
        }
      ],
      "name": "releasable",
      "outputs": [
        {
          "internalType": "uint256",
          "name": "",
          "type": "uint256"
        }
      ],
      "stateMutability": "view",
      "type": "function"
    },
    {
      "inputs": [
        {
          "internalType": "address payable",
          "name": "account",
          "type": "address"
        }
      ],
      "name": "release",
      "outputs": [],
      "stateMutability": "nonpayable",
      "type": "function"
    },
    {
      "inputs": [
        {
          "internalType": "contract IERC20",
          "name": "token",
          "type": "address"
        },
        {
          "internalType": "address",
          "name": "account",
          "type": "address"
        }
      ],
      "name": "release",
      "outputs": [],
      "stateMutability": "nonpayable",
      "type": "function"
    },
    {
      "inputs": [
        {
          "internalType": "contract IERC20",
          "name": "token",
          "type": "address"
        },
        {
          "internalType": "address",
          "name": "account",
          "type": "address"
        }
      ],
      "name": "released",
      "outputs": [
        {
          "internalType": "uint256",
          "name": "",
          "type": "uint256"
        }
      ],
      "stateMutability": "view",
      "type": "function"
    },
    {
      "inputs": [
        {
          "internalType": "address",
          "name": "account",
          "type": "address"
        }
      ],
      "name": "released",
      "outputs": [
        {
          "internalType": "uint256",
          "name": "",
          "type": "uint256"
        }
      ],
      "stateMutability": "view",
      "type": "function"
    },
    {
      "inputs": [
        {
          "internalType": "uint256",
          "name": "indexPayee",
          "type": "uint256"
        },
        {
          "internalType": "address",
          "name": "account",
          "type": "address"
        }
      ],
      "name": "removePayee",
      "outputs": [],
      "stateMutability": "nonpayable",
      "type": "function"
    },
    {
      "inputs": [],
      "name": "renounceOwnership",
      "outputs": [],
      "stateMutability": "nonpayable",
      "type": "function"
    },
    {
      "inputs": [
        {
          "internalType": "address",
          "name": "account",
          "type": "address"
        }
      ],
      "name": "shares",
      "outputs": [
        {
          "internalType": "uint256",
          "name": "",
          "type": "uint256"
        }
      ],
      "stateMutability": "view",
      "type": "function"
    },
    {
      "inputs": [
        {
          "internalType": "contract IERC20",
          "name": "token",
          "type": "address"
        }
      ],
      "name": "totalReleased",
      "outputs": [
        {
          "internalType": "uint256",
          "name": "",
          "type": "uint256"
        }
      ],
      "stateMutability": "view",
      "type": "function"
    },
    {
      "inputs": [],
      "name": "totalReleased",
      "outputs": [
        {
          "internalType": "uint256",
          "name": "",
          "type": "uint256"
        }
      ],
      "stateMutability": "view",
      "type": "function"
    },
    {
      "inputs": [],
      "name": "totalShares",
      "outputs": [
        {
          "internalType": "uint256",
          "name": "",
          "type": "uint256"
        }
      ],
      "stateMutability": "view",
      "type": "function"
    },
    {
      "inputs": [
        {
          "internalType": "address",
          "name": "newOwner",
          "type": "address"
        }
      ],
      "name": "transferOwnership",
      "outputs": [],
      "stateMutability": "nonpayable",
      "type": "function"
    },
    {
      "stateMutability": "payable",
      "type": "receive"
    }
  ],
  "transactionHash": "0xd784cd505db02648bc47d6eadf5cdee0ed94858a3ad9b53dce4027df2347fa17",
  "args": [
    [
      "0x0d42274878ca5f07B0420bBeBB56C3A66b83D63F",
      "0x16641341A60cB93D6255Ca64750fFa81e22DC3eb"
    ],
    [
      50,
      50
    ]
  ],
  "numDeployments": 1,
  "solcInputHash": "1e334dd8c66988b0c0bc5157d2fb9c62",
  "bytecode": "0x60806040523480156200001157600080fd5b50604051620019373803806200193783398101604081905262000034916200049c565b818162000041336200017d565b8051825114620000b35760405162461bcd60e51b815260206004820152603260248201527f5061796d656e7453706c69747465723a2070617965657320616e6420736861726044820152710cae640d8cadccee8d040dad2e6dac2e8c6d60731b60648201526084015b60405180910390fd5b6000825111620001065760405162461bcd60e51b815260206004820152601a60248201527f5061796d656e7453706c69747465723a206e6f207061796565730000000000006044820152606401620000aa565b60005b825181101562000172576200015d8382815181106200012c576200012c6200057a565b60200260200101518383815181106200014957620001496200057a565b6020026020010151620001cd60201b60201c565b806200016981620005a6565b91505062000109565b5050505050620005de565b600080546001600160a01b038381166001600160a01b0319831681178455604051919092169283917f8be0079c531659141344cd1fd0a4f28419497f9722a3daafe3b4186f6b6457e09190a35050565b6001600160a01b0382166200023a5760405162461bcd60e51b815260206004820152602c60248201527f5061796d656e7453706c69747465723a206163636f756e74206973207468652060448201526b7a65726f206164647265737360a01b6064820152608401620000aa565b600081116200028c5760405162461bcd60e51b815260206004820152601d60248201527f5061796d656e7453706c69747465723a207368617265732061726520300000006044820152606401620000aa565b6001600160a01b03821660009081526003602052604090205415620003085760405162461bcd60e51b815260206004820152602b60248201527f5061796d656e7453706c69747465723a206163636f756e7420616c726561647960448201526a206861732073686172657360a81b6064820152608401620000aa565b6005805460018082019092557f036b6384b5eca791c62761152d0c79bb0604c104a5fb6f4eb0703f3154bb3db00180546001600160a01b0319166001600160a01b03851690811790915560009081526003602052604090208290555462000371908290620005c2565b600155604080516001600160a01b0384168152602081018390527f40c340f65e17194d14ddddb073d3c9f888e3cb52b5aae0c6c7706b4fbc905fac910160405180910390a15050565b634e487b7160e01b600052604160045260246000fd5b604051601f8201601f191681016001600160401b0381118282101715620003fb57620003fb620003ba565b604052919050565b60006001600160401b038211156200041f576200041f620003ba565b5060051b60200190565b600082601f8301126200043b57600080fd5b81516020620004546200044e8362000403565b620003d0565b82815260059290921b840181019181810190868411156200047457600080fd5b8286015b8481101562000491578051835291830191830162000478565b509695505050505050565b60008060408385031215620004b057600080fd5b82516001600160401b0380821115620004c857600080fd5b818501915085601f830112620004dd57600080fd5b81516020620004f06200044e8362000403565b82815260059290921b840181019181810190898411156200051057600080fd5b948201945b83861015620005475785516001600160a01b0381168114620005375760008081fd5b8252948201949082019062000515565b918801519196509093505050808211156200056157600080fd5b50620005708582860162000429565b9150509250929050565b634e487b7160e01b600052603260045260246000fd5b634e487b7160e01b600052601160045260246000fd5b600060018201620005bb57620005bb62000590565b5060010190565b80820180821115620005d857620005d862000590565b92915050565b61134980620005ee6000396000f3fe6080604052600436106100f75760003560e01c80639852595c1161008a578063ce7c2ac211610059578063ce7c2ac2146102ec578063d79779b214610322578063e33b7de314610358578063f2fde38b1461036d57600080fd5b80639852595c146102565780639c1e49751461028c578063a3f8eace146102ac578063c45ac050146102cc57600080fd5b806348b75044116100c657806348b75044146101cb578063715018a6146101eb5780638b83209b146102005780638da5cb5b1461023857600080fd5b806318f9b0231461014557806319165587146101675780633a98ef3914610187578063406072a9146101ab57600080fd5b36610140577f6ef95f06320e7a25a04a175ca677b7052bdd97131872c2192525a629f51be77033604080516001600160a01b0390921682523460208301520160405180910390a1005b600080fd5b34801561015157600080fd5b50610165610160366004611073565b61038d565b005b34801561017357600080fd5b5061016561018236600461109f565b6103a3565b34801561019357600080fd5b506001545b6040519081526020015b60405180910390f35b3480156101b757600080fd5b506101986101c63660046110bc565b6104a6565b3480156101d757600080fd5b506101656101e63660046110bc565b6104d3565b3480156101f757600080fd5b506101656105f6565b34801561020c57600080fd5b5061022061021b3660046110f5565b61060a565b6040516001600160a01b0390911681526020016101a2565b34801561024457600080fd5b506000546001600160a01b0316610220565b34801561026257600080fd5b5061019861027136600461109f565b6001600160a01b031660009081526004602052604090205490565b34801561029857600080fd5b506101656102a736600461110e565b61063a565b3480156102b857600080fd5b506101986102c736600461109f565b6108cc565b3480156102d857600080fd5b506101986102e73660046110bc565b610914565b3480156102f857600080fd5b5061019861030736600461109f565b6001600160a01b031660009081526003602052604090205490565b34801561032e57600080fd5b5061019861033d36600461109f565b6001600160a01b031660009081526006602052604090205490565b34801561036457600080fd5b50600254610198565b34801561037957600080fd5b5061016561038836600461109f565b6109ba565b610395610a33565b61039f8282610a8d565b5050565b6001600160a01b0381166000908152600360205260409020546103e15760405162461bcd60e51b81526004016103d890611133565b60405180910390fd5b60006103ec826108cc565b90508060000361040e5760405162461bcd60e51b81526004016103d890611179565b6001600160a01b038216600090815260046020526040812080548392906104369084906111da565b92505081905550806002600082825461044f91906111da565b9091555061045f90508282610c6b565b604080516001600160a01b0384168152602081018390527fdf20fd1e76bc69d672e4814fafb2c449bba3a5369d8359adf9e05e6fde87b05691015b60405180910390a15050565b6001600160a01b038083166000908152600760209081526040808320938516835292905220545b92915050565b6001600160a01b0381166000908152600360205260409020546105085760405162461bcd60e51b81526004016103d890611133565b60006105148383610914565b9050806000036105365760405162461bcd60e51b81526004016103d890611179565b6001600160a01b0380841660009081526007602090815260408083209386168352929052908120805483929061056d9084906111da565b90915550506001600160a01b0383166000908152600660205260408120805483929061059a9084906111da565b909155506105ab9050838383610d89565b604080516001600160a01b038481168252602082018490528516917f3be5b7a71e84ed12875d241991c70855ac5817d847039e17a9d895c1ceb0f18a910160405180910390a2505050565b6105fe610a33565b6106086000610ddb565b565b60006005828154811061061f5761061f6111ed565b6000918252602090912001546001600160a01b031692915050565b610642610a33565b6001600160a01b0381166106a45760405162461bcd60e51b8152602060048201526024808201527f526f79616c74793a206163636f756e7420697320746865207a65726f206164646044820152637265737360e01b60648201526084016103d8565b60055482106107055760405162461bcd60e51b815260206004820152602760248201527f526f79616c74793a20696e6465785061796565206e6f7420657869737420696e6044820152662070617965657360c81b60648201526084016103d8565b806001600160a01b031660058381548110610722576107226111ed565b6000918252602090912001546001600160a01b0316146107aa5760405162461bcd60e51b815260206004820152603860248201527f526f79616c74793a206163636f756e74206973206e6f74207468652073616d6560448201527f206173206163636f756e7420696e2074686520696e646578000000000000000060648201526084016103d8565b600580546107ba90600190611203565b815481106107ca576107ca6111ed565b600091825260209091200154600580546001600160a01b0390921691849081106107f6576107f66111ed565b9060005260206000200160006101000a8154816001600160a01b0302191690836001600160a01b03160217905550600580548061083557610835611216565b60008281526020808220830160001990810180546001600160a01b03191690559092019092556001600160a01b038316825260039052604081208054919055600154610882908290611203565b600155604080516001600160a01b0384168152602081018390527f22c40819e1f77dc9265c37f7edb29bebd1fb2e1cf46df8fd9a9ab5c83505d4fc910160405180910390a1505050565b6000806108d860025490565b6108e290476111da565b905061090d8382610908866001600160a01b031660009081526004602052604090205490565b610e2b565b9392505050565b6001600160a01b03821660009081526006602052604081205481906040516370a0823160e01b81523060048201526001600160a01b038616906370a0823190602401602060405180830381865afa158015610973573d6000803e3d6000fd5b505050506040513d601f19601f82011682018060405250810190610997919061122c565b6109a191906111da565b90506109b2838261090887876104a6565b949350505050565b6109c2610a33565b6001600160a01b038116610a275760405162461bcd60e51b815260206004820152602660248201527f4f776e61626c653a206e6577206f776e657220697320746865207a65726f206160448201526564647265737360d01b60648201526084016103d8565b610a3081610ddb565b50565b6000546001600160a01b031633146106085760405162461bcd60e51b815260206004820181905260248201527f4f776e61626c653a2063616c6c6572206973206e6f7420746865206f776e657260448201526064016103d8565b6001600160a01b038216610af85760405162461bcd60e51b815260206004820152602c60248201527f5061796d656e7453706c69747465723a206163636f756e74206973207468652060448201526b7a65726f206164647265737360a01b60648201526084016103d8565b60008111610b485760405162461bcd60e51b815260206004820152601d60248201527f5061796d656e7453706c69747465723a2073686172657320617265203000000060448201526064016103d8565b6001600160a01b03821660009081526003602052604090205415610bc25760405162461bcd60e51b815260206004820152602b60248201527f5061796d656e7453706c69747465723a206163636f756e7420616c726561647960448201526a206861732073686172657360a81b60648201526084016103d8565b6005805460018082019092557f036b6384b5eca791c62761152d0c79bb0604c104a5fb6f4eb0703f3154bb3db00180546001600160a01b0319166001600160a01b038516908117909155600090815260036020526040902082905554610c299082906111da565b600155604080516001600160a01b0384168152602081018390527f40c340f65e17194d14ddddb073d3c9f888e3cb52b5aae0c6c7706b4fbc905fac910161049a565b80471015610cbb5760405162461bcd60e51b815260206004820152601d60248201527f416464726573733a20696e73756666696369656e742062616c616e636500000060448201526064016103d8565b6000826001600160a01b03168260405160006040518083038185875af1925050503d8060008114610d08576040519150601f19603f3d011682016040523d82523d6000602084013e610d0d565b606091505b5050905080610d845760405162461bcd60e51b815260206004820152603a60248201527f416464726573733a20756e61626c6520746f2073656e642076616c75652c207260448201527f6563697069656e74206d6179206861766520726576657274656400000000000060648201526084016103d8565b505050565b604080516001600160a01b038416602482015260448082018490528251808303909101815260649091019091526020810180516001600160e01b031663a9059cbb60e01b179052610d84908490610e69565b600080546001600160a01b038381166001600160a01b0319831681178455604051919092169283917f8be0079c531659141344cd1fd0a4f28419497f9722a3daafe3b4186f6b6457e09190a35050565b6001546001600160a01b03841660009081526003602052604081205490918391610e559086611245565b610e5f919061125c565b6109b29190611203565b6000610ebe826040518060400160405280602081526020017f5361666545524332303a206c6f772d6c6576656c2063616c6c206661696c6564815250856001600160a01b0316610f3b9092919063ffffffff16565b805190915015610d845780806020019051810190610edc919061127e565b610d845760405162461bcd60e51b815260206004820152602a60248201527f5361666545524332303a204552433230206f7065726174696f6e20646964206e6044820152691bdd081cdd58d8d9595960b21b60648201526084016103d8565b60606109b2848460008585600080866001600160a01b03168587604051610f6291906112c4565b60006040518083038185875af1925050503d8060008114610f9f576040519150601f19603f3d011682016040523d82523d6000602084013e610fa4565b606091505b5091509150610fb587838387610fc0565b979650505050505050565b6060831561102f578251600003611028576001600160a01b0385163b6110285760405162461bcd60e51b815260206004820152601d60248201527f416464726573733a2063616c6c20746f206e6f6e2d636f6e747261637400000060448201526064016103d8565b50816109b2565b6109b283838151156110445781518083602001fd5b8060405162461bcd60e51b81526004016103d891906112e0565b6001600160a01b0381168114610a3057600080fd5b6000806040838503121561108657600080fd5b82356110918161105e565b946020939093013593505050565b6000602082840312156110b157600080fd5b813561090d8161105e565b600080604083850312156110cf57600080fd5b82356110da8161105e565b915060208301356110ea8161105e565b809150509250929050565b60006020828403121561110757600080fd5b5035919050565b6000806040838503121561112157600080fd5b8235915060208301356110ea8161105e565b60208082526026908201527f5061796d656e7453706c69747465723a206163636f756e7420686173206e6f2060408201526573686172657360d01b606082015260800190565b6020808252602b908201527f5061796d656e7453706c69747465723a206163636f756e74206973206e6f742060408201526a191d59481c185e5b595b9d60aa1b606082015260800190565b634e487b7160e01b600052601160045260246000fd5b808201808211156104cd576104cd6111c4565b634e487b7160e01b600052603260045260246000fd5b818103818111156104cd576104cd6111c4565b634e487b7160e01b600052603160045260246000fd5b60006020828403121561123e57600080fd5b5051919050565b80820281158282048414176104cd576104cd6111c4565b60008261127957634e487b7160e01b600052601260045260246000fd5b500490565b60006020828403121561129057600080fd5b8151801515811461090d57600080fd5b60005b838110156112bb5781810151838201526020016112a3565b50506000910152565b600082516112d68184602087016112a0565b9190910192915050565b60208152600082518060208401526112ff8160408501602087016112a0565b601f01601f1916919091016040019291505056fea264697066735822122029f76a19e8d39aa1ebd74139219d3a5bd6b7aaa7a345cfd3ff7fc9a8f74868de64736f6c63430008110033",
  "devdoc": {
    "author": "Think and Dev",
    "kind": "dev",
    "methods": {
      "addPayee(address,uint256)": {
        "details": "Add a new payee to the contract.",
        "params": {
          "account": "The address of the payee to add.",
          "shares": "The number of shares owned by the payee."
        }
      },
      "constructor": {
        "details": "Creates an instance of `PaymentSplitter` where each account in `payees` is assigned the number of shares at the matching position in the `shares` array. All addresses in `payees` must be non-zero. Both arrays must have the same non-zero length, and there must be no duplicates in `payees`.",
        "params": {
          "payees": "addresses of payees",
          "shares": "values of shares"
        }
      },
      "owner()": {
        "details": "Returns the address of the current owner."
      },
      "payee(uint256)": {
        "details": "Getter for the address of the payee number `index`."
      },
      "releasable(address)": {
        "details": "Getter for the amount of payee's releasable Ether."
      },
      "releasable(address,address)": {
        "details": "Getter for the amount of payee's releasable `token` tokens. `token` should be the address of an IERC20 contract."
      },
      "release(address)": {
        "details": "Triggers a transfer to `account` of the amount of Ether they are owed, according to their percentage of the total shares and their previous withdrawals."
      },
      "release(address,address)": {
        "details": "Triggers a transfer to `account` of the amount of `token` tokens they are owed, according to their percentage of the total shares and their previous withdrawals. `token` must be the address of an IERC20 contract."
      },
      "released(address)": {
        "details": "Getter for the amount of Ether already released to a payee."
      },
      "released(address,address)": {
        "details": "Getter for the amount of `token` tokens already released to a payee. `token` should be the address of an IERC20 contract."
      },
      "removePayee(uint256,address)": {
        "details": "Remove a payee to the contract.",
        "params": {
          "account": "The address of the payee to remove.",
          "indexPayee": "The index of payee to remove it."
        }
      },
      "renounceOwnership()": {
        "details": "Leaves the contract without owner. It will not be possible to call `onlyOwner` functions anymore. Can only be called by the current owner. NOTE: Renouncing ownership will leave the contract without an owner, thereby removing any functionality that is only available to the owner."
      },
      "shares(address)": {
        "details": "Getter for the amount of shares held by an account."
      },
      "totalReleased()": {
        "details": "Getter for the total amount of Ether already released."
      },
      "totalReleased(address)": {
        "details": "Getter for the total amount of `token` already released. `token` should be the address of an IERC20 contract."
      },
      "totalShares()": {
        "details": "Getter for the total shares held by payees."
      },
      "transferOwnership(address)": {
        "details": "Transfers ownership of the contract to a new account (`newOwner`). Can only be called by the current owner."
      }
    },
    "title": "Canis Royalty",
    "version": 1
  },
  "userdoc": {
    "kind": "user",
    "methods": {
      "constructor": {
        "notice": "Init contract"
      }
    },
    "version": 1
  },
  "storageLayout": {
    "storage": [
      {
        "astId": 546,
        "contract": "contracts/Royalty.sol:Royalty",
        "label": "_owner",
        "offset": 0,
        "slot": "0",
        "type": "t_address"
      },
      {
        "astId": 7369,
        "contract": "contracts/Royalty.sol:Royalty",
        "label": "_totalShares",
        "offset": 0,
        "slot": "1",
        "type": "t_uint256"
      },
      {
        "astId": 7371,
        "contract": "contracts/Royalty.sol:Royalty",
        "label": "_totalReleased",
        "offset": 0,
        "slot": "2",
        "type": "t_uint256"
      },
      {
        "astId": 7375,
        "contract": "contracts/Royalty.sol:Royalty",
        "label": "_shares",
        "offset": 0,
        "slot": "3",
        "type": "t_mapping(t_address,t_uint256)"
      },
      {
        "astId": 7379,
        "contract": "contracts/Royalty.sol:Royalty",
        "label": "_released",
        "offset": 0,
        "slot": "4",
        "type": "t_mapping(t_address,t_uint256)"
      },
      {
        "astId": 7382,
        "contract": "contracts/Royalty.sol:Royalty",
        "label": "_payees",
        "offset": 0,
        "slot": "5",
        "type": "t_array(t_address)dyn_storage"
      },
      {
        "astId": 7387,
        "contract": "contracts/Royalty.sol:Royalty",
        "label": "_erc20TotalReleased",
        "offset": 0,
        "slot": "6",
        "type": "t_mapping(t_contract(IERC20)1335,t_uint256)"
      },
      {
        "astId": 7394,
        "contract": "contracts/Royalty.sol:Royalty",
        "label": "_erc20Released",
        "offset": 0,
        "slot": "7",
        "type": "t_mapping(t_contract(IERC20)1335,t_mapping(t_address,t_uint256))"
      }
    ],
    "types": {
      "t_address": {
        "encoding": "inplace",
        "label": "address",
        "numberOfBytes": "20"
      },
      "t_array(t_address)dyn_storage": {
        "base": "t_address",
        "encoding": "dynamic_array",
        "label": "address[]",
        "numberOfBytes": "32"
      },
      "t_contract(IERC20)1335": {
        "encoding": "inplace",
        "label": "contract IERC20",
        "numberOfBytes": "20"
      },
      "t_mapping(t_address,t_uint256)": {
        "encoding": "mapping",
        "key": "t_address",
        "label": "mapping(address => uint256)",
        "numberOfBytes": "32",
        "value": "t_uint256"
      },
      "t_mapping(t_contract(IERC20)1335,t_mapping(t_address,t_uint256))": {
        "encoding": "mapping",
        "key": "t_contract(IERC20)1335",
        "label": "mapping(contract IERC20 => mapping(address => uint256))",
        "numberOfBytes": "32",
        "value": "t_mapping(t_address,t_uint256)"
      },
      "t_mapping(t_contract(IERC20)1335,t_uint256)": {
        "encoding": "mapping",
        "key": "t_contract(IERC20)1335",
        "label": "mapping(contract IERC20 => uint256)",
        "numberOfBytes": "32",
        "value": "t_uint256"
      },
      "t_uint256": {
        "encoding": "inplace",
        "label": "uint256",
        "numberOfBytes": "32"
      }
    }
  }
}