{
  "address": "0x008699477a9C7741E2e7059DBA9bbE143628d82f",
  "abi": [
    {
      "inputs": [
        {
          "internalType": "address",
          "name": "owner",
          "type": "address"
        },
        {
          "internalType": "address",
          "name": "minter",
          "type": "address"
        },
        {
          "internalType": "uint256",
          "name": "cap_",
          "type": "uint256"
        },
        {
          "internalType": "string",
          "name": "name",
          "type": "string"
        },
        {
          "internalType": "string",
          "name": "symbol",
          "type": "string"
        },
        {
          "internalType": "address",
          "name": "defaultRoyaltyReceiver",
          "type": "address"
        },
        {
          "internalType": "uint96",
          "name": "defaultFeeNumerator",
          "type": "uint96"
        },
        {
          "internalType": "string",
          "name": "_contractUri",
          "type": "string"
        },
        {
          "internalType": "uint256",
          "name": "_primarySalePrice",
          "type": "uint256"
        },
        {
          "internalType": "address",
          "name": "_primarySaleReceiverAddress",
          "type": "address"
        }
      ],
      "stateMutability": "nonpayable",
      "type": "constructor"
    },
    {
      "anonymous": false,
      "inputs": [
        {
          "indexed": true,
          "internalType": "address",
          "name": "owner",
          "type": "address"
        },
        {
          "indexed": true,
          "internalType": "address",
          "name": "approved",
          "type": "address"
        },
        {
          "indexed": true,
          "internalType": "uint256",
          "name": "tokenId",
          "type": "uint256"
        }
      ],
      "name": "Approval",
      "type": "event"
    },
    {
      "anonymous": false,
      "inputs": [
        {
          "indexed": true,
          "internalType": "address",
          "name": "owner",
          "type": "address"
        },
        {
          "indexed": true,
          "internalType": "address",
          "name": "operator",
          "type": "address"
        },
        {
          "indexed": false,
          "internalType": "bool",
          "name": "approved",
          "type": "bool"
        }
      ],
      "name": "ApprovalForAll",
      "type": "event"
    },
    {
      "anonymous": false,
      "inputs": [
        {
          "indexed": true,
          "internalType": "address",
          "name": "to",
          "type": "address"
        },
        {
          "indexed": false,
          "internalType": "uint256",
          "name": "tokenId",
          "type": "uint256"
        }
      ],
      "name": "Claimed",
      "type": "event"
    },
    {
      "anonymous": false,
      "inputs": [
        {
          "indexed": true,
          "internalType": "string",
          "name": "contractUri",
          "type": "string"
        }
      ],
      "name": "ContractURIUpdated",
      "type": "event"
    },
    {
      "anonymous": false,
      "inputs": [
        {
          "indexed": true,
          "internalType": "address",
          "name": "royaltyReceiver",
          "type": "address"
        },
        {
          "indexed": false,
          "internalType": "uint96",
          "name": "feeNumerator",
          "type": "uint96"
        }
      ],
      "name": "DefaultRoyaltyUpdated",
      "type": "event"
    },
    {
      "anonymous": false,
      "inputs": [
        {
          "indexed": false,
          "internalType": "address",
          "name": "owner",
          "type": "address"
        },
        {
          "indexed": false,
          "internalType": "address",
          "name": "minter",
          "type": "address"
        },
        {
          "indexed": false,
          "internalType": "uint256",
          "name": "cap",
          "type": "uint256"
        },
        {
          "indexed": false,
          "internalType": "string",
          "name": "name",
          "type": "string"
        },
        {
          "indexed": false,
          "internalType": "string",
          "name": "symbol",
          "type": "string"
        },
        {
          "indexed": false,
          "internalType": "address",
          "name": "defaultRoyaltyReceiver",
          "type": "address"
        },
        {
          "indexed": false,
          "internalType": "uint96",
          "name": "defaultFeeNumerator",
          "type": "uint96"
        },
        {
          "indexed": false,
          "internalType": "string",
          "name": "contractUri",
          "type": "string"
        },
        {
          "indexed": false,
          "internalType": "uint256",
          "name": "primarySalePrice",
          "type": "uint256"
        },
        {
          "indexed": false,
          "internalType": "address",
          "name": "primarySaleReceiverAddress",
          "type": "address"
        }
      ],
      "name": "Initialized",
      "type": "event"
    },
    {
      "anonymous": false,
      "inputs": [
        {
          "indexed": false,
          "internalType": "address",
          "name": "receiver",
          "type": "address"
        },
        {
          "indexed": false,
          "internalType": "uint256",
          "name": "price",
          "type": "uint256"
        }
      ],
      "name": "PrimarySaleUpdated",
      "type": "event"
    },
    {
      "anonymous": false,
      "inputs": [
        {
          "indexed": true,
          "internalType": "bytes32",
          "name": "role",
          "type": "bytes32"
        },
        {
          "indexed": true,
          "internalType": "bytes32",
          "name": "previousAdminRole",
          "type": "bytes32"
        },
        {
          "indexed": true,
          "internalType": "bytes32",
          "name": "newAdminRole",
          "type": "bytes32"
        }
      ],
      "name": "RoleAdminChanged",
      "type": "event"
    },
    {
      "anonymous": false,
      "inputs": [
        {
          "indexed": true,
          "internalType": "bytes32",
          "name": "role",
          "type": "bytes32"
        },
        {
          "indexed": true,
          "internalType": "address",
          "name": "account",
          "type": "address"
        },
        {
          "indexed": true,
          "internalType": "address",
          "name": "sender",
          "type": "address"
        }
      ],
      "name": "RoleGranted",
      "type": "event"
    },
    {
      "anonymous": false,
      "inputs": [
        {
          "indexed": true,
          "internalType": "bytes32",
          "name": "role",
          "type": "bytes32"
        },
        {
          "indexed": true,
          "internalType": "address",
          "name": "account",
          "type": "address"
        },
        {
          "indexed": true,
          "internalType": "address",
          "name": "sender",
          "type": "address"
        }
      ],
      "name": "RoleRevoked",
      "type": "event"
    },
    {
      "anonymous": false,
      "inputs": [
        {
          "indexed": true,
          "internalType": "address",
          "name": "from",
          "type": "address"
        },
        {
          "indexed": true,
          "internalType": "address",
          "name": "to",
          "type": "address"
        },
        {
          "indexed": true,
          "internalType": "uint256",
          "name": "tokenId",
          "type": "uint256"
        }
      ],
      "name": "Transfer",
      "type": "event"
    },
    {
      "inputs": [],
      "name": "CAP",
      "outputs": [
        {
          "internalType": "uint256",
          "name": "",
          "type": "uint256"
        }
      ],
      "stateMutability": "view",
      "type": "function"
    },
    {
      "inputs": [],
      "name": "DEFAULT_ADMIN_ROLE",
      "outputs": [
        {
          "internalType": "bytes32",
          "name": "",
          "type": "bytes32"
        }
      ],
      "stateMutability": "view",
      "type": "function"
    },
    {
      "inputs": [],
      "name": "MINTER_ROLE",
      "outputs": [
        {
          "internalType": "bytes32",
          "name": "",
          "type": "bytes32"
        }
      ],
      "stateMutability": "view",
      "type": "function"
    },
    {
      "inputs": [
        {
          "internalType": "address",
          "name": "to",
          "type": "address"
        },
        {
          "internalType": "uint256",
          "name": "tokenId",
          "type": "uint256"
        }
      ],
      "name": "approve",
      "outputs": [],
      "stateMutability": "nonpayable",
      "type": "function"
    },
    {
      "inputs": [
        {
          "internalType": "address",
          "name": "owner",
          "type": "address"
        }
      ],
      "name": "balanceOf",
      "outputs": [
        {
          "internalType": "uint256",
          "name": "",
          "type": "uint256"
        }
      ],
      "stateMutability": "view",
      "type": "function"
    },
    {
      "inputs": [
        {
          "components": [
            {
              "internalType": "address",
              "name": "to",
              "type": "address"
            },
            {
              "internalType": "string",
              "name": "uri",
              "type": "string"
            },
            {
              "internalType": "uint256",
              "name": "tokenId",
              "type": "uint256"
            },
            {
              "internalType": "uint256",
              "name": "chainId",
              "type": "uint256"
            }
          ],
          "internalType": "struct ISignatureMintERC721.MintRequest",
          "name": "request",
          "type": "tuple"
        },
        {
          "internalType": "bytes",
          "name": "signature",
          "type": "bytes"
        }
      ],
      "name": "claim",
      "outputs": [
        {
          "internalType": "uint256",
          "name": "",
          "type": "uint256"
        }
      ],
      "stateMutability": "payable",
      "type": "function"
    },
    {
      "inputs": [],
      "name": "contractURI",
      "outputs": [
        {
          "internalType": "string",
          "name": "",
          "type": "string"
        }
      ],
      "stateMutability": "view",
      "type": "function"
    },
    {
      "inputs": [],
      "name": "contractUri",
      "outputs": [
        {
          "internalType": "string",
          "name": "",
          "type": "string"
        }
      ],
      "stateMutability": "view",
      "type": "function"
    },
    {
      "inputs": [
        {
          "internalType": "uint256",
          "name": "tokenId",
          "type": "uint256"
        }
      ],
      "name": "getApproved",
      "outputs": [
        {
          "internalType": "address",
          "name": "",
          "type": "address"
        }
      ],
      "stateMutability": "view",
      "type": "function"
    },
    {
      "inputs": [
        {
          "internalType": "bytes32",
          "name": "role",
          "type": "bytes32"
        }
      ],
      "name": "getRoleAdmin",
      "outputs": [
        {
          "internalType": "bytes32",
          "name": "",
          "type": "bytes32"
        }
      ],
      "stateMutability": "view",
      "type": "function"
    },
    {
      "inputs": [
        {
          "internalType": "bytes32",
          "name": "role",
          "type": "bytes32"
        },
        {
          "internalType": "uint256",
          "name": "index",
          "type": "uint256"
        }
      ],
      "name": "getRoleMember",
      "outputs": [
        {
          "internalType": "address",
          "name": "",
          "type": "address"
        }
      ],
      "stateMutability": "view",
      "type": "function"
    },
    {
      "inputs": [
        {
          "internalType": "bytes32",
          "name": "role",
          "type": "bytes32"
        }
      ],
      "name": "getRoleMemberCount",
      "outputs": [
        {
          "internalType": "uint256",
          "name": "",
          "type": "uint256"
        }
      ],
      "stateMutability": "view",
      "type": "function"
    },
    {
      "inputs": [
        {
          "internalType": "bytes32",
          "name": "role",
          "type": "bytes32"
        },
        {
          "internalType": "address",
          "name": "account",
          "type": "address"
        }
      ],
      "name": "grantRole",
      "outputs": [],
      "stateMutability": "nonpayable",
      "type": "function"
    },
    {
      "inputs": [
        {
          "internalType": "bytes32",
          "name": "role",
          "type": "bytes32"
        },
        {
          "internalType": "address",
          "name": "account",
          "type": "address"
        }
      ],
      "name": "hasRole",
      "outputs": [
        {
          "internalType": "bool",
          "name": "",
          "type": "bool"
        }
      ],
      "stateMutability": "view",
      "type": "function"
    },
    {
      "inputs": [
        {
          "internalType": "address",
          "name": "owner",
          "type": "address"
        },
        {
          "internalType": "address",
          "name": "operator",
          "type": "address"
        }
      ],
      "name": "isApprovedForAll",
      "outputs": [
        {
          "internalType": "bool",
          "name": "",
          "type": "bool"
        }
      ],
      "stateMutability": "view",
      "type": "function"
    },
    {
      "inputs": [],
      "name": "name",
      "outputs": [
        {
          "internalType": "string",
          "name": "",
          "type": "string"
        }
      ],
      "stateMutability": "view",
      "type": "function"
    },
    {
      "inputs": [],
      "name": "owner",
      "outputs": [
        {
          "internalType": "address",
          "name": "",
          "type": "address"
        }
      ],
      "stateMutability": "view",
      "type": "function"
    },
    {
      "inputs": [
        {
          "internalType": "uint256",
          "name": "tokenId",
          "type": "uint256"
        }
      ],
      "name": "ownerOf",
      "outputs": [
        {
          "internalType": "address",
          "name": "",
          "type": "address"
        }
      ],
      "stateMutability": "view",
      "type": "function"
    },
    {
      "inputs": [],
      "name": "primarySalePrice",
      "outputs": [
        {
          "internalType": "uint256",
          "name": "",
          "type": "uint256"
        }
      ],
      "stateMutability": "view",
      "type": "function"
    },
    {
      "inputs": [],
      "name": "primarySaleReceiverAddress",
      "outputs": [
        {
          "internalType": "address payable",
          "name": "",
          "type": "address"
        }
      ],
      "stateMutability": "view",
      "type": "function"
    },
    {
      "inputs": [
        {
          "internalType": "bytes32",
          "name": "role",
          "type": "bytes32"
        },
        {
          "internalType": "address",
          "name": "account",
          "type": "address"
        }
      ],
      "name": "renounceRole",
      "outputs": [],
      "stateMutability": "nonpayable",
      "type": "function"
    },
    {
      "inputs": [
        {
          "internalType": "bytes32",
          "name": "role",
          "type": "bytes32"
        },
        {
          "internalType": "address",
          "name": "account",
          "type": "address"
        }
      ],
      "name": "revokeRole",
      "outputs": [],
      "stateMutability": "nonpayable",
      "type": "function"
    },
    {
      "inputs": [
        {
          "internalType": "uint256",
          "name": "tokenId",
          "type": "uint256"
        },
        {
          "internalType": "uint256",
          "name": "salePrice",
          "type": "uint256"
        }
      ],
      "name": "royaltyInfo",
      "outputs": [
        {
          "internalType": "address",
          "name": "receiver",
          "type": "address"
        },
        {
          "internalType": "uint256",
          "name": "royaltyAmount",
          "type": "uint256"
        }
      ],
      "stateMutability": "view",
      "type": "function"
    },
    {
      "inputs": [],
      "name": "safeLazyMint",
      "outputs": [
        {
          "internalType": "uint256",
          "name": "",
          "type": "uint256"
        }
      ],
      "stateMutability": "nonpayable",
      "type": "function"
    },
    {
      "inputs": [
        {
          "internalType": "uint256",
          "name": "quantity",
          "type": "uint256"
        }
      ],
      "name": "safeLazyMintBatch",
      "outputs": [
        {
          "internalType": "uint256",
          "name": "",
          "type": "uint256"
        }
      ],
      "stateMutability": "nonpayable",
      "type": "function"
    },
    {
      "inputs": [
        {
          "internalType": "address",
          "name": "to",
          "type": "address"
        },
        {
          "internalType": "uint256",
          "name": "tokenID",
          "type": "uint256"
        },
        {
          "internalType": "string",
          "name": "uri",
          "type": "string"
        }
      ],
      "name": "safeMint",
      "outputs": [
        {
          "internalType": "uint256",
          "name": "",
          "type": "uint256"
        }
      ],
      "stateMutability": "nonpayable",
      "type": "function"
    },
    {
      "inputs": [
        {
          "internalType": "address",
          "name": "from",
          "type": "address"
        },
        {
          "internalType": "address",
          "name": "to",
          "type": "address"
        },
        {
          "internalType": "uint256",
          "name": "tokenId",
          "type": "uint256"
        }
      ],
      "name": "safeTransferFrom",
      "outputs": [],
      "stateMutability": "nonpayable",
      "type": "function"
    },
    {
      "inputs": [
        {
          "internalType": "address",
          "name": "from",
          "type": "address"
        },
        {
          "internalType": "address",
          "name": "to",
          "type": "address"
        },
        {
          "internalType": "uint256",
          "name": "tokenId",
          "type": "uint256"
        },
        {
          "internalType": "bytes",
          "name": "data",
          "type": "bytes"
        }
      ],
      "name": "safeTransferFrom",
      "outputs": [],
      "stateMutability": "nonpayable",
      "type": "function"
    },
    {
      "inputs": [
        {
          "internalType": "address",
          "name": "operator",
          "type": "address"
        },
        {
          "internalType": "bool",
          "name": "approved",
          "type": "bool"
        }
      ],
      "name": "setApprovalForAll",
      "outputs": [],
      "stateMutability": "nonpayable",
      "type": "function"
    },
    {
      "inputs": [
        {
          "internalType": "string",
          "name": "_contractUri",
          "type": "string"
        }
      ],
      "name": "setContractURI",
      "outputs": [],
      "stateMutability": "nonpayable",
      "type": "function"
    },
    {
      "inputs": [
        {
          "internalType": "address",
          "name": "receiver",
          "type": "address"
        },
        {
          "internalType": "uint96",
          "name": "feeNumerator",
          "type": "uint96"
        }
      ],
      "name": "setDefaultRoyalty",
      "outputs": [],
      "stateMutability": "nonpayable",
      "type": "function"
    },
    {
      "inputs": [
        {
          "internalType": "address",
          "name": "receiver",
          "type": "address"
        },
        {
          "internalType": "uint256",
          "name": "price",
          "type": "uint256"
        }
      ],
      "name": "setPrimarySaleReceiverAddress",
      "outputs": [],
      "stateMutability": "nonpayable",
      "type": "function"
    },
    {
      "inputs": [
        {
          "internalType": "bytes4",
          "name": "interfaceId",
          "type": "bytes4"
        }
      ],
      "name": "supportsInterface",
      "outputs": [
        {
          "internalType": "bool",
          "name": "",
          "type": "bool"
        }
      ],
      "stateMutability": "view",
      "type": "function"
    },
    {
      "inputs": [],
      "name": "symbol",
      "outputs": [
        {
          "internalType": "string",
          "name": "",
          "type": "string"
        }
      ],
      "stateMutability": "view",
      "type": "function"
    },
    {
      "inputs": [
        {
          "internalType": "uint256",
          "name": "index",
          "type": "uint256"
        }
      ],
      "name": "tokenByIndex",
      "outputs": [
        {
          "internalType": "uint256",
          "name": "",
          "type": "uint256"
        }
      ],
      "stateMutability": "view",
      "type": "function"
    },
    {
      "inputs": [
        {
          "internalType": "address",
          "name": "owner",
          "type": "address"
        },
        {
          "internalType": "uint256",
          "name": "index",
          "type": "uint256"
        }
      ],
      "name": "tokenOfOwnerByIndex",
      "outputs": [
        {
          "internalType": "uint256",
          "name": "",
          "type": "uint256"
        }
      ],
      "stateMutability": "view",
      "type": "function"
    },
    {
      "inputs": [
        {
          "internalType": "uint256",
          "name": "tokenId",
          "type": "uint256"
        }
      ],
      "name": "tokenURI",
      "outputs": [
        {
          "internalType": "string",
          "name": "",
          "type": "string"
        }
      ],
      "stateMutability": "view",
      "type": "function"
    },
    {
      "inputs": [],
      "name": "totalSupply",
      "outputs": [
        {
          "internalType": "uint256",
          "name": "",
          "type": "uint256"
        }
      ],
      "stateMutability": "view",
      "type": "function"
    },
    {
      "inputs": [
        {
          "internalType": "address",
          "name": "from",
          "type": "address"
        },
        {
          "internalType": "address",
          "name": "to",
          "type": "address"
        },
        {
          "internalType": "uint256",
          "name": "tokenId",
          "type": "uint256"
        }
      ],
      "name": "transferFrom",
      "outputs": [],
      "stateMutability": "nonpayable",
      "type": "function"
    },
    {
      "inputs": [
        {
          "components": [
            {
              "internalType": "address",
              "name": "to",
              "type": "address"
            },
            {
              "internalType": "string",
              "name": "uri",
              "type": "string"
            },
            {
              "internalType": "uint256",
              "name": "tokenId",
              "type": "uint256"
            },
            {
              "internalType": "uint256",
              "name": "chainId",
              "type": "uint256"
            }
          ],
          "internalType": "struct ISignatureMintERC721.MintRequest",
          "name": "_req",
          "type": "tuple"
        },
        {
          "internalType": "bytes",
          "name": "_signature",
          "type": "bytes"
        }
      ],
      "name": "verify",
      "outputs": [
        {
          "internalType": "address",
          "name": "signer",
          "type": "address"
        }
      ],
      "stateMutability": "view",
      "type": "function"
    }
  ],
  "transactionHash": "0xaf87ff26ad3aa52485c4024aca50e4dd4b65ec00532742925f82ba8966240cde",
  "args": [
    "0x27598400A96D4EE85f86b0931e49cBc02adD6dF0",
    "0x27598400A96D4EE85f86b0931e49cBc02adD6dF0",
    11111,
    "CanisNFT",
    "CANIS",
    "0x19FDb67eD674f0b53e206eBeB59eb92D8c6B27a5",
    1000,
    "ipfs://bafybeiell6jsgvp4tp5pfbfq3ttzjr27xwt6gnqat7ehsaok6mvunsdike/contract-level.json",
    "150000000000000000",
    "0x07e28B3350bC6a0D421Bf5F6308a399F4c99Ce88"
  ],
  "numDeployments": 3,
  "solcInputHash": "4918e1b45f7da532c93865e2e67ffc43",
  "bytecode": "0x60a06040523480156200001157600080fd5b5060405162004584380380620045848339810160408190526200003491620006df565b8686600062000044838262000872565b50600162000053828262000872565b5050506001600160a01b038a16620000b25760405162461bcd60e51b815260206004820152601560248201527f4e46544361707065643a206f776e65722069732030000000000000000000000060448201526064015b60405180910390fd5b6001600160a01b0389166200010a5760405162461bcd60e51b815260206004820152601660248201527f4e46544361707065643a206d696e7465722069732030000000000000000000006044820152606401620000a9565b600088116200015c5760405162461bcd60e51b815260206004820152601360248201527f4e46544361707065643a206361702069732030000000000000000000000000006044820152606401620000a9565b60008211620001ae5760405162461bcd60e51b815260206004820181905260248201527f4e46544361707065643a207072696d61727953616c65507269636520697320306044820152606401620000a9565b6001600160a01b038116620002195760405162461bcd60e51b815260206004820152602a60248201527f4e46544361707065643a207072696d61727953616c65526563656976657241646044820152690647265737320697320360b41b6064820152608401620000a9565b601280546001600160a01b0319166001600160a01b038c161790556080889052600f62000247848262000872565b506010829055601180546001600160a01b0319166001600160a01b03831617905562000280858562000373602090811b6200150f17901c565b601254620002a6906000906001600160a01b031662000474602090811b6200160c17901c565b620002e160008051602062004564833981519152601260009054906101000a90046001600160a01b03166200047460201b6200160c1760201c565b62000307600080516020620045648339815191528a6200047460201b6200160c1760201c565b6012546080516040517f8da2e0e04c3b2b810acc11fbdd02e558820ae18973db1f9c189ef5a2de96ddca926200035b926001600160a01b03909116918d91908c908c908c908c90600f908c908c906200096c565b60405180910390a15050505050505050505062000a87565b6127106001600160601b0382161115620003e35760405162461bcd60e51b815260206004820152602a60248201527f455243323938313a20726f79616c7479206665652077696c6c206578636565646044820152692073616c65507269636560b01b6064820152608401620000a9565b6001600160a01b0382166200043b5760405162461bcd60e51b815260206004820152601960248201527f455243323938313a20696e76616c6964207265636569766572000000000000006044820152606401620000a9565b604080518082019091526001600160a01b039092168083526001600160601b039091166020909201829052600160a01b90910217600b55565b62000480828262000484565b5050565b6200049b8282620004c760201b620016161760201c565b6000828152600e60209081526040909120620004c29183906200169c6200056b821b17901c565b505050565b6000828152600d602090815260408083206001600160a01b038516845290915290205460ff1662000480576000828152600d602090815260408083206001600160a01b03851684529091529020805460ff19166001179055620005273390565b6001600160a01b0316816001600160a01b0316837f2f8788117e7eff1d82e926ec794901d17c78024a50270940304540a733656f0d60405160405180910390a45050565b600062000582836001600160a01b0384166200058b565b90505b92915050565b6000818152600183016020526040812054620005d45750815460018181018455600084815260208082209093018490558454848252828601909352604090209190915562000585565b50600062000585565b80516001600160a01b0381168114620005f557600080fd5b919050565b634e487b7160e01b600052604160045260246000fd5b60005b838110156200062d57818101518382015260200162000613565b50506000910152565b600082601f8301126200064857600080fd5b81516001600160401b0380821115620006655762000665620005fa565b604051601f8301601f19908116603f01168101908282118183101715620006905762000690620005fa565b81604052838152866020858801011115620006aa57600080fd5b620006bd84602083016020890162000610565b9695505050505050565b80516001600160601b0381168114620005f557600080fd5b6000806000806000806000806000806101408b8d0312156200070057600080fd5b6200070b8b620005dd565b99506200071b60208c01620005dd565b60408c015160608d0151919a5098506001600160401b03808211156200074057600080fd5b6200074e8e838f0162000636565b985060808d01519150808211156200076557600080fd5b620007738e838f0162000636565b97506200078360a08e01620005dd565b96506200079360c08e01620006c7565b955060e08d0151915080821115620007aa57600080fd5b50620007b98d828e0162000636565b9350506101008b01519150620007d36101208c01620005dd565b90509295989b9194979a5092959850565b600181811c90821680620007f957607f821691505b6020821081036200081a57634e487b7160e01b600052602260045260246000fd5b50919050565b601f821115620004c257600081815260208120601f850160051c81016020861015620008495750805b601f850160051c820191505b818110156200086a5782815560010162000855565b505050505050565b81516001600160401b038111156200088e576200088e620005fa565b620008a6816200089f8454620007e4565b8462000820565b602080601f831160018114620008de5760008415620008c55750858301515b600019600386901b1c1916600185901b1785556200086a565b600085815260208120601f198616915b828110156200090f57888601518255948401946001909101908401620008ee565b50858210156200092e5787850151600019600388901b60f8161c191681555b5050505050600190811b01905550565b600081518084526200095881602086016020860162000610565b601f01601f19169290920160200192915050565b600061014060018060a01b03808e1684526020818e16818601528c6040860152826060860152620009a08386018d6200093e565b92508483036080860152620009b6838c6200093e565b918a1660a08601526001600160601b03891660c086015284820360e08601528754919250600091620009e881620007e4565b8085526001828116801562000a06576001811462000a215762000a51565b60ff1984168786015282151560051b87018501955062000a51565b8b6000528460002060005b8481101562000a4957815489820188015290830190860162000a2c565b880186019650505b505050505061010084018690526001600160a01b038516610120850152915062000a789050565b9b9a5050505050505050505050565b608051613a9e62000ac66000396000818161074c0152818161083101528181610ad8015281816111ba015281816113690152611b050152613a9e6000f3fe60806040526004361061023b5760003560e01c80639010d07c1161012e578063cd279c7c116100ab578063e8a3d4851161006f578063e8a3d485146106dc578063e985e9c5146106f1578063ec81b4831461073a578063f7d506a51461076e578063fc3f59cf1461078457600080fd5b8063cd279c7c14610633578063d539139314610653578063d547741f14610687578063d6836d16146106a7578063d6dd047a146106bc57600080fd5b8063a22cb465116100f2578063a22cb4651461059e578063b88d4fde146105be578063c0e24d5e146105de578063c87b56dd146105f3578063ca15c8731461061357600080fd5b80639010d07c1461051457806391d1485414610534578063938e3d7b1461055457806395d89b4114610574578063a217fddf1461058957600080fd5b80632a55205a116101bc5780634f6ccce7116101805780634f6ccce7146104835780636352211e146104a357806370a08231146104c35780638d643001146104e35780638da5cb5b146104f657600080fd5b80632a55205a146103c45780632f2ff15d146104035780632f745c591461042357806336568abe1461044357806342842e0e1461046357600080fd5b8063095ea7b311610203578063095ea7b31461031f5780630edd80f31461033f57806318160ddd1461035f57806323b872dd14610374578063248a9ca31461039457600080fd5b806301ffc9a71461024057806304634d8d1461027557806306779e431461029757806306fdde03146102c5578063081812fc146102e7575b600080fd5b34801561024c57600080fd5b5061026061025b3660046130d9565b6107a4565b60405190151581526020015b60405180910390f35b34801561028157600080fd5b50610295610290366004613112565b6107b5565b005b3480156102a357600080fd5b506102b76102b2366004613155565b610816565b60405190815260200161026c565b3480156102d157600080fd5b506102da6108d4565b60405161026c91906131be565b3480156102f357600080fd5b50610307610302366004613155565b610966565b6040516001600160a01b03909116815260200161026c565b34801561032b57600080fd5b5061029561033a3660046131d1565b61098d565b34801561034b57600080fd5b50601154610307906001600160a01b031681565b34801561036b57600080fd5b506009546102b7565b34801561038057600080fd5b5061029561038f3660046131fb565b610aa2565b3480156103a057600080fd5b506102b76103af366004613155565b6000908152600d602052604090206001015490565b3480156103d057600080fd5b506103e46103df366004613237565b610ad3565b604080516001600160a01b03909316835260208301919091520161026c565b34801561040f57600080fd5b5061029561041e366004613259565b610b66565b34801561042f57600080fd5b506102b761043e3660046131d1565b610b8b565b34801561044f57600080fd5b5061029561045e366004613259565b610c21565b34801561046f57600080fd5b5061029561047e3660046131fb565b610c9f565b34801561048f57600080fd5b506102b761049e366004613155565b610cba565b3480156104af57600080fd5b506103076104be366004613155565b610d4d565b3480156104cf57600080fd5b506102b76104de366004613285565b610dad565b6102b76104f13660046132e2565b610e33565b34801561050257600080fd5b506012546001600160a01b0316610307565b34801561052057600080fd5b5061030761052f366004613237565b61100c565b34801561054057600080fd5b5061026061054f366004613259565b611024565b34801561056057600080fd5b5061029561056f3660046133df565b61104f565b34801561058057600080fd5b506102da6110aa565b34801561059557600080fd5b506102b7600081565b3480156105aa57600080fd5b506102956105b9366004613428565b6110b9565b3480156105ca57600080fd5b506102956105d9366004613459565b6110c4565b3480156105ea57600080fd5b506102da6110fc565b3480156105ff57600080fd5b506102da61060e366004613155565b61118a565b34801561061f57600080fd5b506102b761062e366004613155565b611195565b34801561063f57600080fd5b506102b761064e3660046134d5565b6111ac565b34801561065f57600080fd5b506102b77f9f2df0fed2c77648de5860a4cc508cd0818c85b8b8a1ab4ceeef8d981c8956a681565b34801561069357600080fd5b506102956106a2366004613259565b61131b565b3480156106b357600080fd5b506102b7611340565b3480156106c857600080fd5b506103076106d73660046132e2565b6113c6565b3480156106e857600080fd5b506102da6113db565b3480156106fd57600080fd5b5061026061070c36600461352f565b6001600160a01b03918216600090815260056020908152604080832093909416825291909152205460ff1690565b34801561074657600080fd5b506102b77f000000000000000000000000000000000000000000000000000000000000000081565b34801561077a57600080fd5b506102b760105481565b34801561079057600080fd5b5061029561079f3660046131d1565b6113ea565b60006107af826116b1565b92915050565b60006107c0816116d6565b6107ca838361150f565b6040516001600160601b03831681526001600160a01b038416907fe12d7d5bdb8218a22277dca8f854dd4573a1cea3d3e4808dc567df9eb1c14bf49060200160405180910390a2505050565b600080610822816116d6565b600061082d60135490565b90507f000000000000000000000000000000000000000000000000000000000000000061085a858361356f565b11156108815760405162461bcd60e51b815260040161087890613582565b60405180910390fd5b60005b848110156108ca5761089a601380546001019055565b6013546000818152601460205260409020805460ff191660011790559150806108c2816135b9565b915050610884565b5091505b50919050565b6060600080546108e3906135d2565b80601f016020809104026020016040519081016040528092919081815260200182805461090f906135d2565b801561095c5780601f106109315761010080835404028352916020019161095c565b820191906000526020600020905b81548152906001019060200180831161093f57829003601f168201915b5050505050905090565b6000610971826116e3565b506000908152600460205260409020546001600160a01b031690565b600061099882610d4d565b9050806001600160a01b0316836001600160a01b031603610a055760405162461bcd60e51b815260206004820152602160248201527f4552433732313a20617070726f76616c20746f2063757272656e74206f776e656044820152603960f91b6064820152608401610878565b336001600160a01b0382161480610a215750610a21813361070c565b610a935760405162461bcd60e51b815260206004820152603d60248201527f4552433732313a20617070726f76652063616c6c6572206973206e6f7420746f60448201527f6b656e206f776e6572206f7220617070726f76656420666f7220616c6c0000006064820152608401610878565b610a9d8383611742565b505050565b610aac33826117b0565b610ac85760405162461bcd60e51b815260040161087890613606565b610a9d83838361182e565b6000807f0000000000000000000000000000000000000000000000000000000000000000841115610b505760405162461bcd60e51b815260206004820152602160248201527f43414e49534e46543a20544f4b454e20494420444f4553204e4f5420455849536044820152601560fa1b6064820152608401610878565b610b5a848461199f565b915091505b9250929050565b6000828152600d6020526040902060010154610b81816116d6565b610a9d8383611a4b565b6000610b9683610dad565b8210610bf85760405162461bcd60e51b815260206004820152602b60248201527f455243373231456e756d657261626c653a206f776e657220696e646578206f7560448201526a74206f6620626f756e647360a81b6064820152608401610878565b506001600160a01b03919091166000908152600760209081526040808320938352929052205490565b6001600160a01b0381163314610c915760405162461bcd60e51b815260206004820152602f60248201527f416363657373436f6e74726f6c3a2063616e206f6e6c792072656e6f756e636560448201526e103937b632b9903337b91039b2b63360891b6064820152608401610878565b610c9b8282611a6d565b5050565b610a9d838383604051806020016040528060008152506110c4565b6000610cc560095490565b8210610d285760405162461bcd60e51b815260206004820152602c60248201527f455243373231456e756d657261626c653a20676c6f62616c20696e646578206f60448201526b7574206f6620626f756e647360a01b6064820152608401610878565b60098281548110610d3b57610d3b613653565b90600052602060002001549050919050565b6000818152600260205260408120546001600160a01b0316806107af5760405162461bcd60e51b8152602060048201526018602482015277115490cdcc8c4e881a5b9d985b1a59081d1bdad95b88125160421b6044820152606401610878565b60006001600160a01b038216610e175760405162461bcd60e51b815260206004820152602960248201527f4552433732313a2061646472657373207a65726f206973206e6f7420612076616044820152683634b21037bbb732b960b91b6064820152608401610878565b506001600160a01b031660009081526003602052604090205490565b6000601054341015610e9f5760405162461bcd60e51b815260206004820152602f60248201527f43414e49534e46543a205061796d656e74206973206c657373207468616e207060448201526e72696d61727953616c65507269636560881b6064820152608401610878565b6011546040516000916001600160a01b03169034908381818185875af1925050503d8060008114610eec576040519150601f19603f3d011682016040523d82523d6000602084013e610ef1565b606091505b5050905080610f425760405162461bcd60e51b815260206004820181905260248201527f43414e49534e46543a204661696c656420746f2073656e64207061796d656e746044820152606401610878565b610f4d858585611a8f565b506040858101356000908152601460205220805460ff19169055610f75338660400135611cb2565b610fc46040860135610f8a6020880188613669565b8080601f016020809104026020016040519081016040528093929190818152602001838380828437600092019190915250611ccc92505050565b6040805190860135815233907fd8138f8a3f377c5259ca548e70e4c2de94f129f5a11036a15b69513cba2b426a9060200160405180910390a2505060408301355b9392505050565b6000828152600e602052604081206110059083611d5f565b6000918252600d602090815260408084206001600160a01b0393909316845291905290205460ff1690565b600061105a816116d6565b600f61106683826136fe565b50600f60405161107691906137be565b604051908190038120907f905d981207a7d0b6c62cc46ab0be2a076d0298e4a86d0ab79882dbd01ac3737890600090a25050565b6060600180546108e3906135d2565b610c9b338383611d6b565b6110ce33836117b0565b6110ea5760405162461bcd60e51b815260040161087890613606565b6110f684848484611e39565b50505050565b600f8054611109906135d2565b80601f0160208091040260200160405190810160405280929190818152602001828054611135906135d2565b80156111825780601f1061115757610100808354040283529160200191611182565b820191906000526020600020905b81548152906001019060200180831161116557829003601f168201915b505050505081565b60606107af82611e6c565b6000818152600e602052604081206107af90611f74565b6000806111b8816116d6565b7f00000000000000000000000000000000000000000000000000000000000000008511156111f85760405162461bcd60e51b815260040161087890613582565b60008581526014602052604090205460ff16151560011461126e5760405162461bcd60e51b815260206004820152602a60248201527f4e46544341505045443a20746f6b656e4964206e6f7420617661696c61626c65604482015269081d1bc81b5a5b9d195960b21b6064820152608401610878565b826112b15760405162461bcd60e51b815260206004820152601360248201527243414e49534e46543a20456d7074792055524960681b6044820152606401610878565b6000858152601460205260409020805460ff191690556112d18686611cb2565b6113118585858080601f016020809104026020016040519081016040528093929190818152602001838380828437600092019190915250611ccc92505050565b5092949350505050565b6000828152600d6020526040902060010154611336816116d6565b610a9d8383611a6d565b60008061134c816116d6565b61135a601380546001019055565b600061136560135490565b90507f00000000000000000000000000000000000000000000000000000000000000008111156113a75760405162461bcd60e51b815260040161087890613582565b6000818152601460205260409020805460ff1916600117905591505090565b60006113d3848484611f7e565b949350505050565b6060600f80546108e3906135d2565b60006113f5816116d6565b6001600160a01b03831661145e5760405162461bcd60e51b815260206004820152602a60248201527f4e46544361707065643a207072696d61727953616c65526563656976657241646044820152690647265737320697320360b41b6064820152608401610878565b600082116114ae5760405162461bcd60e51b815260206004820181905260248201527f4e46544361707065643a207072696d61727953616c65507269636520697320306044820152606401610878565b601180546001600160a01b0319166001600160a01b038516908117909155601083905560408051918252602082018490527f5b94197904d464219436d9c48e823fdce78dd14a1271ddda92262c28524fa692910160405180910390a1505050565b6127106001600160601b038216111561157d5760405162461bcd60e51b815260206004820152602a60248201527f455243323938313a20726f79616c7479206665652077696c6c206578636565646044820152692073616c65507269636560b01b6064820152608401610878565b6001600160a01b0382166115d35760405162461bcd60e51b815260206004820152601960248201527f455243323938313a20696e76616c6964207265636569766572000000000000006044820152606401610878565b604080518082019091526001600160a01b039092168083526001600160601b039091166020909201829052600160a01b90910217600b55565b610c9b8282611a4b565b6116208282611024565b610c9b576000828152600d602090815260408083206001600160a01b03851684529091529020805460ff191660011790556116583390565b6001600160a01b0316816001600160a01b0316837f2f8788117e7eff1d82e926ec794901d17c78024a50270940304540a733656f0d60405160405180910390a45050565b6000611005836001600160a01b038416612075565b60006001600160e01b03198216635a05180f60e01b14806107af57506107af826120c4565b6116e081336120e9565b50565b6000818152600260205260409020546001600160a01b03166116e05760405162461bcd60e51b8152602060048201526018602482015277115490cdcc8c4e881a5b9d985b1a59081d1bdad95b88125160421b6044820152606401610878565b600081815260046020526040902080546001600160a01b0319166001600160a01b038416908117909155819061177782610d4d565b6001600160a01b03167f8c5be1e5ebec7d5bd14f71427d1e84f3dd0314c0f7b2291e5b200ac8c7c3b92560405160405180910390a45050565b6000806117bc83610d4d565b9050806001600160a01b0316846001600160a01b0316148061180357506001600160a01b0380821660009081526005602090815260408083209388168352929052205460ff165b806113d35750836001600160a01b031661181c84610966565b6001600160a01b031614949350505050565b826001600160a01b031661184182610d4d565b6001600160a01b0316146118675760405162461bcd60e51b815260040161087890613834565b6001600160a01b0382166118c95760405162461bcd60e51b8152602060048201526024808201527f4552433732313a207472616e7366657220746f20746865207a65726f206164646044820152637265737360e01b6064820152608401610878565b6118d68383836001612142565b826001600160a01b03166118e982610d4d565b6001600160a01b03161461190f5760405162461bcd60e51b815260040161087890613834565b600081815260046020908152604080832080546001600160a01b03199081169091556001600160a01b0387811680865260038552838620805460001901905590871680865283862080546001019055868652600290945282852080549092168417909155905184937fddf252ad1be2c89b69c2b068fc378daa952ba7f163c4a11628f55a4df523b3ef91a4505050565b6000828152600c602090815260408083208151808301909252546001600160a01b038116808352600160a01b9091046001600160601b0316928201929092528291611a14575060408051808201909152600b546001600160a01b0381168252600160a01b90046001600160601b031660208201525b602081015160009061271090611a33906001600160601b031687613879565b611a3d9190613890565b915196919550909350505050565b611a558282611616565b6000828152600e60205260409020610a9d908261169c565b611a77828261214e565b6000828152600e60205260409020610a9d90826121b5565b6000611a9c848484611f7e565b90506000611aad6020860186613285565b6001600160a01b031603611b035760405162461bcd60e51b815260206004820152601d60248201527f43414e49534e46543a20726563697069656e7420756e646566696e65640000006044820152606401610878565b7f000000000000000000000000000000000000000000000000000000000000000084604001351115611b705760405162461bcd60e51b815260206004820152601660248201527510d0539254d391950e8818d85c08195e18d95959195960521b6044820152606401610878565b60135484604001351115611bec5760405162461bcd60e51b815260206004820152603860248201527f43414e49534e46543a207265717565737420746f6b656e2069642063616e6e6f60448201527f742062652067726561746572207468616e206d696e74656400000000000000006064820152608401610878565b46846060013514611c5e5760405162461bcd60e51b815260206004820152603660248201527f43414e49534e46543a2074686520636861696e206964206d757374206265207460448201527568652073616d6520617320746865206e6574776f726b60501b6064820152608401610878565b6000611c6d6020860186613669565b9050116110055760405162461bcd60e51b815260206004820152601360248201527243414e49534e46543a20456d7074792055524960681b6044820152606401610878565b610c9b8282604051806020016040528060008152506121ca565b6000828152600260205260409020546001600160a01b0316611d475760405162461bcd60e51b815260206004820152602e60248201527f45524337323155524953746f726167653a2055524920736574206f66206e6f6e60448201526d32bc34b9ba32b73a103a37b5b2b760911b6064820152608401610878565b6000828152600660205260409020610a9d82826136fe565b600061100583836121fd565b816001600160a01b0316836001600160a01b031603611dcc5760405162461bcd60e51b815260206004820152601960248201527f4552433732313a20617070726f766520746f2063616c6c6572000000000000006044820152606401610878565b6001600160a01b03838116600081815260056020908152604080832094871680845294825291829020805460ff191686151590811790915591519182527f17307eab39ab6107e8899845ad3d59bd9653f200f220920489ca2b5937696c31910160405180910390a3505050565b611e4484848461182e565b611e5084848484612227565b6110f65760405162461bcd60e51b8152600401610878906138b2565b6060611e77826116e3565b60008281526006602052604081208054611e90906135d2565b80601f0160208091040260200160405190810160405280929190818152602001828054611ebc906135d2565b8015611f095780601f10611ede57610100808354040283529160200191611f09565b820191906000526020600020905b815481529060010190602001808311611eec57829003601f168201915b505050505090506000611f2760408051602081019091526000815290565b90508051600003611f39575092915050565b815115611f6b578082604051602001611f53929190613904565b60405160208183030381529060405292505050919050565b6113d384612328565b60006107af825490565b6000611f8b84848461239b565b60408086013560009081526014602052205490915060ff16611fef5760405162461bcd60e51b815260206004820152601f60248201527f43414e49534e46543a20746f6b656e4964206e6f7420617661696c61626c65006044820152606401610878565b6120197f9f2df0fed2c77648de5860a4cc508cd0818c85b8b8a1ab4ceeef8d981c8956a682611024565b6110055760405162461bcd60e51b815260206004820152602760248201527f43414e49534e46543a206d7573742068617665206d696e74657220726f6c65206044820152661d1bc81b5a5b9d60ca1b6064820152608401610878565b60008181526001830160205260408120546120bc575081546001818101845560008481526020808220909301849055845484825282860190935260409020919091556107af565b5060006107af565b60006001600160e01b03198216637965db0b60e01b14806107af57506107af8261243c565b6120f38282611024565b610c9b5761210081612461565b61210b836020612473565b60405160200161211c929190613933565b60408051601f198184030181529082905262461bcd60e51b8252610878916004016131be565b6110f68484848461260f565b6121588282611024565b15610c9b576000828152600d602090815260408083206001600160a01b0385168085529252808320805460ff1916905551339285917ff6391f5c32d9c69d2a47ea670b442974b53935d1edc7fd64eb21e047a839171b9190a45050565b6000611005836001600160a01b03841661274f565b6121d48383612842565b6121e16000848484612227565b610a9d5760405162461bcd60e51b8152600401610878906138b2565b600082600001828154811061221457612214613653565b9060005260206000200154905092915050565b60006001600160a01b0384163b1561231d57604051630a85bd0160e11b81526001600160a01b0385169063150b7a029061226b9033908990889088906004016139a8565b6020604051808303816000875af19250505080156122a6575060408051601f3d908101601f191682019092526122a3918101906139e5565b60015b612303573d8080156122d4576040519150601f19603f3d011682016040523d82523d6000602084013e6122d9565b606091505b5080516000036122fb5760405162461bcd60e51b8152600401610878906138b2565b805181602001fd5b6001600160e01b031916630a85bd0160e11b1490506113d3565b506001949350505050565b6060612333826116e3565b600061234a60408051602081019091526000815290565b9050600081511161236a5760405180602001604052806000815250611005565b80612374846129db565b604051602001612385929190613904565b6040516020818303038152906040529392505050565b60006113d383838080601f01602080910402602001604051908101604052809392919081815260200183838082843760009201919091525061243692506123e59150889050612a6e565b8051602091820120604080517f19457468657265756d205369676e6564204d6573736167653a0a33320000000081850152603c8082019390935281518082039093018352605c019052805191012090565b90612aea565b60006001600160e01b0319821663152a902d60e11b14806107af57506107af82612b0e565b60606107af6001600160a01b03831660145b60606000612482836002613879565b61248d90600261356f565b67ffffffffffffffff8111156124a5576124a5613353565b6040519080825280601f01601f1916602001820160405280156124cf576020820181803683370190505b509050600360fc1b816000815181106124ea576124ea613653565b60200101906001600160f81b031916908160001a905350600f60fb1b8160018151811061251957612519613653565b60200101906001600160f81b031916908160001a905350600061253d846002613879565b61254890600161356f565b90505b60018111156125c0576f181899199a1a9b1b9c1cb0b131b232b360811b85600f166010811061257c5761257c613653565b1a60f81b82828151811061259257612592613653565b60200101906001600160f81b031916908160001a90535060049490941c936125b981613a02565b905061254b565b5083156110055760405162461bcd60e51b815260206004820181905260248201527f537472696e67733a20686578206c656e67746820696e73756666696369656e746044820152606401610878565b61261b84848484612b33565b600181111561268a5760405162461bcd60e51b815260206004820152603560248201527f455243373231456e756d657261626c653a20636f6e7365637574697665207472604482015274185b9cd9995c9cc81b9bdd081cdd5c1c1bdc9d1959605a1b6064820152608401610878565b816001600160a01b0385166126e6576126e181600980546000838152600a60205260408120829055600182018355919091527f6e1540171b6c0c960b71a7020d9f60077f6af931a8bbf590da0223dacf75c7af0155565b612709565b836001600160a01b0316856001600160a01b031614612709576127098582612bbb565b6001600160a01b0384166127255761272081612c58565b612748565b846001600160a01b0316846001600160a01b031614612748576127488482612d07565b5050505050565b60008181526001830160205260408120548015612838576000612773600183613a19565b855490915060009061278790600190613a19565b90508181146127ec5760008660000182815481106127a7576127a7613653565b90600052602060002001549050808760000184815481106127ca576127ca613653565b6000918252602080832090910192909255918252600188019052604090208390555b85548690806127fd576127fd613a2c565b6001900381819060005260206000200160009055905585600101600086815260200190815260200160002060009055600193505050506107af565b60009150506107af565b6001600160a01b0382166128985760405162461bcd60e51b815260206004820181905260248201527f4552433732313a206d696e7420746f20746865207a65726f20616464726573736044820152606401610878565b6000818152600260205260409020546001600160a01b0316156128fd5760405162461bcd60e51b815260206004820152601c60248201527f4552433732313a20746f6b656e20616c7265616479206d696e746564000000006044820152606401610878565b61290b600083836001612142565b6000818152600260205260409020546001600160a01b0316156129705760405162461bcd60e51b815260206004820152601c60248201527f4552433732313a20746f6b656e20616c7265616479206d696e746564000000006044820152606401610878565b6001600160a01b038216600081815260036020908152604080832080546001019055848352600290915280822080546001600160a01b0319168417905551839291907fddf252ad1be2c89b69c2b068fc378daa952ba7f163c4a11628f55a4df523b3ef908290a45050565b606060006129e883612d4b565b600101905060008167ffffffffffffffff811115612a0857612a08613353565b6040519080825280601f01601f191660200182016040528015612a32576020820181803683370190505b5090508181016020015b600019016f181899199a1a9b1b9c1cb0b131b232b360811b600a86061a8153600a8504945084612a3c57509392505050565b6060612a7d6020830183613285565b612a8a6020840184613669565b604051612a98929190613a42565b604080519182900382206bffffffffffffffffffffffff19606094851b166020840152603483015284013560548201529083013560748201526094016040516020818303038152906040529050919050565b6000806000612af98585612e23565b91509150612b0681612e65565b509392505050565b60006001600160e01b0319821663780e9d6360e01b14806107af57506107af82612faf565b60018111156110f6576001600160a01b03841615612b79576001600160a01b03841660009081526003602052604081208054839290612b73908490613a19565b90915550505b6001600160a01b038316156110f6576001600160a01b03831660009081526003602052604081208054839290612bb090849061356f565b909155505050505050565b60006001612bc884610dad565b612bd29190613a19565b600083815260086020526040902054909150808214612c25576001600160a01b03841660009081526007602090815260408083208584528252808320548484528184208190558352600890915290208190555b5060009182526008602090815260408084208490556001600160a01b039094168352600781528383209183525290812055565b600954600090612c6a90600190613a19565b6000838152600a602052604081205460098054939450909284908110612c9257612c92613653565b906000526020600020015490508060098381548110612cb357612cb3613653565b6000918252602080832090910192909255828152600a90915260408082208490558582528120556009805480612ceb57612ceb613a2c565b6001900381819060005260206000200160009055905550505050565b6000612d1283610dad565b6001600160a01b039093166000908152600760209081526040808320868452825280832085905593825260089052919091209190915550565b60008072184f03e93ff9f4daa797ed6e38ed64bf6a1f0160401b8310612d8a5772184f03e93ff9f4daa797ed6e38ed64bf6a1f0160401b830492506040015b6d04ee2d6d415b85acef81000000008310612db6576d04ee2d6d415b85acef8100000000830492506020015b662386f26fc100008310612dd457662386f26fc10000830492506010015b6305f5e1008310612dec576305f5e100830492506008015b6127108310612e0057612710830492506004015b60648310612e12576064830492506002015b600a83106107af5760010192915050565b6000808251604103612e595760208301516040840151606085015160001a612e4d87828585612fff565b94509450505050610b5f565b50600090506002610b5f565b6000816004811115612e7957612e79613a52565b03612e815750565b6001816004811115612e9557612e95613a52565b03612ee25760405162461bcd60e51b815260206004820152601860248201527f45434453413a20696e76616c6964207369676e617475726500000000000000006044820152606401610878565b6002816004811115612ef657612ef6613a52565b03612f435760405162461bcd60e51b815260206004820152601f60248201527f45434453413a20696e76616c6964207369676e6174757265206c656e677468006044820152606401610878565b6003816004811115612f5757612f57613a52565b036116e05760405162461bcd60e51b815260206004820152602260248201527f45434453413a20696e76616c6964207369676e6174757265202773272076616c604482015261756560f01b6064820152608401610878565b60006001600160e01b031982166380ac58cd60e01b1480612fe057506001600160e01b03198216635b5e139f60e01b145b806107af57506301ffc9a760e01b6001600160e01b03198316146107af565b6000807f7fffffffffffffffffffffffffffffff5d576e7357a4501ddfe92f46681b20a083111561303657506000905060036130ba565b6040805160008082526020820180845289905260ff881692820192909252606081018690526080810185905260019060a0016020604051602081039080840390855afa15801561308a573d6000803e3d6000fd5b5050604051601f1901519150506001600160a01b0381166130b3576000600192509250506130ba565b9150600090505b94509492505050565b6001600160e01b0319811681146116e057600080fd5b6000602082840312156130eb57600080fd5b8135611005816130c3565b80356001600160a01b038116811461310d57600080fd5b919050565b6000806040838503121561312557600080fd5b61312e836130f6565b915060208301356001600160601b038116811461314a57600080fd5b809150509250929050565b60006020828403121561316757600080fd5b5035919050565b60005b83811015613189578181015183820152602001613171565b50506000910152565b600081518084526131aa81602086016020860161316e565b601f01601f19169290920160200192915050565b6020815260006110056020830184613192565b600080604083850312156131e457600080fd5b6131ed836130f6565b946020939093013593505050565b60008060006060848603121561321057600080fd5b613219846130f6565b9250613227602085016130f6565b9150604084013590509250925092565b6000806040838503121561324a57600080fd5b50508035926020909101359150565b6000806040838503121561326c57600080fd5b8235915061327c602084016130f6565b90509250929050565b60006020828403121561329757600080fd5b611005826130f6565b60008083601f8401126132b257600080fd5b50813567ffffffffffffffff8111156132ca57600080fd5b602083019150836020828501011115610b5f57600080fd5b6000806000604084860312156132f757600080fd5b833567ffffffffffffffff8082111561330f57600080fd5b908501906080828803121561332357600080fd5b9093506020850135908082111561333957600080fd5b50613346868287016132a0565b9497909650939450505050565b634e487b7160e01b600052604160045260246000fd5b600067ffffffffffffffff8084111561338457613384613353565b604051601f8501601f19908116603f011681019082821181831017156133ac576133ac613353565b816040528093508581528686860111156133c557600080fd5b858560208301376000602087830101525050509392505050565b6000602082840312156133f157600080fd5b813567ffffffffffffffff81111561340857600080fd5b8201601f8101841361341957600080fd5b6113d384823560208401613369565b6000806040838503121561343b57600080fd5b613444836130f6565b91506020830135801515811461314a57600080fd5b6000806000806080858703121561346f57600080fd5b613478856130f6565b9350613486602086016130f6565b925060408501359150606085013567ffffffffffffffff8111156134a957600080fd5b8501601f810187136134ba57600080fd5b6134c987823560208401613369565b91505092959194509250565b600080600080606085870312156134eb57600080fd5b6134f4856130f6565b935060208501359250604085013567ffffffffffffffff81111561351757600080fd5b613523878288016132a0565b95989497509550505050565b6000806040838503121561354257600080fd5b61354b836130f6565b915061327c602084016130f6565b634e487b7160e01b600052601160045260246000fd5b808201808211156107af576107af613559565b60208082526017908201527f4e46544341505045443a20636170206578636565646564000000000000000000604082015260600190565b6000600182016135cb576135cb613559565b5060010190565b600181811c908216806135e657607f821691505b6020821081036108ce57634e487b7160e01b600052602260045260246000fd5b6020808252602d908201527f4552433732313a2063616c6c6572206973206e6f7420746f6b656e206f776e6560408201526c1c881bdc88185c1c1c9bdd9959609a1b606082015260800190565b634e487b7160e01b600052603260045260246000fd5b6000808335601e1984360301811261368057600080fd5b83018035915067ffffffffffffffff82111561369b57600080fd5b602001915036819003821315610b5f57600080fd5b601f821115610a9d57600081815260208120601f850160051c810160208610156136d75750805b601f850160051c820191505b818110156136f6578281556001016136e3565b505050505050565b815167ffffffffffffffff81111561371857613718613353565b61372c8161372684546135d2565b846136b0565b602080601f83116001811461376157600084156137495750858301515b600019600386901b1c1916600185901b1785556136f6565b600085815260208120601f198616915b8281101561379057888601518255948401946001909101908401613771565b50858210156137ae5787850151600019600388901b60f8161c191681555b5050505050600190811b01905550565b60008083546137cc816135d2565b600182811680156137e457600181146137f957613828565b60ff1984168752821515830287019450613828565b8760005260208060002060005b8581101561381f5781548a820152908401908201613806565b50505082870194505b50929695505050505050565b60208082526025908201527f4552433732313a207472616e736665722066726f6d20696e636f72726563742060408201526437bbb732b960d91b606082015260800190565b80820281158282048414176107af576107af613559565b6000826138ad57634e487b7160e01b600052601260045260246000fd5b500490565b60208082526032908201527f4552433732313a207472616e7366657220746f206e6f6e20455243373231526560408201527131b2b4bb32b91034b6b83632b6b2b73a32b960711b606082015260800190565b6000835161391681846020880161316e565b83519083019061392a81836020880161316e565b01949350505050565b7f416363657373436f6e74726f6c3a206163636f756e742000000000000000000081526000835161396b81601785016020880161316e565b7001034b99036b4b9b9b4b733903937b6329607d1b601791840191820152835161399c81602884016020880161316e565b01602801949350505050565b6001600160a01b03858116825284166020820152604081018390526080606082018190526000906139db90830184613192565b9695505050505050565b6000602082840312156139f757600080fd5b8151611005816130c3565b600081613a1157613a11613559565b506000190190565b818103818111156107af576107af613559565b634e487b7160e01b600052603160045260246000fd5b8183823760009101908152919050565b634e487b7160e01b600052602160045260246000fdfea264697066735822122003d98bedc12d25bc03ee0aff2cd6dae2ff846ea40a425255b7e6754306c7623964736f6c634300081100339f2df0fed2c77648de5860a4cc508cd0818c85b8b8a1ab4ceeef8d981c8956a6",
  "devdoc": {
    "author": "Think and Dev",
    "kind": "dev",
    "methods": {
      "approve(address,uint256)": {
        "details": "See {IERC721-approve}."
      },
      "balanceOf(address)": {
        "details": "See {IERC721-balanceOf}."
      },
      "claim((address,string,uint256,uint256),bytes)": {
        "details": "Function that users has to call to get an NFT by signature",
        "params": {
          "request": "request data signed to claim a nft",
          "signature": "signature necesary for claim"
        }
      },
      "constructor": {
        "params": {
          "_contractUri": "Contract Uri",
          "_primarySalePrice": "Primary Sale Price",
          "_primarySaleReceiverAddress": "Primary Sale Receiver Address",
          "cap_": "Max amount of NFTs to be minted. Cannot change",
          "defaultFeeNumerator": "Fees to be charged for royalties",
          "defaultRoyaltyReceiver": "NFT Royalties receiver for all the collection",
          "name": "NFT name",
          "symbol": "NFT symbol"
        }
      },
      "getApproved(uint256)": {
        "details": "See {IERC721-getApproved}."
      },
      "getRoleAdmin(bytes32)": {
        "details": "Returns the admin role that controls `role`. See {grantRole} and {revokeRole}. To change a role's admin, use {_setRoleAdmin}."
      },
      "getRoleMember(bytes32,uint256)": {
        "details": "Returns one of the accounts that have `role`. `index` must be a value between 0 and {getRoleMemberCount}, non-inclusive. Role bearers are not sorted in any particular way, and their ordering may change at any point. WARNING: When using {getRoleMember} and {getRoleMemberCount}, make sure you perform all queries on the same block. See the following https://forum.openzeppelin.com/t/iterating-over-elements-on-enumerableset-in-openzeppelin-contracts/2296[forum post] for more information."
      },
      "getRoleMemberCount(bytes32)": {
        "details": "Returns the number of accounts that have `role`. Can be used together with {getRoleMember} to enumerate all bearers of a role."
      },
      "grantRole(bytes32,address)": {
        "details": "Grants `role` to `account`. If `account` had not been already granted `role`, emits a {RoleGranted} event. Requirements: - the caller must have ``role``'s admin role. May emit a {RoleGranted} event."
      },
      "hasRole(bytes32,address)": {
        "details": "Returns `true` if `account` has been granted `role`."
      },
      "isApprovedForAll(address,address)": {
        "details": "See {IERC721-isApprovedForAll}."
      },
      "name()": {
        "details": "See {IERC721Metadata-name}."
      },
      "owner()": {
        "details": "Returns the address of the current owner."
      },
      "ownerOf(uint256)": {
        "details": "See {IERC721-ownerOf}."
      },
      "renounceRole(bytes32,address)": {
        "details": "Revokes `role` from the calling account. Roles are often managed via {grantRole} and {revokeRole}: this function's purpose is to provide a mechanism for accounts to lose their privileges if they are compromised (such as when a trusted device is misplaced). If the calling account had been revoked `role`, emits a {RoleRevoked} event. Requirements: - the caller must be `account`. May emit a {RoleRevoked} event."
      },
      "revokeRole(bytes32,address)": {
        "details": "Revokes `role` from `account`. If `account` had been granted `role`, emits a {RoleRevoked} event. Requirements: - the caller must have ``role``'s admin role. May emit a {RoleRevoked} event."
      },
      "royaltyInfo(uint256,uint256)": {
        "details": "Returns how much royalty is owed and to whom, based on a sale price that may be denominated in any unit of exchange. The royalty amount is denominated and should be paid in that same unit of exchange."
      },
      "safeLazyMint()": {
        "returns": {
          "_0": "id of the next NFT to be minted"
        }
      },
      "safeLazyMintBatch(uint256)": {
        "params": {
          "quantity": "amount of NFTs to be minted"
        },
        "returns": {
          "_0": "id of the next NFT to be minted"
        }
      },
      "safeMint(address,uint256,string)": {
        "returns": {
          "_0": "id of the new minted NFT"
        }
      },
      "safeTransferFrom(address,address,uint256)": {
        "details": "See {IERC721-safeTransferFrom}."
      },
      "safeTransferFrom(address,address,uint256,bytes)": {
        "details": "See {IERC721-safeTransferFrom}."
      },
      "setApprovalForAll(address,bool)": {
        "details": "See {IERC721-setApprovalForAll}."
      },
      "setContractURI(string)": {
        "params": {
          "_contractUri": "contractUri"
        }
      },
      "setDefaultRoyalty(address,uint96)": {
        "details": "Set royalty receiver and feenumerator to be charged",
        "params": {
          "feeNumerator": "fees to be charged to users on sales",
          "receiver": "Royalty beneficiary"
        }
      },
      "setPrimarySaleReceiverAddress(address,uint256)": {
        "details": "Set receiver and price to be charged",
        "params": {
          "price": "Primary sale price",
          "receiver": "Primary sale beneficiary"
        }
      },
      "symbol()": {
        "details": "See {IERC721Metadata-symbol}."
      },
      "tokenByIndex(uint256)": {
        "details": "See {IERC721Enumerable-tokenByIndex}."
      },
      "tokenOfOwnerByIndex(address,uint256)": {
        "details": "See {IERC721Enumerable-tokenOfOwnerByIndex}."
      },
      "tokenURI(uint256)": {
        "custom:notice": "The following function is override required by Solidity."
      },
      "totalSupply()": {
        "details": "See {IERC721Enumerable-totalSupply}."
      },
      "transferFrom(address,address,uint256)": {
        "details": "See {IERC721-transferFrom}."
      },
      "verify((address,string,uint256,uint256),bytes)": {
        "details": "Verifies that a mint request is signed by an authorized account."
      }
    },
    "stateVariables": {
      "CAP": {
        "details": "Max amount of NFTs to be minted"
      },
      "MINTER_ROLE": {
        "details": "Minter rol"
      },
      "_owner": {
        "details": "Address of owner"
      },
      "_tokenIdCounter": {
        "details": "Private counter to make internal security checks"
      },
      "contractUri": {
        "details": "ContractUri"
      },
      "primarySalePrice": {
        "details": "Primary Sale Price"
      },
      "primarySaleReceiverAddress": {
        "details": "Primary Sale Receiver Address"
      }
    },
    "title": "Canis NFT contract",
    "version": 1
  },
  "userdoc": {
    "kind": "user",
    "methods": {
      "claim((address,string,uint256,uint256),bytes)": {
        "notice": "Claim an nft by signature"
      },
      "constructor": {
        "notice": "Init contract"
      },
      "contractURI()": {
        "notice": "openSea integration royalty. See https://docs.opensea.io/docs/contract-level-metadata"
      },
      "safeLazyMint()": {
        "notice": "Lazy Mint NFTs"
      },
      "safeLazyMintBatch(uint256)": {
        "notice": "Laxy Batch Mint NFTs"
      },
      "safeMint(address,uint256,string)": {
        "notice": "Mint NFT initialized in lazyMint"
      },
      "setContractURI(string)": {
        "notice": "Modify contractUri for NFT collection"
      },
      "setDefaultRoyalty(address,uint96)": {
        "notice": "Royalties config"
      },
      "setPrimarySaleReceiverAddress(address,uint256)": {
        "notice": "Primary sale config"
      }
    },
    "version": 1
  },
  "storageLayout": {
    "storage": [
      {
        "astId": 583,
        "contract": "contracts/CanisNFT.sol:CanisNFT",
        "label": "_name",
        "offset": 0,
        "slot": "0",
        "type": "t_string_storage"
      },
      {
        "astId": 585,
        "contract": "contracts/CanisNFT.sol:CanisNFT",
        "label": "_symbol",
        "offset": 0,
        "slot": "1",
        "type": "t_string_storage"
      },
      {
        "astId": 589,
        "contract": "contracts/CanisNFT.sol:CanisNFT",
        "label": "_owners",
        "offset": 0,
        "slot": "2",
        "type": "t_mapping(t_uint256,t_address)"
      },
      {
        "astId": 593,
        "contract": "contracts/CanisNFT.sol:CanisNFT",
        "label": "_balances",
        "offset": 0,
        "slot": "3",
        "type": "t_mapping(t_address,t_uint256)"
      },
      {
        "astId": 597,
        "contract": "contracts/CanisNFT.sol:CanisNFT",
        "label": "_tokenApprovals",
        "offset": 0,
        "slot": "4",
        "type": "t_mapping(t_uint256,t_address)"
      },
      {
        "astId": 603,
        "contract": "contracts/CanisNFT.sol:CanisNFT",
        "label": "_operatorApprovals",
        "offset": 0,
        "slot": "5",
        "type": "t_mapping(t_address,t_mapping(t_address,t_bool))"
      },
      {
        "astId": 2003,
        "contract": "contracts/CanisNFT.sol:CanisNFT",
        "label": "_tokenURIs",
        "offset": 0,
        "slot": "6",
        "type": "t_mapping(t_uint256,t_string_storage)"
      },
      {
        "astId": 1651,
        "contract": "contracts/CanisNFT.sol:CanisNFT",
        "label": "_ownedTokens",
        "offset": 0,
        "slot": "7",
        "type": "t_mapping(t_address,t_mapping(t_uint256,t_uint256))"
      },
      {
        "astId": 1655,
        "contract": "contracts/CanisNFT.sol:CanisNFT",
        "label": "_ownedTokensIndex",
        "offset": 0,
        "slot": "8",
        "type": "t_mapping(t_uint256,t_uint256)"
      },
      {
        "astId": 1658,
        "contract": "contracts/CanisNFT.sol:CanisNFT",
        "label": "_allTokens",
        "offset": 0,
        "slot": "9",
        "type": "t_array(t_uint256)dyn_storage"
      },
      {
        "astId": 1662,
        "contract": "contracts/CanisNFT.sol:CanisNFT",
        "label": "_allTokensIndex",
        "offset": 0,
        "slot": "10",
        "type": "t_mapping(t_uint256,t_uint256)"
      },
      {
        "astId": 2190,
        "contract": "contracts/CanisNFT.sol:CanisNFT",
        "label": "_defaultRoyaltyInfo",
        "offset": 0,
        "slot": "11",
        "type": "t_struct(RoyaltyInfo)2187_storage"
      },
      {
        "astId": 2195,
        "contract": "contracts/CanisNFT.sol:CanisNFT",
        "label": "_tokenRoyaltyInfo",
        "offset": 0,
        "slot": "12",
        "type": "t_mapping(t_uint256,t_struct(RoyaltyInfo)2187_storage)"
      },
      {
        "astId": 24,
        "contract": "contracts/CanisNFT.sol:CanisNFT",
        "label": "_roles",
        "offset": 0,
        "slot": "13",
        "type": "t_mapping(t_bytes32,t_struct(RoleData)19_storage)"
      },
      {
        "astId": 334,
        "contract": "contracts/CanisNFT.sol:CanisNFT",
        "label": "_roleMembers",
        "offset": 0,
        "slot": "14",
        "type": "t_mapping(t_bytes32,t_struct(AddressSet)4714_storage)"
      },
      {
        "astId": 5032,
        "contract": "contracts/CanisNFT.sol:CanisNFT",
        "label": "contractUri",
        "offset": 0,
        "slot": "15",
        "type": "t_string_storage"
      },
      {
        "astId": 5035,
        "contract": "contracts/CanisNFT.sol:CanisNFT",
        "label": "primarySalePrice",
        "offset": 0,
        "slot": "16",
        "type": "t_uint256"
      },
      {
        "astId": 5038,
        "contract": "contracts/CanisNFT.sol:CanisNFT",
        "label": "primarySaleReceiverAddress",
        "offset": 0,
        "slot": "17",
        "type": "t_address_payable"
      },
      {
        "astId": 5041,
        "contract": "contracts/CanisNFT.sol:CanisNFT",
        "label": "_owner",
        "offset": 0,
        "slot": "18",
        "type": "t_address"
      },
      {
        "astId": 5045,
        "contract": "contracts/CanisNFT.sol:CanisNFT",
        "label": "_tokenIdCounter",
        "offset": 0,
        "slot": "19",
        "type": "t_struct(Counter)2729_storage"
      },
      {
        "astId": 5060,
        "contract": "contracts/CanisNFT.sol:CanisNFT",
        "label": "availableToMint",
        "offset": 0,
        "slot": "20",
        "type": "t_mapping(t_uint256,t_bool)"
      }
    ],
    "types": {
      "t_address": {
        "encoding": "inplace",
        "label": "address",
        "numberOfBytes": "20"
      },
      "t_address_payable": {
        "encoding": "inplace",
        "label": "address payable",
        "numberOfBytes": "20"
      },
      "t_array(t_bytes32)dyn_storage": {
        "base": "t_bytes32",
        "encoding": "dynamic_array",
        "label": "bytes32[]",
        "numberOfBytes": "32"
      },
      "t_array(t_uint256)dyn_storage": {
        "base": "t_uint256",
        "encoding": "dynamic_array",
        "label": "uint256[]",
        "numberOfBytes": "32"
      },
      "t_bool": {
        "encoding": "inplace",
        "label": "bool",
        "numberOfBytes": "1"
      },
      "t_bytes32": {
        "encoding": "inplace",
        "label": "bytes32",
        "numberOfBytes": "32"
      },
      "t_mapping(t_address,t_bool)": {
        "encoding": "mapping",
        "key": "t_address",
        "label": "mapping(address => bool)",
        "numberOfBytes": "32",
        "value": "t_bool"
      },
      "t_mapping(t_address,t_mapping(t_address,t_bool))": {
        "encoding": "mapping",
        "key": "t_address",
        "label": "mapping(address => mapping(address => bool))",
        "numberOfBytes": "32",
        "value": "t_mapping(t_address,t_bool)"
      },
      "t_mapping(t_address,t_mapping(t_uint256,t_uint256))": {
        "encoding": "mapping",
        "key": "t_address",
        "label": "mapping(address => mapping(uint256 => uint256))",
        "numberOfBytes": "32",
        "value": "t_mapping(t_uint256,t_uint256)"
      },
      "t_mapping(t_address,t_uint256)": {
        "encoding": "mapping",
        "key": "t_address",
        "label": "mapping(address => uint256)",
        "numberOfBytes": "32",
        "value": "t_uint256"
      },
      "t_mapping(t_bytes32,t_struct(AddressSet)4714_storage)": {
        "encoding": "mapping",
        "key": "t_bytes32",
        "label": "mapping(bytes32 => struct EnumerableSet.AddressSet)",
        "numberOfBytes": "32",
        "value": "t_struct(AddressSet)4714_storage"
      },
      "t_mapping(t_bytes32,t_struct(RoleData)19_storage)": {
        "encoding": "mapping",
        "key": "t_bytes32",
        "label": "mapping(bytes32 => struct AccessControl.RoleData)",
        "numberOfBytes": "32",
        "value": "t_struct(RoleData)19_storage"
      },
      "t_mapping(t_bytes32,t_uint256)": {
        "encoding": "mapping",
        "key": "t_bytes32",
        "label": "mapping(bytes32 => uint256)",
        "numberOfBytes": "32",
        "value": "t_uint256"
      },
      "t_mapping(t_uint256,t_address)": {
        "encoding": "mapping",
        "key": "t_uint256",
        "label": "mapping(uint256 => address)",
        "numberOfBytes": "32",
        "value": "t_address"
      },
      "t_mapping(t_uint256,t_bool)": {
        "encoding": "mapping",
        "key": "t_uint256",
        "label": "mapping(uint256 => bool)",
        "numberOfBytes": "32",
        "value": "t_bool"
      },
      "t_mapping(t_uint256,t_string_storage)": {
        "encoding": "mapping",
        "key": "t_uint256",
        "label": "mapping(uint256 => string)",
        "numberOfBytes": "32",
        "value": "t_string_storage"
      },
      "t_mapping(t_uint256,t_struct(RoyaltyInfo)2187_storage)": {
        "encoding": "mapping",
        "key": "t_uint256",
        "label": "mapping(uint256 => struct ERC2981.RoyaltyInfo)",
        "numberOfBytes": "32",
        "value": "t_struct(RoyaltyInfo)2187_storage"
      },
      "t_mapping(t_uint256,t_uint256)": {
        "encoding": "mapping",
        "key": "t_uint256",
        "label": "mapping(uint256 => uint256)",
        "numberOfBytes": "32",
        "value": "t_uint256"
      },
      "t_string_storage": {
        "encoding": "bytes",
        "label": "string",
        "numberOfBytes": "32"
      },
      "t_struct(AddressSet)4714_storage": {
        "encoding": "inplace",
        "label": "struct EnumerableSet.AddressSet",
        "members": [
          {
            "astId": 4713,
            "contract": "contracts/CanisNFT.sol:CanisNFT",
            "label": "_inner",
            "offset": 0,
            "slot": "0",
            "type": "t_struct(Set)4399_storage"
          }
        ],
        "numberOfBytes": "64"
      },
      "t_struct(Counter)2729_storage": {
        "encoding": "inplace",
        "label": "struct Counters.Counter",
        "members": [
          {
            "astId": 2728,
            "contract": "contracts/CanisNFT.sol:CanisNFT",
            "label": "_value",
            "offset": 0,
            "slot": "0",
            "type": "t_uint256"
          }
        ],
        "numberOfBytes": "32"
      },
      "t_struct(RoleData)19_storage": {
        "encoding": "inplace",
        "label": "struct AccessControl.RoleData",
        "members": [
          {
            "astId": 16,
            "contract": "contracts/CanisNFT.sol:CanisNFT",
            "label": "members",
            "offset": 0,
            "slot": "0",
            "type": "t_mapping(t_address,t_bool)"
          },
          {
            "astId": 18,
            "contract": "contracts/CanisNFT.sol:CanisNFT",
            "label": "adminRole",
            "offset": 0,
            "slot": "1",
            "type": "t_bytes32"
          }
        ],
        "numberOfBytes": "64"
      },
      "t_struct(RoyaltyInfo)2187_storage": {
        "encoding": "inplace",
        "label": "struct ERC2981.RoyaltyInfo",
        "members": [
          {
            "astId": 2184,
            "contract": "contracts/CanisNFT.sol:CanisNFT",
            "label": "receiver",
            "offset": 0,
            "slot": "0",
            "type": "t_address"
          },
          {
            "astId": 2186,
            "contract": "contracts/CanisNFT.sol:CanisNFT",
            "label": "royaltyFraction",
            "offset": 20,
            "slot": "0",
            "type": "t_uint96"
          }
        ],
        "numberOfBytes": "32"
      },
      "t_struct(Set)4399_storage": {
        "encoding": "inplace",
        "label": "struct EnumerableSet.Set",
        "members": [
          {
            "astId": 4394,
            "contract": "contracts/CanisNFT.sol:CanisNFT",
            "label": "_values",
            "offset": 0,
            "slot": "0",
            "type": "t_array(t_bytes32)dyn_storage"
          },
          {
            "astId": 4398,
            "contract": "contracts/CanisNFT.sol:CanisNFT",
            "label": "_indexes",
            "offset": 0,
            "slot": "1",
            "type": "t_mapping(t_bytes32,t_uint256)"
          }
        ],
        "numberOfBytes": "64"
      },
      "t_uint256": {
        "encoding": "inplace",
        "label": "uint256",
        "numberOfBytes": "32"
      },
      "t_uint96": {
        "encoding": "inplace",
        "label": "uint96",
        "numberOfBytes": "12"
      }
    }
  }
}