{
  "address": "0xCAb3a76bdb7d7FE3477cbc8e9032C4A5D2964DA0",
  "abi": [
    {
      "inputs": [
        {
          "internalType": "address",
          "name": "owner",
          "type": "address"
        },
        {
          "internalType": "address",
          "name": "minter",
          "type": "address"
        },
        {
          "internalType": "uint256",
          "name": "cap_",
          "type": "uint256"
        },
        {
          "internalType": "string",
          "name": "name",
          "type": "string"
        },
        {
          "internalType": "string",
          "name": "symbol",
          "type": "string"
        },
        {
          "internalType": "address",
          "name": "defaultRoyaltyReceiver",
          "type": "address"
        },
        {
          "internalType": "uint96",
          "name": "defaultFeeNumerator",
          "type": "uint96"
        },
        {
          "internalType": "string",
          "name": "_contractUri",
          "type": "string"
        },
        {
          "internalType": "uint256",
          "name": "_primarySalePrice",
          "type": "uint256"
        },
        {
          "internalType": "address",
          "name": "_primarySaleReceiverAddress",
          "type": "address"
        }
      ],
      "stateMutability": "nonpayable",
      "type": "constructor"
    },
    {
      "anonymous": false,
      "inputs": [
        {
          "indexed": true,
          "internalType": "address",
          "name": "owner",
          "type": "address"
        },
        {
          "indexed": true,
          "internalType": "address",
          "name": "approved",
          "type": "address"
        },
        {
          "indexed": true,
          "internalType": "uint256",
          "name": "tokenId",
          "type": "uint256"
        }
      ],
      "name": "Approval",
      "type": "event"
    },
    {
      "anonymous": false,
      "inputs": [
        {
          "indexed": true,
          "internalType": "address",
          "name": "owner",
          "type": "address"
        },
        {
          "indexed": true,
          "internalType": "address",
          "name": "operator",
          "type": "address"
        },
        {
          "indexed": false,
          "internalType": "bool",
          "name": "approved",
          "type": "bool"
        }
      ],
      "name": "ApprovalForAll",
      "type": "event"
    },
    {
      "anonymous": false,
      "inputs": [
        {
          "indexed": true,
          "internalType": "address",
          "name": "to",
          "type": "address"
        },
        {
          "indexed": false,
          "internalType": "uint256",
          "name": "tokenId",
          "type": "uint256"
        }
      ],
      "name": "Claimed",
      "type": "event"
    },
    {
      "anonymous": false,
      "inputs": [
        {
          "indexed": true,
          "internalType": "string",
          "name": "contractUri",
          "type": "string"
        }
      ],
      "name": "ContractURIUpdated",
      "type": "event"
    },
    {
      "anonymous": false,
      "inputs": [
        {
          "indexed": true,
          "internalType": "address",
          "name": "royaltyReceiver",
          "type": "address"
        },
        {
          "indexed": false,
          "internalType": "uint96",
          "name": "feeNumerator",
          "type": "uint96"
        }
      ],
      "name": "DefaultRoyaltyUpdated",
      "type": "event"
    },
    {
      "anonymous": false,
      "inputs": [
        {
          "indexed": false,
          "internalType": "address",
          "name": "owner",
          "type": "address"
        },
        {
          "indexed": false,
          "internalType": "address",
          "name": "minter",
          "type": "address"
        },
        {
          "indexed": false,
          "internalType": "uint256",
          "name": "cap",
          "type": "uint256"
        },
        {
          "indexed": false,
          "internalType": "string",
          "name": "name",
          "type": "string"
        },
        {
          "indexed": false,
          "internalType": "string",
          "name": "symbol",
          "type": "string"
        },
        {
          "indexed": false,
          "internalType": "address",
          "name": "defaultRoyaltyReceiver",
          "type": "address"
        },
        {
          "indexed": false,
          "internalType": "uint96",
          "name": "defaultFeeNumerator",
          "type": "uint96"
        },
        {
          "indexed": false,
          "internalType": "string",
          "name": "contractUri",
          "type": "string"
        },
        {
          "indexed": false,
          "internalType": "uint256",
          "name": "primarySalePrice",
          "type": "uint256"
        },
        {
          "indexed": false,
          "internalType": "address",
          "name": "primarySaleReceiverAddress",
          "type": "address"
        }
      ],
      "name": "Initialized",
      "type": "event"
    },
    {
      "anonymous": false,
      "inputs": [
        {
          "indexed": false,
          "internalType": "address",
          "name": "receiver",
          "type": "address"
        },
        {
          "indexed": false,
          "internalType": "uint256",
          "name": "price",
          "type": "uint256"
        }
      ],
      "name": "PrimarySaleUpdated",
      "type": "event"
    },
    {
      "anonymous": false,
      "inputs": [
        {
          "indexed": true,
          "internalType": "bytes32",
          "name": "role",
          "type": "bytes32"
        },
        {
          "indexed": true,
          "internalType": "bytes32",
          "name": "previousAdminRole",
          "type": "bytes32"
        },
        {
          "indexed": true,
          "internalType": "bytes32",
          "name": "newAdminRole",
          "type": "bytes32"
        }
      ],
      "name": "RoleAdminChanged",
      "type": "event"
    },
    {
      "anonymous": false,
      "inputs": [
        {
          "indexed": true,
          "internalType": "bytes32",
          "name": "role",
          "type": "bytes32"
        },
        {
          "indexed": true,
          "internalType": "address",
          "name": "account",
          "type": "address"
        },
        {
          "indexed": true,
          "internalType": "address",
          "name": "sender",
          "type": "address"
        }
      ],
      "name": "RoleGranted",
      "type": "event"
    },
    {
      "anonymous": false,
      "inputs": [
        {
          "indexed": true,
          "internalType": "bytes32",
          "name": "role",
          "type": "bytes32"
        },
        {
          "indexed": true,
          "internalType": "address",
          "name": "account",
          "type": "address"
        },
        {
          "indexed": true,
          "internalType": "address",
          "name": "sender",
          "type": "address"
        }
      ],
      "name": "RoleRevoked",
      "type": "event"
    },
    {
      "anonymous": false,
      "inputs": [
        {
          "indexed": true,
          "internalType": "address",
          "name": "from",
          "type": "address"
        },
        {
          "indexed": true,
          "internalType": "address",
          "name": "to",
          "type": "address"
        },
        {
          "indexed": true,
          "internalType": "uint256",
          "name": "tokenId",
          "type": "uint256"
        }
      ],
      "name": "Transfer",
      "type": "event"
    },
    {
      "inputs": [],
      "name": "CAP",
      "outputs": [
        {
          "internalType": "uint256",
          "name": "",
          "type": "uint256"
        }
      ],
      "stateMutability": "view",
      "type": "function"
    },
    {
      "inputs": [],
      "name": "DEFAULT_ADMIN_ROLE",
      "outputs": [
        {
          "internalType": "bytes32",
          "name": "",
          "type": "bytes32"
        }
      ],
      "stateMutability": "view",
      "type": "function"
    },
    {
      "inputs": [],
      "name": "MINTER_ROLE",
      "outputs": [
        {
          "internalType": "bytes32",
          "name": "",
          "type": "bytes32"
        }
      ],
      "stateMutability": "view",
      "type": "function"
    },
    {
      "inputs": [
        {
          "internalType": "address",
          "name": "to",
          "type": "address"
        },
        {
          "internalType": "uint256",
          "name": "tokenId",
          "type": "uint256"
        }
      ],
      "name": "approve",
      "outputs": [],
      "stateMutability": "nonpayable",
      "type": "function"
    },
    {
      "inputs": [
        {
          "internalType": "address",
          "name": "owner",
          "type": "address"
        }
      ],
      "name": "balanceOf",
      "outputs": [
        {
          "internalType": "uint256",
          "name": "",
          "type": "uint256"
        }
      ],
      "stateMutability": "view",
      "type": "function"
    },
    {
      "inputs": [
        {
          "components": [
            {
              "internalType": "address",
              "name": "to",
              "type": "address"
            },
            {
              "internalType": "string",
              "name": "uri",
              "type": "string"
            },
            {
              "internalType": "uint256",
              "name": "tokenId",
              "type": "uint256"
            },
            {
              "internalType": "uint256",
              "name": "chainId",
              "type": "uint256"
            }
          ],
          "internalType": "struct ISignatureMintERC721.MintRequest",
          "name": "request",
          "type": "tuple"
        },
        {
          "internalType": "bytes",
          "name": "signature",
          "type": "bytes"
        }
      ],
      "name": "claim",
      "outputs": [
        {
          "internalType": "uint256",
          "name": "",
          "type": "uint256"
        }
      ],
      "stateMutability": "payable",
      "type": "function"
    },
    {
      "inputs": [],
      "name": "contractURI",
      "outputs": [
        {
          "internalType": "string",
          "name": "",
          "type": "string"
        }
      ],
      "stateMutability": "view",
      "type": "function"
    },
    {
      "inputs": [],
      "name": "contractUri",
      "outputs": [
        {
          "internalType": "string",
          "name": "",
          "type": "string"
        }
      ],
      "stateMutability": "view",
      "type": "function"
    },
    {
      "inputs": [
        {
          "internalType": "uint256",
          "name": "tokenId",
          "type": "uint256"
        }
      ],
      "name": "getApproved",
      "outputs": [
        {
          "internalType": "address",
          "name": "",
          "type": "address"
        }
      ],
      "stateMutability": "view",
      "type": "function"
    },
    {
      "inputs": [
        {
          "internalType": "bytes32",
          "name": "role",
          "type": "bytes32"
        }
      ],
      "name": "getRoleAdmin",
      "outputs": [
        {
          "internalType": "bytes32",
          "name": "",
          "type": "bytes32"
        }
      ],
      "stateMutability": "view",
      "type": "function"
    },
    {
      "inputs": [
        {
          "internalType": "bytes32",
          "name": "role",
          "type": "bytes32"
        },
        {
          "internalType": "uint256",
          "name": "index",
          "type": "uint256"
        }
      ],
      "name": "getRoleMember",
      "outputs": [
        {
          "internalType": "address",
          "name": "",
          "type": "address"
        }
      ],
      "stateMutability": "view",
      "type": "function"
    },
    {
      "inputs": [
        {
          "internalType": "bytes32",
          "name": "role",
          "type": "bytes32"
        }
      ],
      "name": "getRoleMemberCount",
      "outputs": [
        {
          "internalType": "uint256",
          "name": "",
          "type": "uint256"
        }
      ],
      "stateMutability": "view",
      "type": "function"
    },
    {
      "inputs": [
        {
          "internalType": "bytes32",
          "name": "role",
          "type": "bytes32"
        },
        {
          "internalType": "address",
          "name": "account",
          "type": "address"
        }
      ],
      "name": "grantRole",
      "outputs": [],
      "stateMutability": "nonpayable",
      "type": "function"
    },
    {
      "inputs": [
        {
          "internalType": "bytes32",
          "name": "role",
          "type": "bytes32"
        },
        {
          "internalType": "address",
          "name": "account",
          "type": "address"
        }
      ],
      "name": "hasRole",
      "outputs": [
        {
          "internalType": "bool",
          "name": "",
          "type": "bool"
        }
      ],
      "stateMutability": "view",
      "type": "function"
    },
    {
      "inputs": [
        {
          "internalType": "address",
          "name": "owner",
          "type": "address"
        },
        {
          "internalType": "address",
          "name": "operator",
          "type": "address"
        }
      ],
      "name": "isApprovedForAll",
      "outputs": [
        {
          "internalType": "bool",
          "name": "",
          "type": "bool"
        }
      ],
      "stateMutability": "view",
      "type": "function"
    },
    {
      "inputs": [],
      "name": "name",
      "outputs": [
        {
          "internalType": "string",
          "name": "",
          "type": "string"
        }
      ],
      "stateMutability": "view",
      "type": "function"
    },
    {
      "inputs": [
        {
          "internalType": "uint256",
          "name": "tokenId",
          "type": "uint256"
        }
      ],
      "name": "ownerOf",
      "outputs": [
        {
          "internalType": "address",
          "name": "",
          "type": "address"
        }
      ],
      "stateMutability": "view",
      "type": "function"
    },
    {
      "inputs": [],
      "name": "primarySalePrice",
      "outputs": [
        {
          "internalType": "uint256",
          "name": "",
          "type": "uint256"
        }
      ],
      "stateMutability": "view",
      "type": "function"
    },
    {
      "inputs": [],
      "name": "primarySaleReceiverAddress",
      "outputs": [
        {
          "internalType": "address payable",
          "name": "",
          "type": "address"
        }
      ],
      "stateMutability": "view",
      "type": "function"
    },
    {
      "inputs": [
        {
          "internalType": "bytes32",
          "name": "role",
          "type": "bytes32"
        },
        {
          "internalType": "address",
          "name": "account",
          "type": "address"
        }
      ],
      "name": "renounceRole",
      "outputs": [],
      "stateMutability": "nonpayable",
      "type": "function"
    },
    {
      "inputs": [
        {
          "internalType": "bytes32",
          "name": "role",
          "type": "bytes32"
        },
        {
          "internalType": "address",
          "name": "account",
          "type": "address"
        }
      ],
      "name": "revokeRole",
      "outputs": [],
      "stateMutability": "nonpayable",
      "type": "function"
    },
    {
      "inputs": [
        {
          "internalType": "uint256",
          "name": "tokenId",
          "type": "uint256"
        },
        {
          "internalType": "uint256",
          "name": "salePrice",
          "type": "uint256"
        }
      ],
      "name": "royaltyInfo",
      "outputs": [
        {
          "internalType": "address",
          "name": "receiver",
          "type": "address"
        },
        {
          "internalType": "uint256",
          "name": "royaltyAmount",
          "type": "uint256"
        }
      ],
      "stateMutability": "view",
      "type": "function"
    },
    {
      "inputs": [],
      "name": "safeLazyMint",
      "outputs": [
        {
          "internalType": "uint256",
          "name": "",
          "type": "uint256"
        }
      ],
      "stateMutability": "nonpayable",
      "type": "function"
    },
    {
      "inputs": [
        {
          "internalType": "uint256",
          "name": "quantity",
          "type": "uint256"
        }
      ],
      "name": "safeLazyMintBatch",
      "outputs": [
        {
          "internalType": "uint256",
          "name": "",
          "type": "uint256"
        }
      ],
      "stateMutability": "nonpayable",
      "type": "function"
    },
    {
      "inputs": [
        {
          "internalType": "address",
          "name": "to",
          "type": "address"
        },
        {
          "internalType": "uint256",
          "name": "tokenID",
          "type": "uint256"
        },
        {
          "internalType": "string",
          "name": "uri",
          "type": "string"
        }
      ],
      "name": "safeMint",
      "outputs": [
        {
          "internalType": "uint256",
          "name": "",
          "type": "uint256"
        }
      ],
      "stateMutability": "nonpayable",
      "type": "function"
    },
    {
      "inputs": [
        {
          "internalType": "address",
          "name": "from",
          "type": "address"
        },
        {
          "internalType": "address",
          "name": "to",
          "type": "address"
        },
        {
          "internalType": "uint256",
          "name": "tokenId",
          "type": "uint256"
        }
      ],
      "name": "safeTransferFrom",
      "outputs": [],
      "stateMutability": "nonpayable",
      "type": "function"
    },
    {
      "inputs": [
        {
          "internalType": "address",
          "name": "from",
          "type": "address"
        },
        {
          "internalType": "address",
          "name": "to",
          "type": "address"
        },
        {
          "internalType": "uint256",
          "name": "tokenId",
          "type": "uint256"
        },
        {
          "internalType": "bytes",
          "name": "data",
          "type": "bytes"
        }
      ],
      "name": "safeTransferFrom",
      "outputs": [],
      "stateMutability": "nonpayable",
      "type": "function"
    },
    {
      "inputs": [
        {
          "internalType": "address",
          "name": "operator",
          "type": "address"
        },
        {
          "internalType": "bool",
          "name": "approved",
          "type": "bool"
        }
      ],
      "name": "setApprovalForAll",
      "outputs": [],
      "stateMutability": "nonpayable",
      "type": "function"
    },
    {
      "inputs": [
        {
          "internalType": "string",
          "name": "_contractUri",
          "type": "string"
        }
      ],
      "name": "setContractURI",
      "outputs": [],
      "stateMutability": "nonpayable",
      "type": "function"
    },
    {
      "inputs": [
        {
          "internalType": "address",
          "name": "receiver",
          "type": "address"
        },
        {
          "internalType": "uint96",
          "name": "feeNumerator",
          "type": "uint96"
        }
      ],
      "name": "setDefaultRoyalty",
      "outputs": [],
      "stateMutability": "nonpayable",
      "type": "function"
    },
    {
      "inputs": [
        {
          "internalType": "address",
          "name": "receiver",
          "type": "address"
        },
        {
          "internalType": "uint256",
          "name": "price",
          "type": "uint256"
        }
      ],
      "name": "setPrimarySaleReceiverAddress",
      "outputs": [],
      "stateMutability": "nonpayable",
      "type": "function"
    },
    {
      "inputs": [
        {
          "internalType": "bytes4",
          "name": "interfaceId",
          "type": "bytes4"
        }
      ],
      "name": "supportsInterface",
      "outputs": [
        {
          "internalType": "bool",
          "name": "",
          "type": "bool"
        }
      ],
      "stateMutability": "view",
      "type": "function"
    },
    {
      "inputs": [],
      "name": "symbol",
      "outputs": [
        {
          "internalType": "string",
          "name": "",
          "type": "string"
        }
      ],
      "stateMutability": "view",
      "type": "function"
    },
    {
      "inputs": [
        {
          "internalType": "uint256",
          "name": "index",
          "type": "uint256"
        }
      ],
      "name": "tokenByIndex",
      "outputs": [
        {
          "internalType": "uint256",
          "name": "",
          "type": "uint256"
        }
      ],
      "stateMutability": "view",
      "type": "function"
    },
    {
      "inputs": [
        {
          "internalType": "address",
          "name": "owner",
          "type": "address"
        },
        {
          "internalType": "uint256",
          "name": "index",
          "type": "uint256"
        }
      ],
      "name": "tokenOfOwnerByIndex",
      "outputs": [
        {
          "internalType": "uint256",
          "name": "",
          "type": "uint256"
        }
      ],
      "stateMutability": "view",
      "type": "function"
    },
    {
      "inputs": [
        {
          "internalType": "uint256",
          "name": "tokenId",
          "type": "uint256"
        }
      ],
      "name": "tokenURI",
      "outputs": [
        {
          "internalType": "string",
          "name": "",
          "type": "string"
        }
      ],
      "stateMutability": "view",
      "type": "function"
    },
    {
      "inputs": [],
      "name": "totalSupply",
      "outputs": [
        {
          "internalType": "uint256",
          "name": "",
          "type": "uint256"
        }
      ],
      "stateMutability": "view",
      "type": "function"
    },
    {
      "inputs": [
        {
          "internalType": "address",
          "name": "from",
          "type": "address"
        },
        {
          "internalType": "address",
          "name": "to",
          "type": "address"
        },
        {
          "internalType": "uint256",
          "name": "tokenId",
          "type": "uint256"
        }
      ],
      "name": "transferFrom",
      "outputs": [],
      "stateMutability": "nonpayable",
      "type": "function"
    },
    {
      "inputs": [
        {
          "components": [
            {
              "internalType": "address",
              "name": "to",
              "type": "address"
            },
            {
              "internalType": "string",
              "name": "uri",
              "type": "string"
            },
            {
              "internalType": "uint256",
              "name": "tokenId",
              "type": "uint256"
            },
            {
              "internalType": "uint256",
              "name": "chainId",
              "type": "uint256"
            }
          ],
          "internalType": "struct ISignatureMintERC721.MintRequest",
          "name": "_req",
          "type": "tuple"
        },
        {
          "internalType": "bytes",
          "name": "_signature",
          "type": "bytes"
        }
      ],
      "name": "verify",
      "outputs": [
        {
          "internalType": "address",
          "name": "signer",
          "type": "address"
        }
      ],
      "stateMutability": "view",
      "type": "function"
    }
  ],
  "transactionHash": "0x769ea8822532cb1834fc81b956b3f8845911c3d165c20afcc4a80e090ec85ad8",
  "args": [
    "0x27598400A96D4EE85f86b0931e49cBc02adD6dF0",
    "0x27598400A96D4EE85f86b0931e49cBc02adD6dF0",
    11111,
    "CanisNFT",
    "CANIS",
    "0x19FDb67eD674f0b53e206eBeB59eb92D8c6B27a5",
    1000,
    "ipfs://bafybeiell6jsgvp4tp5pfbfq3ttzjr27xwt6gnqat7ehsaok6mvunsdike/contract-level.json",
    "150000000000000000",
    "0x07e28B3350bC6a0D421Bf5F6308a399F4c99Ce88"
  ],
  "numDeployments": 2,
  "solcInputHash": "8f848410d202248384f94956b043e5ba",
  "bytecode": "0x60a06040523480156200001157600080fd5b506040516200451138038062004511833981016040819052620000349162000695565b8686600062000044838262000828565b50600162000053828262000828565b5050506001600160a01b038a16620000b25760405162461bcd60e51b815260206004820152601560248201527f4e46544361707065643a206f776e65722069732030000000000000000000000060448201526064015b60405180910390fd5b6001600160a01b0389166200010a5760405162461bcd60e51b815260206004820152601660248201527f4e46544361707065643a206d696e7465722069732030000000000000000000006044820152606401620000a9565b600088116200015c5760405162461bcd60e51b815260206004820152601360248201527f4e46544361707065643a206361702069732030000000000000000000000000006044820152606401620000a9565b60008211620001ae5760405162461bcd60e51b815260206004820181905260248201527f4e46544361707065643a207072696d61727953616c65507269636520697320306044820152606401620000a9565b6001600160a01b038116620002195760405162461bcd60e51b815260206004820152602a60248201527f4e46544361707065643a207072696d61727953616c65526563656976657241646044820152690647265737320697320360b41b6064820152608401620000a9565b6080889052600f6200022c848262000828565b506010829055601180546001600160a01b0319166001600160a01b03831617905562000265858562000329602090811b620014e617901c565b6200027f6000801b8b6200042a60201b620015e31760201c565b620002a5600080516020620044f18339815191528b6200042a60201b620015e31760201c565b620002cb600080516020620044f18339815191528a6200042a60201b620015e31760201c565b7f8da2e0e04c3b2b810acc11fbdd02e558820ae18973db1f9c189ef5a2de96ddca8a8a6080518a8a8a8a600f8a8a604051620003119a9998979695949392919062000922565b60405180910390a15050505050505050505062000a3d565b6127106001600160601b0382161115620003995760405162461bcd60e51b815260206004820152602a60248201527f455243323938313a20726f79616c7479206665652077696c6c206578636565646044820152692073616c65507269636560b01b6064820152608401620000a9565b6001600160a01b038216620003f15760405162461bcd60e51b815260206004820152601960248201527f455243323938313a20696e76616c6964207265636569766572000000000000006044820152606401620000a9565b604080518082019091526001600160a01b039092168083526001600160601b039091166020909201829052600160a01b90910217600b55565b6200043682826200043a565b5050565b6200045182826200047d60201b620015ed1760201c565b6000828152600e60209081526040909120620004789183906200167362000521821b17901c565b505050565b6000828152600d602090815260408083206001600160a01b038516845290915290205460ff1662000436576000828152600d602090815260408083206001600160a01b03851684529091529020805460ff19166001179055620004dd3390565b6001600160a01b0316816001600160a01b0316837f2f8788117e7eff1d82e926ec794901d17c78024a50270940304540a733656f0d60405160405180910390a45050565b600062000538836001600160a01b03841662000541565b90505b92915050565b60008181526001830160205260408120546200058a575081546001818101845560008481526020808220909301849055845484825282860190935260409020919091556200053b565b5060006200053b565b80516001600160a01b0381168114620005ab57600080fd5b919050565b634e487b7160e01b600052604160045260246000fd5b60005b83811015620005e3578181015183820152602001620005c9565b50506000910152565b600082601f830112620005fe57600080fd5b81516001600160401b03808211156200061b576200061b620005b0565b604051601f8301601f19908116603f01168101908282118183101715620006465762000646620005b0565b816040528381528660208588010111156200066057600080fd5b62000673846020830160208901620005c6565b9695505050505050565b80516001600160601b0381168114620005ab57600080fd5b6000806000806000806000806000806101408b8d031215620006b657600080fd5b620006c18b62000593565b9950620006d160208c0162000593565b60408c015160608d0151919a5098506001600160401b0380821115620006f657600080fd5b620007048e838f01620005ec565b985060808d01519150808211156200071b57600080fd5b620007298e838f01620005ec565b97506200073960a08e0162000593565b96506200074960c08e016200067d565b955060e08d01519150808211156200076057600080fd5b506200076f8d828e01620005ec565b9350506101008b01519150620007896101208c0162000593565b90509295989b9194979a5092959850565b600181811c90821680620007af57607f821691505b602082108103620007d057634e487b7160e01b600052602260045260246000fd5b50919050565b601f8211156200047857600081815260208120601f850160051c81016020861015620007ff5750805b601f850160051c820191505b8181101562000820578281556001016200080b565b505050505050565b81516001600160401b03811115620008445762000844620005b0565b6200085c816200085584546200079a565b84620007d6565b602080601f8311600181146200089457600084156200087b5750858301515b600019600386901b1c1916600185901b17855562000820565b600085815260208120601f198616915b82811015620008c557888601518255948401946001909101908401620008a4565b5085821015620008e45787850151600019600388901b60f8161c191681555b5050505050600190811b01905550565b600081518084526200090e816020860160208601620005c6565b601f01601f19169290920160200192915050565b600061014060018060a01b03808e1684526020818e16818601528c6040860152826060860152620009568386018d620008f4565b925084830360808601526200096c838c620008f4565b918a1660a08601526001600160601b03891660c086015284820360e086015287549192506000916200099e816200079a565b80855260018281168015620009bc5760018114620009d75762000a07565b60ff1984168786015282151560051b87018501955062000a07565b8b6000528460002060005b84811015620009ff578154898201880152908301908601620009e2565b880186019650505b505050505061010084018690526001600160a01b038516610120850152915062000a2e9050565b9b9a5050505050505050505050565b608051613a7562000a7c600039600081816107230152818161080801528181610aaf01528181611191015281816113400152611adc0152613a756000f3fe6080604052600436106102305760003560e01c80639010d07c1161012e578063cd279c7c116100ab578063e8a3d4851161006f578063e8a3d485146106b3578063e985e9c5146106c8578063ec81b48314610711578063f7d506a514610745578063fc3f59cf1461075b57600080fd5b8063cd279c7c1461060a578063d53913931461062a578063d547741f1461065e578063d6836d161461067e578063d6dd047a1461069357600080fd5b8063a22cb465116100f2578063a22cb46514610575578063b88d4fde14610595578063c0e24d5e146105b5578063c87b56dd146105ca578063ca15c873146105ea57600080fd5b80639010d07c146104eb57806391d148541461050b578063938e3d7b1461052b57806395d89b411461054b578063a217fddf1461056057600080fd5b8063248a9ca3116101bc57806342842e0e1161018057806342842e0e146104585780634f6ccce7146104785780636352211e1461049857806370a08231146104b85780638d643001146104d857600080fd5b8063248a9ca3146103895780632a55205a146103b95780632f2ff15d146103f85780632f745c591461041857806336568abe1461043857600080fd5b8063081812fc11610203578063081812fc146102dc578063095ea7b3146103145780630edd80f31461033457806318160ddd1461035457806323b872dd1461036957600080fd5b806301ffc9a71461023557806304634d8d1461026a57806306779e431461028c57806306fdde03146102ba575b600080fd5b34801561024157600080fd5b506102556102503660046130b0565b61077b565b60405190151581526020015b60405180910390f35b34801561027657600080fd5b5061028a6102853660046130e9565b61078c565b005b34801561029857600080fd5b506102ac6102a736600461312c565b6107ed565b604051908152602001610261565b3480156102c657600080fd5b506102cf6108ab565b6040516102619190613195565b3480156102e857600080fd5b506102fc6102f736600461312c565b61093d565b6040516001600160a01b039091168152602001610261565b34801561032057600080fd5b5061028a61032f3660046131a8565b610964565b34801561034057600080fd5b506011546102fc906001600160a01b031681565b34801561036057600080fd5b506009546102ac565b34801561037557600080fd5b5061028a6103843660046131d2565b610a79565b34801561039557600080fd5b506102ac6103a436600461312c565b6000908152600d602052604090206001015490565b3480156103c557600080fd5b506103d96103d436600461320e565b610aaa565b604080516001600160a01b039093168352602083019190915201610261565b34801561040457600080fd5b5061028a610413366004613230565b610b3d565b34801561042457600080fd5b506102ac6104333660046131a8565b610b62565b34801561044457600080fd5b5061028a610453366004613230565b610bf8565b34801561046457600080fd5b5061028a6104733660046131d2565b610c76565b34801561048457600080fd5b506102ac61049336600461312c565b610c91565b3480156104a457600080fd5b506102fc6104b336600461312c565b610d24565b3480156104c457600080fd5b506102ac6104d336600461325c565b610d84565b6102ac6104e63660046132b9565b610e0a565b3480156104f757600080fd5b506102fc61050636600461320e565b610fe3565b34801561051757600080fd5b50610255610526366004613230565b610ffb565b34801561053757600080fd5b5061028a6105463660046133b6565b611026565b34801561055757600080fd5b506102cf611081565b34801561056c57600080fd5b506102ac600081565b34801561058157600080fd5b5061028a6105903660046133ff565b611090565b3480156105a157600080fd5b5061028a6105b0366004613430565b61109b565b3480156105c157600080fd5b506102cf6110d3565b3480156105d657600080fd5b506102cf6105e536600461312c565b611161565b3480156105f657600080fd5b506102ac61060536600461312c565b61116c565b34801561061657600080fd5b506102ac6106253660046134ac565b611183565b34801561063657600080fd5b506102ac7f9f2df0fed2c77648de5860a4cc508cd0818c85b8b8a1ab4ceeef8d981c8956a681565b34801561066a57600080fd5b5061028a610679366004613230565b6112f2565b34801561068a57600080fd5b506102ac611317565b34801561069f57600080fd5b506102fc6106ae3660046132b9565b61139d565b3480156106bf57600080fd5b506102cf6113b2565b3480156106d457600080fd5b506102556106e3366004613506565b6001600160a01b03918216600090815260056020908152604080832093909416825291909152205460ff1690565b34801561071d57600080fd5b506102ac7f000000000000000000000000000000000000000000000000000000000000000081565b34801561075157600080fd5b506102ac60105481565b34801561076757600080fd5b5061028a6107763660046131a8565b6113c1565b600061078682611688565b92915050565b6000610797816116ad565b6107a183836114e6565b6040516001600160601b03831681526001600160a01b038416907fe12d7d5bdb8218a22277dca8f854dd4573a1cea3d3e4808dc567df9eb1c14bf49060200160405180910390a2505050565b6000806107f9816116ad565b600061080460125490565b90507f00000000000000000000000000000000000000000000000000000000000000006108318583613546565b11156108585760405162461bcd60e51b815260040161084f90613559565b60405180910390fd5b60005b848110156108a157610871601280546001019055565b6012546000818152601360205260409020805460ff1916600117905591508061089981613590565b91505061085b565b5091505b50919050565b6060600080546108ba906135a9565b80601f01602080910402602001604051908101604052809291908181526020018280546108e6906135a9565b80156109335780601f1061090857610100808354040283529160200191610933565b820191906000526020600020905b81548152906001019060200180831161091657829003601f168201915b5050505050905090565b6000610948826116ba565b506000908152600460205260409020546001600160a01b031690565b600061096f82610d24565b9050806001600160a01b0316836001600160a01b0316036109dc5760405162461bcd60e51b815260206004820152602160248201527f4552433732313a20617070726f76616c20746f2063757272656e74206f776e656044820152603960f91b606482015260840161084f565b336001600160a01b03821614806109f857506109f881336106e3565b610a6a5760405162461bcd60e51b815260206004820152603d60248201527f4552433732313a20617070726f76652063616c6c6572206973206e6f7420746f60448201527f6b656e206f776e6572206f7220617070726f76656420666f7220616c6c000000606482015260840161084f565b610a748383611719565b505050565b610a833382611787565b610a9f5760405162461bcd60e51b815260040161084f906135dd565b610a74838383611805565b6000807f0000000000000000000000000000000000000000000000000000000000000000841115610b275760405162461bcd60e51b815260206004820152602160248201527f43414e49534e46543a20544f4b454e20494420444f4553204e4f5420455849536044820152601560fa1b606482015260840161084f565b610b318484611976565b915091505b9250929050565b6000828152600d6020526040902060010154610b58816116ad565b610a748383611a22565b6000610b6d83610d84565b8210610bcf5760405162461bcd60e51b815260206004820152602b60248201527f455243373231456e756d657261626c653a206f776e657220696e646578206f7560448201526a74206f6620626f756e647360a81b606482015260840161084f565b506001600160a01b03919091166000908152600760209081526040808320938352929052205490565b6001600160a01b0381163314610c685760405162461bcd60e51b815260206004820152602f60248201527f416363657373436f6e74726f6c3a2063616e206f6e6c792072656e6f756e636560448201526e103937b632b9903337b91039b2b63360891b606482015260840161084f565b610c728282611a44565b5050565b610a748383836040518060200160405280600081525061109b565b6000610c9c60095490565b8210610cff5760405162461bcd60e51b815260206004820152602c60248201527f455243373231456e756d657261626c653a20676c6f62616c20696e646578206f60448201526b7574206f6620626f756e647360a01b606482015260840161084f565b60098281548110610d1257610d1261362a565b90600052602060002001549050919050565b6000818152600260205260408120546001600160a01b0316806107865760405162461bcd60e51b8152602060048201526018602482015277115490cdcc8c4e881a5b9d985b1a59081d1bdad95b88125160421b604482015260640161084f565b60006001600160a01b038216610dee5760405162461bcd60e51b815260206004820152602960248201527f4552433732313a2061646472657373207a65726f206973206e6f7420612076616044820152683634b21037bbb732b960b91b606482015260840161084f565b506001600160a01b031660009081526003602052604090205490565b6000601054341015610e765760405162461bcd60e51b815260206004820152602f60248201527f43414e49534e46543a205061796d656e74206973206c657373207468616e207060448201526e72696d61727953616c65507269636560881b606482015260840161084f565b6011546040516000916001600160a01b03169034908381818185875af1925050503d8060008114610ec3576040519150601f19603f3d011682016040523d82523d6000602084013e610ec8565b606091505b5050905080610f195760405162461bcd60e51b815260206004820181905260248201527f43414e49534e46543a204661696c656420746f2073656e64207061796d656e74604482015260640161084f565b610f24858585611a66565b506040858101356000908152601360205220805460ff19169055610f4c338660400135611c89565b610f9b6040860135610f616020880188613640565b8080601f016020809104026020016040519081016040528093929190818152602001838380828437600092019190915250611ca392505050565b6040805190860135815233907fd8138f8a3f377c5259ca548e70e4c2de94f129f5a11036a15b69513cba2b426a9060200160405180910390a2505060408301355b9392505050565b6000828152600e60205260408120610fdc9083611d36565b6000918252600d602090815260408084206001600160a01b0393909316845291905290205460ff1690565b6000611031816116ad565b600f61103d83826136d5565b50600f60405161104d9190613795565b604051908190038120907f905d981207a7d0b6c62cc46ab0be2a076d0298e4a86d0ab79882dbd01ac3737890600090a25050565b6060600180546108ba906135a9565b610c72338383611d42565b6110a53383611787565b6110c15760405162461bcd60e51b815260040161084f906135dd565b6110cd84848484611e10565b50505050565b600f80546110e0906135a9565b80601f016020809104026020016040519081016040528092919081815260200182805461110c906135a9565b80156111595780601f1061112e57610100808354040283529160200191611159565b820191906000526020600020905b81548152906001019060200180831161113c57829003601f168201915b505050505081565b606061078682611e43565b6000818152600e6020526040812061078690611f4b565b60008061118f816116ad565b7f00000000000000000000000000000000000000000000000000000000000000008511156111cf5760405162461bcd60e51b815260040161084f90613559565b60008581526013602052604090205460ff1615156001146112455760405162461bcd60e51b815260206004820152602a60248201527f4e46544341505045443a20746f6b656e4964206e6f7420617661696c61626c65604482015269081d1bc81b5a5b9d195960b21b606482015260840161084f565b826112885760405162461bcd60e51b815260206004820152601360248201527243414e49534e46543a20456d7074792055524960681b604482015260640161084f565b6000858152601360205260409020805460ff191690556112a88686611c89565b6112e88585858080601f016020809104026020016040519081016040528093929190818152602001838380828437600092019190915250611ca392505050565b5092949350505050565b6000828152600d602052604090206001015461130d816116ad565b610a748383611a44565b600080611323816116ad565b611331601280546001019055565b600061133c60125490565b90507f000000000000000000000000000000000000000000000000000000000000000081111561137e5760405162461bcd60e51b815260040161084f90613559565b6000818152601360205260409020805460ff1916600117905591505090565b60006113aa848484611f55565b949350505050565b6060600f80546108ba906135a9565b60006113cc816116ad565b6001600160a01b0383166114355760405162461bcd60e51b815260206004820152602a60248201527f4e46544361707065643a207072696d61727953616c65526563656976657241646044820152690647265737320697320360b41b606482015260840161084f565b600082116114855760405162461bcd60e51b815260206004820181905260248201527f4e46544361707065643a207072696d61727953616c6550726963652069732030604482015260640161084f565b601180546001600160a01b0319166001600160a01b038516908117909155601083905560408051918252602082018490527f5b94197904d464219436d9c48e823fdce78dd14a1271ddda92262c28524fa692910160405180910390a1505050565b6127106001600160601b03821611156115545760405162461bcd60e51b815260206004820152602a60248201527f455243323938313a20726f79616c7479206665652077696c6c206578636565646044820152692073616c65507269636560b01b606482015260840161084f565b6001600160a01b0382166115aa5760405162461bcd60e51b815260206004820152601960248201527f455243323938313a20696e76616c696420726563656976657200000000000000604482015260640161084f565b604080518082019091526001600160a01b039092168083526001600160601b039091166020909201829052600160a01b90910217600b55565b610c728282611a22565b6115f78282610ffb565b610c72576000828152600d602090815260408083206001600160a01b03851684529091529020805460ff1916600117905561162f3390565b6001600160a01b0316816001600160a01b0316837f2f8788117e7eff1d82e926ec794901d17c78024a50270940304540a733656f0d60405160405180910390a45050565b6000610fdc836001600160a01b03841661204c565b60006001600160e01b03198216635a05180f60e01b148061078657506107868261209b565b6116b781336120c0565b50565b6000818152600260205260409020546001600160a01b03166116b75760405162461bcd60e51b8152602060048201526018602482015277115490cdcc8c4e881a5b9d985b1a59081d1bdad95b88125160421b604482015260640161084f565b600081815260046020526040902080546001600160a01b0319166001600160a01b038416908117909155819061174e82610d24565b6001600160a01b03167f8c5be1e5ebec7d5bd14f71427d1e84f3dd0314c0f7b2291e5b200ac8c7c3b92560405160405180910390a45050565b60008061179383610d24565b9050806001600160a01b0316846001600160a01b031614806117da57506001600160a01b0380821660009081526005602090815260408083209388168352929052205460ff165b806113aa5750836001600160a01b03166117f38461093d565b6001600160a01b031614949350505050565b826001600160a01b031661181882610d24565b6001600160a01b03161461183e5760405162461bcd60e51b815260040161084f9061380b565b6001600160a01b0382166118a05760405162461bcd60e51b8152602060048201526024808201527f4552433732313a207472616e7366657220746f20746865207a65726f206164646044820152637265737360e01b606482015260840161084f565b6118ad8383836001612119565b826001600160a01b03166118c082610d24565b6001600160a01b0316146118e65760405162461bcd60e51b815260040161084f9061380b565b600081815260046020908152604080832080546001600160a01b03199081169091556001600160a01b0387811680865260038552838620805460001901905590871680865283862080546001019055868652600290945282852080549092168417909155905184937fddf252ad1be2c89b69c2b068fc378daa952ba7f163c4a11628f55a4df523b3ef91a4505050565b6000828152600c602090815260408083208151808301909252546001600160a01b038116808352600160a01b9091046001600160601b03169282019290925282916119eb575060408051808201909152600b546001600160a01b0381168252600160a01b90046001600160601b031660208201525b602081015160009061271090611a0a906001600160601b031687613850565b611a149190613867565b915196919550909350505050565b611a2c82826115ed565b6000828152600e60205260409020610a749082611673565b611a4e8282612125565b6000828152600e60205260409020610a74908261218c565b6000611a73848484611f55565b90506000611a84602086018661325c565b6001600160a01b031603611ada5760405162461bcd60e51b815260206004820152601d60248201527f43414e49534e46543a20726563697069656e7420756e646566696e6564000000604482015260640161084f565b7f000000000000000000000000000000000000000000000000000000000000000084604001351115611b475760405162461bcd60e51b815260206004820152601660248201527510d0539254d391950e8818d85c08195e18d95959195960521b604482015260640161084f565b60125484604001351115611bc35760405162461bcd60e51b815260206004820152603860248201527f43414e49534e46543a207265717565737420746f6b656e2069642063616e6e6f60448201527f742062652067726561746572207468616e206d696e7465640000000000000000606482015260840161084f565b46846060013514611c355760405162461bcd60e51b815260206004820152603660248201527f43414e49534e46543a2074686520636861696e206964206d757374206265207460448201527568652073616d6520617320746865206e6574776f726b60501b606482015260840161084f565b6000611c446020860186613640565b905011610fdc5760405162461bcd60e51b815260206004820152601360248201527243414e49534e46543a20456d7074792055524960681b604482015260640161084f565b610c728282604051806020016040528060008152506121a1565b6000828152600260205260409020546001600160a01b0316611d1e5760405162461bcd60e51b815260206004820152602e60248201527f45524337323155524953746f726167653a2055524920736574206f66206e6f6e60448201526d32bc34b9ba32b73a103a37b5b2b760911b606482015260840161084f565b6000828152600660205260409020610a7482826136d5565b6000610fdc83836121d4565b816001600160a01b0316836001600160a01b031603611da35760405162461bcd60e51b815260206004820152601960248201527f4552433732313a20617070726f766520746f2063616c6c657200000000000000604482015260640161084f565b6001600160a01b03838116600081815260056020908152604080832094871680845294825291829020805460ff191686151590811790915591519182527f17307eab39ab6107e8899845ad3d59bd9653f200f220920489ca2b5937696c31910160405180910390a3505050565b611e1b848484611805565b611e27848484846121fe565b6110cd5760405162461bcd60e51b815260040161084f90613889565b6060611e4e826116ba565b60008281526006602052604081208054611e67906135a9565b80601f0160208091040260200160405190810160405280929190818152602001828054611e93906135a9565b8015611ee05780601f10611eb557610100808354040283529160200191611ee0565b820191906000526020600020905b815481529060010190602001808311611ec357829003601f168201915b505050505090506000611efe60408051602081019091526000815290565b90508051600003611f10575092915050565b815115611f42578082604051602001611f2a9291906138db565b60405160208183030381529060405292505050919050565b6113aa846122ff565b6000610786825490565b6000611f62848484612372565b60408086013560009081526013602052205490915060ff16611fc65760405162461bcd60e51b815260206004820152601f60248201527f43414e49534e46543a20746f6b656e4964206e6f7420617661696c61626c6500604482015260640161084f565b611ff07f9f2df0fed2c77648de5860a4cc508cd0818c85b8b8a1ab4ceeef8d981c8956a682610ffb565b610fdc5760405162461bcd60e51b815260206004820152602760248201527f43414e49534e46543a206d7573742068617665206d696e74657220726f6c65206044820152661d1bc81b5a5b9d60ca1b606482015260840161084f565b600081815260018301602052604081205461209357508154600181810184556000848152602080822090930184905584548482528286019093526040902091909155610786565b506000610786565b60006001600160e01b03198216637965db0b60e01b1480610786575061078682612413565b6120ca8282610ffb565b610c72576120d781612438565b6120e283602061244a565b6040516020016120f392919061390a565b60408051601f198184030181529082905262461bcd60e51b825261084f91600401613195565b6110cd848484846125e6565b61212f8282610ffb565b15610c72576000828152600d602090815260408083206001600160a01b0385168085529252808320805460ff1916905551339285917ff6391f5c32d9c69d2a47ea670b442974b53935d1edc7fd64eb21e047a839171b9190a45050565b6000610fdc836001600160a01b038416612726565b6121ab8383612819565b6121b860008484846121fe565b610a745760405162461bcd60e51b815260040161084f90613889565b60008260000182815481106121eb576121eb61362a565b9060005260206000200154905092915050565b60006001600160a01b0384163b156122f457604051630a85bd0160e11b81526001600160a01b0385169063150b7a029061224290339089908890889060040161397f565b6020604051808303816000875af192505050801561227d575060408051601f3d908101601f1916820190925261227a918101906139bc565b60015b6122da573d8080156122ab576040519150601f19603f3d011682016040523d82523d6000602084013e6122b0565b606091505b5080516000036122d25760405162461bcd60e51b815260040161084f90613889565b805181602001fd5b6001600160e01b031916630a85bd0160e11b1490506113aa565b506001949350505050565b606061230a826116ba565b600061232160408051602081019091526000815290565b905060008151116123415760405180602001604052806000815250610fdc565b8061234b846129b2565b60405160200161235c9291906138db565b6040516020818303038152906040529392505050565b60006113aa83838080601f01602080910402602001604051908101604052809392919081815260200183838082843760009201919091525061240d92506123bc9150889050612a45565b8051602091820120604080517f19457468657265756d205369676e6564204d6573736167653a0a33320000000081850152603c8082019390935281518082039093018352605c019052805191012090565b90612ac1565b60006001600160e01b0319821663152a902d60e11b1480610786575061078682612ae5565b60606107866001600160a01b03831660145b60606000612459836002613850565b612464906002613546565b67ffffffffffffffff81111561247c5761247c61332a565b6040519080825280601f01601f1916602001820160405280156124a6576020820181803683370190505b509050600360fc1b816000815181106124c1576124c161362a565b60200101906001600160f81b031916908160001a905350600f60fb1b816001815181106124f0576124f061362a565b60200101906001600160f81b031916908160001a9053506000612514846002613850565b61251f906001613546565b90505b6001811115612597576f181899199a1a9b1b9c1cb0b131b232b360811b85600f16601081106125535761255361362a565b1a60f81b8282815181106125695761256961362a565b60200101906001600160f81b031916908160001a90535060049490941c93612590816139d9565b9050612522565b508315610fdc5760405162461bcd60e51b815260206004820181905260248201527f537472696e67733a20686578206c656e67746820696e73756666696369656e74604482015260640161084f565b6125f284848484612b0a565b60018111156126615760405162461bcd60e51b815260206004820152603560248201527f455243373231456e756d657261626c653a20636f6e7365637574697665207472604482015274185b9cd9995c9cc81b9bdd081cdd5c1c1bdc9d1959605a1b606482015260840161084f565b816001600160a01b0385166126bd576126b881600980546000838152600a60205260408120829055600182018355919091527f6e1540171b6c0c960b71a7020d9f60077f6af931a8bbf590da0223dacf75c7af0155565b6126e0565b836001600160a01b0316856001600160a01b0316146126e0576126e08582612b92565b6001600160a01b0384166126fc576126f781612c2f565b61271f565b846001600160a01b0316846001600160a01b03161461271f5761271f8482612cde565b5050505050565b6000818152600183016020526040812054801561280f57600061274a6001836139f0565b855490915060009061275e906001906139f0565b90508181146127c357600086600001828154811061277e5761277e61362a565b90600052602060002001549050808760000184815481106127a1576127a161362a565b6000918252602080832090910192909255918252600188019052604090208390555b85548690806127d4576127d4613a03565b600190038181906000526020600020016000905590558560010160008681526020019081526020016000206000905560019350505050610786565b6000915050610786565b6001600160a01b03821661286f5760405162461bcd60e51b815260206004820181905260248201527f4552433732313a206d696e7420746f20746865207a65726f2061646472657373604482015260640161084f565b6000818152600260205260409020546001600160a01b0316156128d45760405162461bcd60e51b815260206004820152601c60248201527f4552433732313a20746f6b656e20616c7265616479206d696e74656400000000604482015260640161084f565b6128e2600083836001612119565b6000818152600260205260409020546001600160a01b0316156129475760405162461bcd60e51b815260206004820152601c60248201527f4552433732313a20746f6b656e20616c7265616479206d696e74656400000000604482015260640161084f565b6001600160a01b038216600081815260036020908152604080832080546001019055848352600290915280822080546001600160a01b0319168417905551839291907fddf252ad1be2c89b69c2b068fc378daa952ba7f163c4a11628f55a4df523b3ef908290a45050565b606060006129bf83612d22565b600101905060008167ffffffffffffffff8111156129df576129df61332a565b6040519080825280601f01601f191660200182016040528015612a09576020820181803683370190505b5090508181016020015b600019016f181899199a1a9b1b9c1cb0b131b232b360811b600a86061a8153600a8504945084612a1357509392505050565b6060612a54602083018361325c565b612a616020840184613640565b604051612a6f929190613a19565b604080519182900382206bffffffffffffffffffffffff19606094851b166020840152603483015284013560548201529083013560748201526094016040516020818303038152906040529050919050565b6000806000612ad08585612dfa565b91509150612add81612e3c565b509392505050565b60006001600160e01b0319821663780e9d6360e01b1480610786575061078682612f86565b60018111156110cd576001600160a01b03841615612b50576001600160a01b03841660009081526003602052604081208054839290612b4a9084906139f0565b90915550505b6001600160a01b038316156110cd576001600160a01b03831660009081526003602052604081208054839290612b87908490613546565b909155505050505050565b60006001612b9f84610d84565b612ba991906139f0565b600083815260086020526040902054909150808214612bfc576001600160a01b03841660009081526007602090815260408083208584528252808320548484528184208190558352600890915290208190555b5060009182526008602090815260408084208490556001600160a01b039094168352600781528383209183525290812055565b600954600090612c41906001906139f0565b6000838152600a602052604081205460098054939450909284908110612c6957612c6961362a565b906000526020600020015490508060098381548110612c8a57612c8a61362a565b6000918252602080832090910192909255828152600a90915260408082208490558582528120556009805480612cc257612cc2613a03565b6001900381819060005260206000200160009055905550505050565b6000612ce983610d84565b6001600160a01b039093166000908152600760209081526040808320868452825280832085905593825260089052919091209190915550565b60008072184f03e93ff9f4daa797ed6e38ed64bf6a1f0160401b8310612d615772184f03e93ff9f4daa797ed6e38ed64bf6a1f0160401b830492506040015b6d04ee2d6d415b85acef81000000008310612d8d576d04ee2d6d415b85acef8100000000830492506020015b662386f26fc100008310612dab57662386f26fc10000830492506010015b6305f5e1008310612dc3576305f5e100830492506008015b6127108310612dd757612710830492506004015b60648310612de9576064830492506002015b600a83106107865760010192915050565b6000808251604103612e305760208301516040840151606085015160001a612e2487828585612fd6565b94509450505050610b36565b50600090506002610b36565b6000816004811115612e5057612e50613a29565b03612e585750565b6001816004811115612e6c57612e6c613a29565b03612eb95760405162461bcd60e51b815260206004820152601860248201527f45434453413a20696e76616c6964207369676e61747572650000000000000000604482015260640161084f565b6002816004811115612ecd57612ecd613a29565b03612f1a5760405162461bcd60e51b815260206004820152601f60248201527f45434453413a20696e76616c6964207369676e6174757265206c656e67746800604482015260640161084f565b6003816004811115612f2e57612f2e613a29565b036116b75760405162461bcd60e51b815260206004820152602260248201527f45434453413a20696e76616c6964207369676e6174757265202773272076616c604482015261756560f01b606482015260840161084f565b60006001600160e01b031982166380ac58cd60e01b1480612fb757506001600160e01b03198216635b5e139f60e01b145b8061078657506301ffc9a760e01b6001600160e01b0319831614610786565b6000807f7fffffffffffffffffffffffffffffff5d576e7357a4501ddfe92f46681b20a083111561300d5750600090506003613091565b6040805160008082526020820180845289905260ff881692820192909252606081018690526080810185905260019060a0016020604051602081039080840390855afa158015613061573d6000803e3d6000fd5b5050604051601f1901519150506001600160a01b03811661308a57600060019250925050613091565b9150600090505b94509492505050565b6001600160e01b0319811681146116b757600080fd5b6000602082840312156130c257600080fd5b8135610fdc8161309a565b80356001600160a01b03811681146130e457600080fd5b919050565b600080604083850312156130fc57600080fd5b613105836130cd565b915060208301356001600160601b038116811461312157600080fd5b809150509250929050565b60006020828403121561313e57600080fd5b5035919050565b60005b83811015613160578181015183820152602001613148565b50506000910152565b60008151808452613181816020860160208601613145565b601f01601f19169290920160200192915050565b602081526000610fdc6020830184613169565b600080604083850312156131bb57600080fd5b6131c4836130cd565b946020939093013593505050565b6000806000606084860312156131e757600080fd5b6131f0846130cd565b92506131fe602085016130cd565b9150604084013590509250925092565b6000806040838503121561322157600080fd5b50508035926020909101359150565b6000806040838503121561324357600080fd5b82359150613253602084016130cd565b90509250929050565b60006020828403121561326e57600080fd5b610fdc826130cd565b60008083601f84011261328957600080fd5b50813567ffffffffffffffff8111156132a157600080fd5b602083019150836020828501011115610b3657600080fd5b6000806000604084860312156132ce57600080fd5b833567ffffffffffffffff808211156132e657600080fd5b90850190608082880312156132fa57600080fd5b9093506020850135908082111561331057600080fd5b5061331d86828701613277565b9497909650939450505050565b634e487b7160e01b600052604160045260246000fd5b600067ffffffffffffffff8084111561335b5761335b61332a565b604051601f8501601f19908116603f011681019082821181831017156133835761338361332a565b8160405280935085815286868601111561339c57600080fd5b858560208301376000602087830101525050509392505050565b6000602082840312156133c857600080fd5b813567ffffffffffffffff8111156133df57600080fd5b8201601f810184136133f057600080fd5b6113aa84823560208401613340565b6000806040838503121561341257600080fd5b61341b836130cd565b91506020830135801515811461312157600080fd5b6000806000806080858703121561344657600080fd5b61344f856130cd565b935061345d602086016130cd565b925060408501359150606085013567ffffffffffffffff81111561348057600080fd5b8501601f8101871361349157600080fd5b6134a087823560208401613340565b91505092959194509250565b600080600080606085870312156134c257600080fd5b6134cb856130cd565b935060208501359250604085013567ffffffffffffffff8111156134ee57600080fd5b6134fa87828801613277565b95989497509550505050565b6000806040838503121561351957600080fd5b613522836130cd565b9150613253602084016130cd565b634e487b7160e01b600052601160045260246000fd5b8082018082111561078657610786613530565b60208082526017908201527f4e46544341505045443a20636170206578636565646564000000000000000000604082015260600190565b6000600182016135a2576135a2613530565b5060010190565b600181811c908216806135bd57607f821691505b6020821081036108a557634e487b7160e01b600052602260045260246000fd5b6020808252602d908201527f4552433732313a2063616c6c6572206973206e6f7420746f6b656e206f776e6560408201526c1c881bdc88185c1c1c9bdd9959609a1b606082015260800190565b634e487b7160e01b600052603260045260246000fd5b6000808335601e1984360301811261365757600080fd5b83018035915067ffffffffffffffff82111561367257600080fd5b602001915036819003821315610b3657600080fd5b601f821115610a7457600081815260208120601f850160051c810160208610156136ae5750805b601f850160051c820191505b818110156136cd578281556001016136ba565b505050505050565b815167ffffffffffffffff8111156136ef576136ef61332a565b613703816136fd84546135a9565b84613687565b602080601f83116001811461373857600084156137205750858301515b600019600386901b1c1916600185901b1785556136cd565b600085815260208120601f198616915b8281101561376757888601518255948401946001909101908401613748565b50858210156137855787850151600019600388901b60f8161c191681555b5050505050600190811b01905550565b60008083546137a3816135a9565b600182811680156137bb57600181146137d0576137ff565b60ff19841687528215158302870194506137ff565b8760005260208060002060005b858110156137f65781548a8201529084019082016137dd565b50505082870194505b50929695505050505050565b60208082526025908201527f4552433732313a207472616e736665722066726f6d20696e636f72726563742060408201526437bbb732b960d91b606082015260800190565b808202811582820484141761078657610786613530565b60008261388457634e487b7160e01b600052601260045260246000fd5b500490565b60208082526032908201527f4552433732313a207472616e7366657220746f206e6f6e20455243373231526560408201527131b2b4bb32b91034b6b83632b6b2b73a32b960711b606082015260800190565b600083516138ed818460208801613145565b835190830190613901818360208801613145565b01949350505050565b7f416363657373436f6e74726f6c3a206163636f756e7420000000000000000000815260008351613942816017850160208801613145565b7001034b99036b4b9b9b4b733903937b6329607d1b6017918401918201528351613973816028840160208801613145565b01602801949350505050565b6001600160a01b03858116825284166020820152604081018390526080606082018190526000906139b290830184613169565b9695505050505050565b6000602082840312156139ce57600080fd5b8151610fdc8161309a565b6000816139e8576139e8613530565b506000190190565b8181038181111561078657610786613530565b634e487b7160e01b600052603160045260246000fd5b8183823760009101908152919050565b634e487b7160e01b600052602160045260246000fdfea264697066735822122034490a07bdf8f072fa1ea2236fb7f1ea9521b4a5eb4d09e9b6f23973fec649ae64736f6c634300081100339f2df0fed2c77648de5860a4cc508cd0818c85b8b8a1ab4ceeef8d981c8956a6",
  "devdoc": {
    "author": "Think and Dev",
    "kind": "dev",
    "methods": {
      "approve(address,uint256)": {
        "details": "See {IERC721-approve}."
      },
      "balanceOf(address)": {
        "details": "See {IERC721-balanceOf}."
      },
      "claim((address,string,uint256,uint256),bytes)": {
        "details": "Function that users has to call to get an NFT by signature",
        "params": {
          "request": "request data signed to claim a nft",
          "signature": "signature necesary for claim"
        }
      },
      "constructor": {
        "params": {
          "_contractUri": "Contract Uri",
          "_primarySalePrice": "Primary Sale Price",
          "_primarySaleReceiverAddress": "Primary Sale Receiver Address",
          "cap_": "Max amount of NFTs to be minted. Cannot change",
          "defaultFeeNumerator": "Fees to be charged for royalties",
          "defaultRoyaltyReceiver": "NFT Royalties receiver for all the collection",
          "name": "NFT name",
          "symbol": "NFT symbol"
        }
      },
      "getApproved(uint256)": {
        "details": "See {IERC721-getApproved}."
      },
      "getRoleAdmin(bytes32)": {
        "details": "Returns the admin role that controls `role`. See {grantRole} and {revokeRole}. To change a role's admin, use {_setRoleAdmin}."
      },
      "getRoleMember(bytes32,uint256)": {
        "details": "Returns one of the accounts that have `role`. `index` must be a value between 0 and {getRoleMemberCount}, non-inclusive. Role bearers are not sorted in any particular way, and their ordering may change at any point. WARNING: When using {getRoleMember} and {getRoleMemberCount}, make sure you perform all queries on the same block. See the following https://forum.openzeppelin.com/t/iterating-over-elements-on-enumerableset-in-openzeppelin-contracts/2296[forum post] for more information."
      },
      "getRoleMemberCount(bytes32)": {
        "details": "Returns the number of accounts that have `role`. Can be used together with {getRoleMember} to enumerate all bearers of a role."
      },
      "grantRole(bytes32,address)": {
        "details": "Grants `role` to `account`. If `account` had not been already granted `role`, emits a {RoleGranted} event. Requirements: - the caller must have ``role``'s admin role. May emit a {RoleGranted} event."
      },
      "hasRole(bytes32,address)": {
        "details": "Returns `true` if `account` has been granted `role`."
      },
      "isApprovedForAll(address,address)": {
        "details": "See {IERC721-isApprovedForAll}."
      },
      "name()": {
        "details": "See {IERC721Metadata-name}."
      },
      "ownerOf(uint256)": {
        "details": "See {IERC721-ownerOf}."
      },
      "renounceRole(bytes32,address)": {
        "details": "Revokes `role` from the calling account. Roles are often managed via {grantRole} and {revokeRole}: this function's purpose is to provide a mechanism for accounts to lose their privileges if they are compromised (such as when a trusted device is misplaced). If the calling account had been revoked `role`, emits a {RoleRevoked} event. Requirements: - the caller must be `account`. May emit a {RoleRevoked} event."
      },
      "revokeRole(bytes32,address)": {
        "details": "Revokes `role` from `account`. If `account` had been granted `role`, emits a {RoleRevoked} event. Requirements: - the caller must have ``role``'s admin role. May emit a {RoleRevoked} event."
      },
      "royaltyInfo(uint256,uint256)": {
        "details": "Returns how much royalty is owed and to whom, based on a sale price that may be denominated in any unit of exchange. The royalty amount is denominated and should be paid in that same unit of exchange."
      },
      "safeLazyMint()": {
        "returns": {
          "_0": "id of the next NFT to be minted"
        }
      },
      "safeLazyMintBatch(uint256)": {
        "params": {
          "quantity": "amount of NFTs to be minted"
        },
        "returns": {
          "_0": "id of the next NFT to be minted"
        }
      },
      "safeMint(address,uint256,string)": {
        "returns": {
          "_0": "id of the new minted NFT"
        }
      },
      "safeTransferFrom(address,address,uint256)": {
        "details": "See {IERC721-safeTransferFrom}."
      },
      "safeTransferFrom(address,address,uint256,bytes)": {
        "details": "See {IERC721-safeTransferFrom}."
      },
      "setApprovalForAll(address,bool)": {
        "details": "See {IERC721-setApprovalForAll}."
      },
      "setContractURI(string)": {
        "params": {
          "_contractUri": "contractUri"
        }
      },
      "setDefaultRoyalty(address,uint96)": {
        "details": "Set royalty receiver and feenumerator to be charged",
        "params": {
          "feeNumerator": "fees to be charged to users on sales",
          "receiver": "Royalty beneficiary"
        }
      },
      "setPrimarySaleReceiverAddress(address,uint256)": {
        "details": "Set receiver and price to be charged",
        "params": {
          "price": "Primary sale price",
          "receiver": "Primary sale beneficiary"
        }
      },
      "symbol()": {
        "details": "See {IERC721Metadata-symbol}."
      },
      "tokenByIndex(uint256)": {
        "details": "See {IERC721Enumerable-tokenByIndex}."
      },
      "tokenOfOwnerByIndex(address,uint256)": {
        "details": "See {IERC721Enumerable-tokenOfOwnerByIndex}."
      },
      "tokenURI(uint256)": {
        "custom:notice": "The following function is override required by Solidity."
      },
      "totalSupply()": {
        "details": "See {IERC721Enumerable-totalSupply}."
      },
      "transferFrom(address,address,uint256)": {
        "details": "See {IERC721-transferFrom}."
      },
      "verify((address,string,uint256,uint256),bytes)": {
        "details": "Verifies that a mint request is signed by an authorized account."
      }
    },
    "stateVariables": {
      "CAP": {
        "details": "Max amount of NFTs to be minted"
      },
      "MINTER_ROLE": {
        "details": "Minter rol"
      },
      "_tokenIdCounter": {
        "details": "Private counter to make internal security checks"
      },
      "contractUri": {
        "details": "ContractUri"
      },
      "primarySalePrice": {
        "details": "Primary Sale Price"
      },
      "primarySaleReceiverAddress": {
        "details": "Primary Sale Receiver Address"
      }
    },
    "title": "Canis NFT contract",
    "version": 1
  },
  "userdoc": {
    "kind": "user",
    "methods": {
      "claim((address,string,uint256,uint256),bytes)": {
        "notice": "Claim an nft by signature"
      },
      "constructor": {
        "notice": "Init contract"
      },
      "contractURI()": {
        "notice": "openSea integration royalty. See https://docs.opensea.io/docs/contract-level-metadata"
      },
      "safeLazyMint()": {
        "notice": "Lazy Mint NFTs"
      },
      "safeLazyMintBatch(uint256)": {
        "notice": "Laxy Batch Mint NFTs"
      },
      "safeMint(address,uint256,string)": {
        "notice": "Mint NFT initialized in lazyMint"
      },
      "setContractURI(string)": {
        "notice": "Modify contractUri for NFT collection"
      },
      "setDefaultRoyalty(address,uint96)": {
        "notice": "Royalties config"
      },
      "setPrimarySaleReceiverAddress(address,uint256)": {
        "notice": "Primary sale config"
      }
    },
    "version": 1
  },
  "storageLayout": {
    "storage": [
      {
        "astId": 1747,
        "contract": "contracts/CanisNFT.sol:CanisNFT",
        "label": "_name",
        "offset": 0,
        "slot": "0",
        "type": "t_string_storage"
      },
      {
        "astId": 1749,
        "contract": "contracts/CanisNFT.sol:CanisNFT",
        "label": "_symbol",
        "offset": 0,
        "slot": "1",
        "type": "t_string_storage"
      },
      {
        "astId": 1753,
        "contract": "contracts/CanisNFT.sol:CanisNFT",
        "label": "_owners",
        "offset": 0,
        "slot": "2",
        "type": "t_mapping(t_uint256,t_address)"
      },
      {
        "astId": 1757,
        "contract": "contracts/CanisNFT.sol:CanisNFT",
        "label": "_balances",
        "offset": 0,
        "slot": "3",
        "type": "t_mapping(t_address,t_uint256)"
      },
      {
        "astId": 1761,
        "contract": "contracts/CanisNFT.sol:CanisNFT",
        "label": "_tokenApprovals",
        "offset": 0,
        "slot": "4",
        "type": "t_mapping(t_uint256,t_address)"
      },
      {
        "astId": 1767,
        "contract": "contracts/CanisNFT.sol:CanisNFT",
        "label": "_operatorApprovals",
        "offset": 0,
        "slot": "5",
        "type": "t_mapping(t_address,t_mapping(t_address,t_bool))"
      },
      {
        "astId": 3167,
        "contract": "contracts/CanisNFT.sol:CanisNFT",
        "label": "_tokenURIs",
        "offset": 0,
        "slot": "6",
        "type": "t_mapping(t_uint256,t_string_storage)"
      },
      {
        "astId": 2815,
        "contract": "contracts/CanisNFT.sol:CanisNFT",
        "label": "_ownedTokens",
        "offset": 0,
        "slot": "7",
        "type": "t_mapping(t_address,t_mapping(t_uint256,t_uint256))"
      },
      {
        "astId": 2819,
        "contract": "contracts/CanisNFT.sol:CanisNFT",
        "label": "_ownedTokensIndex",
        "offset": 0,
        "slot": "8",
        "type": "t_mapping(t_uint256,t_uint256)"
      },
      {
        "astId": 2822,
        "contract": "contracts/CanisNFT.sol:CanisNFT",
        "label": "_allTokens",
        "offset": 0,
        "slot": "9",
        "type": "t_array(t_uint256)dyn_storage"
      },
      {
        "astId": 2826,
        "contract": "contracts/CanisNFT.sol:CanisNFT",
        "label": "_allTokensIndex",
        "offset": 0,
        "slot": "10",
        "type": "t_mapping(t_uint256,t_uint256)"
      },
      {
        "astId": 3354,
        "contract": "contracts/CanisNFT.sol:CanisNFT",
        "label": "_defaultRoyaltyInfo",
        "offset": 0,
        "slot": "11",
        "type": "t_struct(RoyaltyInfo)3351_storage"
      },
      {
        "astId": 3359,
        "contract": "contracts/CanisNFT.sol:CanisNFT",
        "label": "_tokenRoyaltyInfo",
        "offset": 0,
        "slot": "12",
        "type": "t_mapping(t_uint256,t_struct(RoyaltyInfo)3351_storage)"
      },
      {
        "astId": 24,
        "contract": "contracts/CanisNFT.sol:CanisNFT",
        "label": "_roles",
        "offset": 0,
        "slot": "13",
        "type": "t_mapping(t_bytes32,t_struct(RoleData)19_storage)"
      },
      {
        "astId": 334,
        "contract": "contracts/CanisNFT.sol:CanisNFT",
        "label": "_roleMembers",
        "offset": 0,
        "slot": "14",
        "type": "t_mapping(t_bytes32,t_struct(AddressSet)5878_storage)"
      },
      {
        "astId": 6196,
        "contract": "contracts/CanisNFT.sol:CanisNFT",
        "label": "contractUri",
        "offset": 0,
        "slot": "15",
        "type": "t_string_storage"
      },
      {
        "astId": 6199,
        "contract": "contracts/CanisNFT.sol:CanisNFT",
        "label": "primarySalePrice",
        "offset": 0,
        "slot": "16",
        "type": "t_uint256"
      },
      {
        "astId": 6202,
        "contract": "contracts/CanisNFT.sol:CanisNFT",
        "label": "primarySaleReceiverAddress",
        "offset": 0,
        "slot": "17",
        "type": "t_address_payable"
      },
      {
        "astId": 6206,
        "contract": "contracts/CanisNFT.sol:CanisNFT",
        "label": "_tokenIdCounter",
        "offset": 0,
        "slot": "18",
        "type": "t_struct(Counter)3893_storage"
      },
      {
        "astId": 6221,
        "contract": "contracts/CanisNFT.sol:CanisNFT",
        "label": "availableToMint",
        "offset": 0,
        "slot": "19",
        "type": "t_mapping(t_uint256,t_bool)"
      }
    ],
    "types": {
      "t_address": {
        "encoding": "inplace",
        "label": "address",
        "numberOfBytes": "20"
      },
      "t_address_payable": {
        "encoding": "inplace",
        "label": "address payable",
        "numberOfBytes": "20"
      },
      "t_array(t_bytes32)dyn_storage": {
        "base": "t_bytes32",
        "encoding": "dynamic_array",
        "label": "bytes32[]",
        "numberOfBytes": "32"
      },
      "t_array(t_uint256)dyn_storage": {
        "base": "t_uint256",
        "encoding": "dynamic_array",
        "label": "uint256[]",
        "numberOfBytes": "32"
      },
      "t_bool": {
        "encoding": "inplace",
        "label": "bool",
        "numberOfBytes": "1"
      },
      "t_bytes32": {
        "encoding": "inplace",
        "label": "bytes32",
        "numberOfBytes": "32"
      },
      "t_mapping(t_address,t_bool)": {
        "encoding": "mapping",
        "key": "t_address",
        "label": "mapping(address => bool)",
        "numberOfBytes": "32",
        "value": "t_bool"
      },
      "t_mapping(t_address,t_mapping(t_address,t_bool))": {
        "encoding": "mapping",
        "key": "t_address",
        "label": "mapping(address => mapping(address => bool))",
        "numberOfBytes": "32",
        "value": "t_mapping(t_address,t_bool)"
      },
      "t_mapping(t_address,t_mapping(t_uint256,t_uint256))": {
        "encoding": "mapping",
        "key": "t_address",
        "label": "mapping(address => mapping(uint256 => uint256))",
        "numberOfBytes": "32",
        "value": "t_mapping(t_uint256,t_uint256)"
      },
      "t_mapping(t_address,t_uint256)": {
        "encoding": "mapping",
        "key": "t_address",
        "label": "mapping(address => uint256)",
        "numberOfBytes": "32",
        "value": "t_uint256"
      },
      "t_mapping(t_bytes32,t_struct(AddressSet)5878_storage)": {
        "encoding": "mapping",
        "key": "t_bytes32",
        "label": "mapping(bytes32 => struct EnumerableSet.AddressSet)",
        "numberOfBytes": "32",
        "value": "t_struct(AddressSet)5878_storage"
      },
      "t_mapping(t_bytes32,t_struct(RoleData)19_storage)": {
        "encoding": "mapping",
        "key": "t_bytes32",
        "label": "mapping(bytes32 => struct AccessControl.RoleData)",
        "numberOfBytes": "32",
        "value": "t_struct(RoleData)19_storage"
      },
      "t_mapping(t_bytes32,t_uint256)": {
        "encoding": "mapping",
        "key": "t_bytes32",
        "label": "mapping(bytes32 => uint256)",
        "numberOfBytes": "32",
        "value": "t_uint256"
      },
      "t_mapping(t_uint256,t_address)": {
        "encoding": "mapping",
        "key": "t_uint256",
        "label": "mapping(uint256 => address)",
        "numberOfBytes": "32",
        "value": "t_address"
      },
      "t_mapping(t_uint256,t_bool)": {
        "encoding": "mapping",
        "key": "t_uint256",
        "label": "mapping(uint256 => bool)",
        "numberOfBytes": "32",
        "value": "t_bool"
      },
      "t_mapping(t_uint256,t_string_storage)": {
        "encoding": "mapping",
        "key": "t_uint256",
        "label": "mapping(uint256 => string)",
        "numberOfBytes": "32",
        "value": "t_string_storage"
      },
      "t_mapping(t_uint256,t_struct(RoyaltyInfo)3351_storage)": {
        "encoding": "mapping",
        "key": "t_uint256",
        "label": "mapping(uint256 => struct ERC2981.RoyaltyInfo)",
        "numberOfBytes": "32",
        "value": "t_struct(RoyaltyInfo)3351_storage"
      },
      "t_mapping(t_uint256,t_uint256)": {
        "encoding": "mapping",
        "key": "t_uint256",
        "label": "mapping(uint256 => uint256)",
        "numberOfBytes": "32",
        "value": "t_uint256"
      },
      "t_string_storage": {
        "encoding": "bytes",
        "label": "string",
        "numberOfBytes": "32"
      },
      "t_struct(AddressSet)5878_storage": {
        "encoding": "inplace",
        "label": "struct EnumerableSet.AddressSet",
        "members": [
          {
            "astId": 5877,
            "contract": "contracts/CanisNFT.sol:CanisNFT",
            "label": "_inner",
            "offset": 0,
            "slot": "0",
            "type": "t_struct(Set)5563_storage"
          }
        ],
        "numberOfBytes": "64"
      },
      "t_struct(Counter)3893_storage": {
        "encoding": "inplace",
        "label": "struct Counters.Counter",
        "members": [
          {
            "astId": 3892,
            "contract": "contracts/CanisNFT.sol:CanisNFT",
            "label": "_value",
            "offset": 0,
            "slot": "0",
            "type": "t_uint256"
          }
        ],
        "numberOfBytes": "32"
      },
      "t_struct(RoleData)19_storage": {
        "encoding": "inplace",
        "label": "struct AccessControl.RoleData",
        "members": [
          {
            "astId": 16,
            "contract": "contracts/CanisNFT.sol:CanisNFT",
            "label": "members",
            "offset": 0,
            "slot": "0",
            "type": "t_mapping(t_address,t_bool)"
          },
          {
            "astId": 18,
            "contract": "contracts/CanisNFT.sol:CanisNFT",
            "label": "adminRole",
            "offset": 0,
            "slot": "1",
            "type": "t_bytes32"
          }
        ],
        "numberOfBytes": "64"
      },
      "t_struct(RoyaltyInfo)3351_storage": {
        "encoding": "inplace",
        "label": "struct ERC2981.RoyaltyInfo",
        "members": [
          {
            "astId": 3348,
            "contract": "contracts/CanisNFT.sol:CanisNFT",
            "label": "receiver",
            "offset": 0,
            "slot": "0",
            "type": "t_address"
          },
          {
            "astId": 3350,
            "contract": "contracts/CanisNFT.sol:CanisNFT",
            "label": "royaltyFraction",
            "offset": 20,
            "slot": "0",
            "type": "t_uint96"
          }
        ],
        "numberOfBytes": "32"
      },
      "t_struct(Set)5563_storage": {
        "encoding": "inplace",
        "label": "struct EnumerableSet.Set",
        "members": [
          {
            "astId": 5558,
            "contract": "contracts/CanisNFT.sol:CanisNFT",
            "label": "_values",
            "offset": 0,
            "slot": "0",
            "type": "t_array(t_bytes32)dyn_storage"
          },
          {
            "astId": 5562,
            "contract": "contracts/CanisNFT.sol:CanisNFT",
            "label": "_indexes",
            "offset": 0,
            "slot": "1",
            "type": "t_mapping(t_bytes32,t_uint256)"
          }
        ],
        "numberOfBytes": "64"
      },
      "t_uint256": {
        "encoding": "inplace",
        "label": "uint256",
        "numberOfBytes": "32"
      },
      "t_uint96": {
        "encoding": "inplace",
        "label": "uint96",
        "numberOfBytes": "12"
      }
    }
  }
}