{
  "address": "0x2eAe61fA4FFf25d50E6d92bB8D350e9162537580",
  "abi": [
    {
      "inputs": [
        {
          "internalType": "uint256",
          "name": "cap_",
          "type": "uint256"
        },
        {
          "internalType": "string",
          "name": "name",
          "type": "string"
        },
        {
          "internalType": "string",
          "name": "symbol",
          "type": "string"
        },
        {
          "internalType": "address",
          "name": "defaultRoyaltyReceiver",
          "type": "address"
        },
        {
          "internalType": "uint96",
          "name": "defaultFeeNumerator",
          "type": "uint96"
        },
        {
          "internalType": "uint256",
          "name": "_startGiftingIndex",
          "type": "uint256"
        },
        {
          "internalType": "uint256",
          "name": "_endGiftingIndex",
          "type": "uint256"
        },
        {
          "internalType": "string",
          "name": "_contractUri",
          "type": "string"
        }
      ],
      "stateMutability": "nonpayable",
      "type": "constructor"
    },
    {
      "anonymous": false,
      "inputs": [
        {
          "indexed": true,
          "internalType": "address",
          "name": "owner",
          "type": "address"
        },
        {
          "indexed": true,
          "internalType": "address",
          "name": "approved",
          "type": "address"
        },
        {
          "indexed": true,
          "internalType": "uint256",
          "name": "tokenId",
          "type": "uint256"
        }
      ],
      "name": "Approval",
      "type": "event"
    },
    {
      "anonymous": false,
      "inputs": [
        {
          "indexed": true,
          "internalType": "address",
          "name": "owner",
          "type": "address"
        },
        {
          "indexed": true,
          "internalType": "address",
          "name": "operator",
          "type": "address"
        },
        {
          "indexed": false,
          "internalType": "bool",
          "name": "approved",
          "type": "bool"
        }
      ],
      "name": "ApprovalForAll",
      "type": "event"
    },
    {
      "anonymous": false,
      "inputs": [
        {
          "indexed": true,
          "internalType": "address",
          "name": "to",
          "type": "address"
        },
        {
          "indexed": false,
          "internalType": "uint256",
          "name": "tokenId",
          "type": "uint256"
        }
      ],
      "name": "Claimed",
      "type": "event"
    },
    {
      "anonymous": false,
      "inputs": [
        {
          "indexed": true,
          "internalType": "string",
          "name": "contractUri",
          "type": "string"
        }
      ],
      "name": "ContractURIUpdated",
      "type": "event"
    },
    {
      "anonymous": false,
      "inputs": [
        {
          "indexed": true,
          "internalType": "address",
          "name": "royaltyReceiver",
          "type": "address"
        },
        {
          "indexed": false,
          "internalType": "uint96",
          "name": "feeNumerator",
          "type": "uint96"
        }
      ],
      "name": "DefaultRoyaltyUpdated",
      "type": "event"
    },
    {
      "anonymous": false,
      "inputs": [
        {
          "indexed": true,
          "internalType": "address",
          "name": "to",
          "type": "address"
        },
        {
          "indexed": false,
          "internalType": "uint256",
          "name": "tokenId",
          "type": "uint256"
        }
      ],
      "name": "Gifted",
      "type": "event"
    },
    {
      "anonymous": false,
      "inputs": [
        {
          "indexed": false,
          "internalType": "uint256",
          "name": "startGiftingIndex",
          "type": "uint256"
        },
        {
          "indexed": false,
          "internalType": "uint256",
          "name": "endGiftingIndex",
          "type": "uint256"
        }
      ],
      "name": "GiftingIndexesUpdated",
      "type": "event"
    },
    {
      "anonymous": false,
      "inputs": [
        {
          "indexed": false,
          "internalType": "uint256",
          "name": "cap",
          "type": "uint256"
        },
        {
          "indexed": false,
          "internalType": "string",
          "name": "name",
          "type": "string"
        },
        {
          "indexed": false,
          "internalType": "string",
          "name": "symbol",
          "type": "string"
        },
        {
          "indexed": false,
          "internalType": "address",
          "name": "defaultRoyaltyReceiver",
          "type": "address"
        },
        {
          "indexed": false,
          "internalType": "uint96",
          "name": "defaultFeeNumerator",
          "type": "uint96"
        },
        {
          "indexed": false,
          "internalType": "uint256",
          "name": "startGiftingIndex",
          "type": "uint256"
        },
        {
          "indexed": false,
          "internalType": "uint256",
          "name": "endGiftingIndex",
          "type": "uint256"
        },
        {
          "indexed": false,
          "internalType": "string",
          "name": "contractUri",
          "type": "string"
        }
      ],
      "name": "Initialized",
      "type": "event"
    },
    {
      "anonymous": false,
      "inputs": [
        {
          "indexed": false,
          "internalType": "uint256",
          "name": "oldMax",
          "type": "uint256"
        },
        {
          "indexed": false,
          "internalType": "uint256",
          "name": "newMax",
          "type": "uint256"
        }
      ],
      "name": "MaxClaimUpdated",
      "type": "event"
    },
    {
      "anonymous": false,
      "inputs": [
        {
          "indexed": true,
          "internalType": "bytes32",
          "name": "role",
          "type": "bytes32"
        },
        {
          "indexed": true,
          "internalType": "bytes32",
          "name": "previousAdminRole",
          "type": "bytes32"
        },
        {
          "indexed": true,
          "internalType": "bytes32",
          "name": "newAdminRole",
          "type": "bytes32"
        }
      ],
      "name": "RoleAdminChanged",
      "type": "event"
    },
    {
      "anonymous": false,
      "inputs": [
        {
          "indexed": true,
          "internalType": "bytes32",
          "name": "role",
          "type": "bytes32"
        },
        {
          "indexed": true,
          "internalType": "address",
          "name": "account",
          "type": "address"
        },
        {
          "indexed": true,
          "internalType": "address",
          "name": "sender",
          "type": "address"
        }
      ],
      "name": "RoleGranted",
      "type": "event"
    },
    {
      "anonymous": false,
      "inputs": [
        {
          "indexed": true,
          "internalType": "bytes32",
          "name": "role",
          "type": "bytes32"
        },
        {
          "indexed": true,
          "internalType": "address",
          "name": "account",
          "type": "address"
        },
        {
          "indexed": true,
          "internalType": "address",
          "name": "sender",
          "type": "address"
        }
      ],
      "name": "RoleRevoked",
      "type": "event"
    },
    {
      "anonymous": false,
      "inputs": [
        {
          "indexed": true,
          "internalType": "uint256",
          "name": "tokenId",
          "type": "uint256"
        }
      ],
      "name": "TokenRoyaltyReseted",
      "type": "event"
    },
    {
      "anonymous": false,
      "inputs": [
        {
          "indexed": true,
          "internalType": "uint256",
          "name": "tokenId",
          "type": "uint256"
        },
        {
          "indexed": true,
          "internalType": "address",
          "name": "receiver",
          "type": "address"
        },
        {
          "indexed": false,
          "internalType": "uint96",
          "name": "feeNumerator",
          "type": "uint96"
        }
      ],
      "name": "TokenRoyaltyUpdated",
      "type": "event"
    },
    {
      "anonymous": false,
      "inputs": [
        {
          "indexed": true,
          "internalType": "address",
          "name": "from",
          "type": "address"
        },
        {
          "indexed": true,
          "internalType": "address",
          "name": "to",
          "type": "address"
        },
        {
          "indexed": true,
          "internalType": "uint256",
          "name": "tokenId",
          "type": "uint256"
        }
      ],
      "name": "Transfer",
      "type": "event"
    },
    {
      "inputs": [],
      "name": "CAP",
      "outputs": [
        {
          "internalType": "uint256",
          "name": "",
          "type": "uint256"
        }
      ],
      "stateMutability": "view",
      "type": "function"
    },
    {
      "inputs": [],
      "name": "DEFAULT_ADMIN_ROLE",
      "outputs": [
        {
          "internalType": "bytes32",
          "name": "",
          "type": "bytes32"
        }
      ],
      "stateMutability": "view",
      "type": "function"
    },
    {
      "inputs": [],
      "name": "MINTER_ROLE",
      "outputs": [
        {
          "internalType": "bytes32",
          "name": "",
          "type": "bytes32"
        }
      ],
      "stateMutability": "view",
      "type": "function"
    },
    {
      "inputs": [
        {
          "internalType": "address",
          "name": "to",
          "type": "address"
        },
        {
          "internalType": "uint256",
          "name": "tokenId",
          "type": "uint256"
        }
      ],
      "name": "approve",
      "outputs": [],
      "stateMutability": "nonpayable",
      "type": "function"
    },
    {
      "inputs": [
        {
          "internalType": "address",
          "name": "owner",
          "type": "address"
        }
      ],
      "name": "balanceOf",
      "outputs": [
        {
          "internalType": "uint256",
          "name": "",
          "type": "uint256"
        }
      ],
      "stateMutability": "view",
      "type": "function"
    },
    {
      "inputs": [
        {
          "components": [
            {
              "internalType": "address",
              "name": "to",
              "type": "address"
            },
            {
              "internalType": "string",
              "name": "uri",
              "type": "string"
            },
            {
              "internalType": "uint256",
              "name": "tokenId",
              "type": "uint256"
            },
            {
              "internalType": "uint256",
              "name": "chainId",
              "type": "uint256"
            }
          ],
          "internalType": "struct ISignatureMintERC721.MintRequest",
          "name": "request",
          "type": "tuple"
        },
        {
          "internalType": "bytes",
          "name": "signature",
          "type": "bytes"
        }
      ],
      "name": "claim",
      "outputs": [
        {
          "internalType": "uint256",
          "name": "",
          "type": "uint256"
        }
      ],
      "stateMutability": "payable",
      "type": "function"
    },
    {
      "inputs": [],
      "name": "contractURI",
      "outputs": [
        {
          "internalType": "string",
          "name": "",
          "type": "string"
        }
      ],
      "stateMutability": "view",
      "type": "function"
    },
    {
      "inputs": [],
      "name": "contractUri",
      "outputs": [
        {
          "internalType": "string",
          "name": "",
          "type": "string"
        }
      ],
      "stateMutability": "view",
      "type": "function"
    },
    {
      "inputs": [],
      "name": "endGiftingIndex",
      "outputs": [
        {
          "internalType": "uint256",
          "name": "",
          "type": "uint256"
        }
      ],
      "stateMutability": "view",
      "type": "function"
    },
    {
      "inputs": [
        {
          "internalType": "uint256",
          "name": "tokenId",
          "type": "uint256"
        }
      ],
      "name": "getApproved",
      "outputs": [
        {
          "internalType": "address",
          "name": "",
          "type": "address"
        }
      ],
      "stateMutability": "view",
      "type": "function"
    },
    {
      "inputs": [
        {
          "internalType": "bytes32",
          "name": "role",
          "type": "bytes32"
        }
      ],
      "name": "getRoleAdmin",
      "outputs": [
        {
          "internalType": "bytes32",
          "name": "",
          "type": "bytes32"
        }
      ],
      "stateMutability": "view",
      "type": "function"
    },
    {
      "inputs": [
        {
          "internalType": "address",
          "name": "to",
          "type": "address"
        }
      ],
      "name": "gift",
      "outputs": [],
      "stateMutability": "nonpayable",
      "type": "function"
    },
    {
      "inputs": [
        {
          "internalType": "bytes32",
          "name": "role",
          "type": "bytes32"
        },
        {
          "internalType": "address",
          "name": "account",
          "type": "address"
        }
      ],
      "name": "grantRole",
      "outputs": [],
      "stateMutability": "nonpayable",
      "type": "function"
    },
    {
      "inputs": [
        {
          "internalType": "bytes32",
          "name": "role",
          "type": "bytes32"
        },
        {
          "internalType": "address",
          "name": "account",
          "type": "address"
        }
      ],
      "name": "hasRole",
      "outputs": [
        {
          "internalType": "bool",
          "name": "",
          "type": "bool"
        }
      ],
      "stateMutability": "view",
      "type": "function"
    },
    {
      "inputs": [
        {
          "internalType": "address",
          "name": "owner",
          "type": "address"
        },
        {
          "internalType": "address",
          "name": "operator",
          "type": "address"
        }
      ],
      "name": "isApprovedForAll",
      "outputs": [
        {
          "internalType": "bool",
          "name": "",
          "type": "bool"
        }
      ],
      "stateMutability": "view",
      "type": "function"
    },
    {
      "inputs": [],
      "name": "maxClaim",
      "outputs": [
        {
          "internalType": "uint256",
          "name": "",
          "type": "uint256"
        }
      ],
      "stateMutability": "view",
      "type": "function"
    },
    {
      "inputs": [],
      "name": "name",
      "outputs": [
        {
          "internalType": "string",
          "name": "",
          "type": "string"
        }
      ],
      "stateMutability": "view",
      "type": "function"
    },
    {
      "inputs": [
        {
          "internalType": "uint256",
          "name": "tokenId",
          "type": "uint256"
        }
      ],
      "name": "ownerOf",
      "outputs": [
        {
          "internalType": "address",
          "name": "",
          "type": "address"
        }
      ],
      "stateMutability": "view",
      "type": "function"
    },
    {
      "inputs": [
        {
          "internalType": "bytes32",
          "name": "role",
          "type": "bytes32"
        },
        {
          "internalType": "address",
          "name": "account",
          "type": "address"
        }
      ],
      "name": "renounceRole",
      "outputs": [],
      "stateMutability": "nonpayable",
      "type": "function"
    },
    {
      "inputs": [
        {
          "internalType": "uint256",
          "name": "tokenId",
          "type": "uint256"
        }
      ],
      "name": "resetTokenRoyalty",
      "outputs": [],
      "stateMutability": "nonpayable",
      "type": "function"
    },
    {
      "inputs": [
        {
          "internalType": "bytes32",
          "name": "role",
          "type": "bytes32"
        },
        {
          "internalType": "address",
          "name": "account",
          "type": "address"
        }
      ],
      "name": "revokeRole",
      "outputs": [],
      "stateMutability": "nonpayable",
      "type": "function"
    },
    {
      "inputs": [
        {
          "internalType": "uint256",
          "name": "tokenId",
          "type": "uint256"
        },
        {
          "internalType": "uint256",
          "name": "salePrice",
          "type": "uint256"
        }
      ],
      "name": "royaltyInfo",
      "outputs": [
        {
          "internalType": "address",
          "name": "receiver",
          "type": "address"
        },
        {
          "internalType": "uint256",
          "name": "royaltyAmount",
          "type": "uint256"
        }
      ],
      "stateMutability": "view",
      "type": "function"
    },
    {
      "inputs": [],
      "name": "safeMint",
      "outputs": [
        {
          "internalType": "uint256",
          "name": "",
          "type": "uint256"
        }
      ],
      "stateMutability": "nonpayable",
      "type": "function"
    },
    {
      "inputs": [
        {
          "internalType": "uint256",
          "name": "quantity",
          "type": "uint256"
        }
      ],
      "name": "safeMintBatch",
      "outputs": [
        {
          "internalType": "uint256",
          "name": "",
          "type": "uint256"
        }
      ],
      "stateMutability": "nonpayable",
      "type": "function"
    },
    {
      "inputs": [
        {
          "internalType": "address",
          "name": "from",
          "type": "address"
        },
        {
          "internalType": "address",
          "name": "to",
          "type": "address"
        },
        {
          "internalType": "uint256",
          "name": "tokenId",
          "type": "uint256"
        }
      ],
      "name": "safeTransferFrom",
      "outputs": [],
      "stateMutability": "nonpayable",
      "type": "function"
    },
    {
      "inputs": [
        {
          "internalType": "address",
          "name": "from",
          "type": "address"
        },
        {
          "internalType": "address",
          "name": "to",
          "type": "address"
        },
        {
          "internalType": "uint256",
          "name": "tokenId",
          "type": "uint256"
        },
        {
          "internalType": "bytes",
          "name": "data",
          "type": "bytes"
        }
      ],
      "name": "safeTransferFrom",
      "outputs": [],
      "stateMutability": "nonpayable",
      "type": "function"
    },
    {
      "inputs": [
        {
          "internalType": "address",
          "name": "operator",
          "type": "address"
        },
        {
          "internalType": "bool",
          "name": "approved",
          "type": "bool"
        }
      ],
      "name": "setApprovalForAll",
      "outputs": [],
      "stateMutability": "nonpayable",
      "type": "function"
    },
    {
      "inputs": [
        {
          "internalType": "string",
          "name": "_contractUri",
          "type": "string"
        }
      ],
      "name": "setContractURI",
      "outputs": [],
      "stateMutability": "nonpayable",
      "type": "function"
    },
    {
      "inputs": [
        {
          "internalType": "address",
          "name": "receiver",
          "type": "address"
        },
        {
          "internalType": "uint96",
          "name": "feeNumerator",
          "type": "uint96"
        }
      ],
      "name": "setDefaultRoyalty",
      "outputs": [],
      "stateMutability": "nonpayable",
      "type": "function"
    },
    {
      "inputs": [
        {
          "internalType": "uint256",
          "name": "startIndex",
          "type": "uint256"
        },
        {
          "internalType": "uint256",
          "name": "endIndex",
          "type": "uint256"
        }
      ],
      "name": "setGiftingIndexes",
      "outputs": [],
      "stateMutability": "nonpayable",
      "type": "function"
    },
    {
      "inputs": [
        {
          "internalType": "uint256",
          "name": "max",
          "type": "uint256"
        }
      ],
      "name": "setMaxClaim",
      "outputs": [],
      "stateMutability": "nonpayable",
      "type": "function"
    },
    {
      "inputs": [
        {
          "internalType": "uint256",
          "name": "tokenId",
          "type": "uint256"
        },
        {
          "internalType": "address",
          "name": "receiver",
          "type": "address"
        },
        {
          "internalType": "uint96",
          "name": "feeNumerator",
          "type": "uint96"
        }
      ],
      "name": "setTokenRoyalty",
      "outputs": [],
      "stateMutability": "nonpayable",
      "type": "function"
    },
    {
      "inputs": [
        {
          "internalType": "uint256",
          "name": "tokenId",
          "type": "uint256"
        },
        {
          "internalType": "string",
          "name": "_tokenURI",
          "type": "string"
        }
      ],
      "name": "setTokenURI",
      "outputs": [],
      "stateMutability": "nonpayable",
      "type": "function"
    },
    {
      "inputs": [
        {
          "internalType": "uint256",
          "name": "startTokenId",
          "type": "uint256"
        },
        {
          "internalType": "string[]",
          "name": "tokenURIs",
          "type": "string[]"
        }
      ],
      "name": "setTokenURIBatch",
      "outputs": [],
      "stateMutability": "nonpayable",
      "type": "function"
    },
    {
      "inputs": [],
      "name": "startGiftingIndex",
      "outputs": [
        {
          "internalType": "uint256",
          "name": "",
          "type": "uint256"
        }
      ],
      "stateMutability": "view",
      "type": "function"
    },
    {
      "inputs": [
        {
          "internalType": "bytes4",
          "name": "interfaceId",
          "type": "bytes4"
        }
      ],
      "name": "supportsInterface",
      "outputs": [
        {
          "internalType": "bool",
          "name": "",
          "type": "bool"
        }
      ],
      "stateMutability": "view",
      "type": "function"
    },
    {
      "inputs": [],
      "name": "symbol",
      "outputs": [
        {
          "internalType": "string",
          "name": "",
          "type": "string"
        }
      ],
      "stateMutability": "view",
      "type": "function"
    },
    {
      "inputs": [
        {
          "internalType": "uint256",
          "name": "tokenId",
          "type": "uint256"
        }
      ],
      "name": "tokenURI",
      "outputs": [
        {
          "internalType": "string",
          "name": "",
          "type": "string"
        }
      ],
      "stateMutability": "view",
      "type": "function"
    },
    {
      "inputs": [
        {
          "internalType": "address",
          "name": "from",
          "type": "address"
        },
        {
          "internalType": "address",
          "name": "to",
          "type": "address"
        },
        {
          "internalType": "uint256",
          "name": "tokenId",
          "type": "uint256"
        }
      ],
      "name": "transferFrom",
      "outputs": [],
      "stateMutability": "nonpayable",
      "type": "function"
    },
    {
      "inputs": [
        {
          "components": [
            {
              "internalType": "address",
              "name": "to",
              "type": "address"
            },
            {
              "internalType": "string",
              "name": "uri",
              "type": "string"
            },
            {
              "internalType": "uint256",
              "name": "tokenId",
              "type": "uint256"
            },
            {
              "internalType": "uint256",
              "name": "chainId",
              "type": "uint256"
            }
          ],
          "internalType": "struct ISignatureMintERC721.MintRequest",
          "name": "_req",
          "type": "tuple"
        },
        {
          "internalType": "bytes",
          "name": "_signature",
          "type": "bytes"
        }
      ],
      "name": "verify",
      "outputs": [
        {
          "internalType": "bool",
          "name": "success",
          "type": "bool"
        },
        {
          "internalType": "address",
          "name": "signer",
          "type": "address"
        }
      ],
      "stateMutability": "view",
      "type": "function"
    }
  ],
  "transactionHash": "0x66581230c87991c866ec0b3b5350c453685d47ba47d6fe1d5f238bd204e9bce3",
  "args": [
    5706,
    "CanisNFT",
    "CNFT",
    "0xf0A9F3F286Dc697220FC7f36B0d22786fb24b890",
    1000,
    1,
    150,
    ""
  ],
  "numDeployments": 1,
  "solcInputHash": "234d3bf663d8bb9878ec4f623c26991d",
  "bytecode": "0x60a06040526000600c553480156200001657600080fd5b506040516200430e3803806200430e83398101604081905262000039916200050d565b8651879087906200005290600090602085019062000358565b5080516200006890600190602084019062000358565b50505060008811620000c15760405162461bcd60e51b815260206004820152601360248201527f4e46544361707065643a2063617020697320300000000000000000000000000060448201526064015b60405180910390fd5b6080889052600a839055600b829055600f8390558051620000ea90600d90602084019062000358565b50620001028585620001a360201b620015bc1760201c565b6200011b6000335b620002a460201b620016c31760201c565b620001477f9f2df0fed2c77648de5860a4cc508cd0818c85b8b8a1ab4ceeef8d981c8956a6336200010a565b7f9c83d62f1383b2fc7751629bae669029d8f5c66a7b0c68d74dee81c03a4aee5a60805188888888600a54600b54600d6040516200018d9897969594939291906200064d565b60405180910390a1505050505050505062000768565b6127106001600160601b0382161115620002135760405162461bcd60e51b815260206004820152602a60248201527f455243323938313a20726f79616c7479206665652077696c6c206578636565646044820152692073616c65507269636560b01b6064820152608401620000b8565b6001600160a01b0382166200026b5760405162461bcd60e51b815260206004820152601960248201527f455243323938313a20696e76616c6964207265636569766572000000000000006044820152606401620000b8565b604080518082019091526001600160a01b039092168083526001600160601b039091166020909201829052600160a01b90910217600755565b620002b08282620002b4565b5050565b60008281526009602090815260408083206001600160a01b038516845290915290205460ff16620002b05760008281526009602090815260408083206001600160a01b03851684529091529020805460ff19166001179055620003143390565b6001600160a01b0316816001600160a01b0316837f2f8788117e7eff1d82e926ec794901d17c78024a50270940304540a733656f0d60405160405180910390a45050565b828054620003669062000610565b90600052602060002090601f0160209004810192826200038a5760008555620003d5565b82601f10620003a557805160ff1916838001178555620003d5565b82800160010185558215620003d5579182015b82811115620003d5578251825591602001919060010190620003b8565b50620003e3929150620003e7565b5090565b5b80821115620003e35760008155600101620003e8565b634e487b7160e01b600052604160045260246000fd5b60005b838110156200043157818101518382015260200162000417565b8381111562000441576000848401525b50505050565b600082601f8301126200045957600080fd5b81516001600160401b0380821115620004765762000476620003fe565b604051601f8301601f19908116603f01168101908282118183101715620004a157620004a1620003fe565b81604052838152866020858801011115620004bb57600080fd5b620004ce84602083016020890162000414565b9695505050505050565b80516001600160a01b0381168114620004f057600080fd5b919050565b80516001600160601b0381168114620004f057600080fd5b600080600080600080600080610100898b0312156200052b57600080fd5b885160208a01519098506001600160401b03808211156200054b57600080fd5b620005598c838d0162000447565b985060408b01519150808211156200057057600080fd5b6200057e8c838d0162000447565b97506200058e60608c01620004d8565b96506200059e60808c01620004f5565b955060a08b0151945060c08b0151935060e08b0151915080821115620005c357600080fd5b50620005d28b828c0162000447565b9150509295985092959890939650565b60008151808452620005fc81602086016020860162000414565b601f01601f19169290920160200192915050565b600181811c908216806200062557607f821691505b602082108114156200064757634e487b7160e01b600052602260045260246000fd5b50919050565b60006101008a8352602081818501526200066a8285018c620005e2565b9150838203604085015262000680828b620005e2565b6001600160a01b038a1660608601526001600160601b038916608086015260a0850188905260c0850187905284810360e08601528554909250600090600181811c9082811680620006d257607f831692505b858310811415620006f157634e487b7160e01b85526022600452602485fd5b828752602087019650808015620007115760018114620007235762000750565b60ff1985168852868801955062000750565b60008b81526020902060005b858110156200074a5781548a8201529084019088016200072f565b89019650505b50505050508093505050509998505050505050505050565b608051613b59620007b56000396000818161082a01528181610c0801528181610daf01528181610f140152818161103a015281816111e401528181611f0b01526122f30152613b596000f3fe6080604052600436106102bb5760003560e01c80638d6430011161016e578063c87b56dd116100cb578063d6dd047a1161007f578063e985e9c511610064578063e985e9c5146107cf578063ec81b48314610818578063ed7619a91461084c57600080fd5b8063d6dd047a1461077b578063e8a3d485146107ba57600080fd5b8063d4938db3116100b0578063d4938db314610711578063d539139314610727578063d547741f1461075b57600080fd5b8063c87b56dd146106d1578063cbfc4bce146106f157600080fd5b8063a217fddf11610122578063b88d4fde11610107578063b88d4fde1461067c578063c0e24d5e1461069c578063c285c0b0146106b157600080fd5b8063a217fddf14610647578063a22cb4651461065c57600080fd5b806391d148541161015357806391d14854146105cc578063938e3d7b1461061257806395d89b411461063257600080fd5b80638d64300114610599578063904f06ce146105ac57600080fd5b80632f2ff15d1161021c5780636352211e116101d057806370a08231116101b557806370a08231146105435780637ce9c519146105635780638a616bc01461057957600080fd5b80636352211e1461050e5780636871ee401461052e57600080fd5b806336a6b8281161020157806336a6b828146104ae57806342842e0e146104ce5780635944c753146104ee57600080fd5b80632f2ff15d1461046e57806336568abe1461048e57600080fd5b8063162094c41161027357806323b872dd1161025857806323b872dd146103d1578063248a9ca3146103f15780632a55205a1461042f57600080fd5b8063162094c4146103915780631733c11a146103b157600080fd5b806306fdde03116102a457806306fdde0314610317578063081812fc14610339578063095ea7b31461037157600080fd5b806301ffc9a7146102c057806304634d8d146102f5575b600080fd5b3480156102cc57600080fd5b506102e06102db366004613275565b610862565b60405190151581526020015b60405180910390f35b34801561030157600080fd5b506103156103103660046132ca565b610873565b005b34801561032357600080fd5b5061032c6108da565b6040516102ec9190613355565b34801561034557600080fd5b50610359610354366004613368565b61096c565b6040516001600160a01b0390911681526020016102ec565b34801561037d57600080fd5b5061031561038c366004613381565b610993565b34801561039d57600080fd5b506103156103ac36600461346a565b610aca565b3480156103bd57600080fd5b506103156103cc3660046134b1565b610adf565b3480156103dd57600080fd5b506103156103ec366004613580565b610b8c565b3480156103fd57600080fd5b5061042161040c366004613368565b60009081526009602052604090206001015490565b6040519081526020016102ec565b34801561043b57600080fd5b5061044f61044a3660046135bc565b610c03565b604080516001600160a01b0390931683526020830191909152016102ec565b34801561047a57600080fd5b506103156104893660046135de565b610c96565b34801561049a57600080fd5b506103156104a93660046135de565b610cbb565b3480156104ba57600080fd5b506104216104c9366004613368565b610d47565b3480156104da57600080fd5b506103156104e9366004613580565b610d87565b3480156104fa57600080fd5b50610315610509366004613601565b610da2565b34801561051a57600080fd5b50610359610529366004613368565b610e86565b34801561053a57600080fd5b50610421610eeb565b34801561054f57600080fd5b5061042161055e36600461363d565b610f93565b34801561056f57600080fd5b50610421600b5481565b34801561058557600080fd5b50610315610594366004613368565b61102d565b6104216105a7366004613658565b6110f0565b3480156105b857600080fd5b506103156105c73660046135bc565b6111b0565b3480156105d857600080fd5b506102e06105e73660046135de565b60009182526009602090815260408084206001600160a01b0393909316845291905290205460ff1690565b34801561061e57600080fd5b5061031561062d3660046136f7565b6112a3565b34801561063e57600080fd5b5061032c611305565b34801561065357600080fd5b50610421600081565b34801561066857600080fd5b5061031561067736600461372c565b611314565b34801561068857600080fd5b50610315610697366004613768565b61131f565b3480156106a857600080fd5b5061032c611397565b3480156106bd57600080fd5b506103156106cc366004613368565b611425565b3480156106dd57600080fd5b5061032c6106ec366004613368565b6114e9565b3480156106fd57600080fd5b5061031561070c36600461363d565b6114f4565b34801561071d57600080fd5b50610421600c5481565b34801561073357600080fd5b506104217f9f2df0fed2c77648de5860a4cc508cd0818c85b8b8a1ab4ceeef8d981c8956a681565b34801561076757600080fd5b506103156107763660046135de565b611547565b34801561078757600080fd5b5061079b610796366004613658565b61156c565b6040805192151583526001600160a01b039091166020830152016102ec565b3480156107c657600080fd5b5061032c6115ad565b3480156107db57600080fd5b506102e06107ea3660046137e4565b6001600160a01b03918216600090815260056020908152604080832093909416825291909152205460ff1690565b34801561082457600080fd5b506104217f000000000000000000000000000000000000000000000000000000000000000081565b34801561085857600080fd5b50610421600a5481565b600061086d826116cd565b92915050565b600061087e8161170b565b61088883836115bc565b6040516bffffffffffffffffffffffff831681526001600160a01b038416907fe12d7d5bdb8218a22277dca8f854dd4573a1cea3d3e4808dc567df9eb1c14bf4906020015b60405180910390a2505050565b6060600080546108e99061380e565b80601f01602080910402602001604051908101604052809291908181526020018280546109159061380e565b80156109625780601f1061093757610100808354040283529160200191610962565b820191906000526020600020905b81548152906001019060200180831161094557829003601f168201915b5050505050905090565b600061097782611718565b506000908152600460205260409020546001600160a01b031690565b600061099e82610e86565b9050806001600160a01b0316836001600160a01b03161415610a2d5760405162461bcd60e51b815260206004820152602160248201527f4552433732313a20617070726f76616c20746f2063757272656e74206f776e6560448201527f720000000000000000000000000000000000000000000000000000000000000060648201526084015b60405180910390fd5b336001600160a01b0382161480610a495750610a4981336107ea565b610abb5760405162461bcd60e51b815260206004820152603d60248201527f4552433732313a20617070726f76652063616c6c6572206973206e6f7420746f60448201527f6b656e206f776e6572206f7220617070726f76656420666f7220616c6c0000006064820152608401610a24565b610ac5838361177c565b505050565b6000610ad58161170b565b610ac583836117f7565b6000610aea8161170b565b6101f4825110610b3c5760405162461bcd60e51b815260206004820152601d60248201527f43414e49534e46543a2042415443482053495a452045584345454445440000006044820152606401610a24565b60005b8251811015610b8657610b74610b558286613859565b848381518110610b6757610b67613871565b60200260200101516117f7565b80610b7e81613887565b915050610b3f565b50505050565b610b9633826118a0565b610bf85760405162461bcd60e51b815260206004820152602d60248201527f4552433732313a2063616c6c6572206973206e6f7420746f6b656e206f776e6560448201526c1c881bdc88185c1c1c9bdd9959609a1b6064820152608401610a24565b610ac583838361191f565b6000807f0000000000000000000000000000000000000000000000000000000000000000841115610c805760405162461bcd60e51b815260206004820152602160248201527f43414e49534e46543a20544f4b454e20494420444f4553204e4f5420455849536044820152601560fa1b6064820152608401610a24565b610c8a8484611b32565b915091505b9250929050565b600082815260096020526040902060010154610cb18161170b565b610ac58383611bed565b6001600160a01b0381163314610d395760405162461bcd60e51b815260206004820152602f60248201527f416363657373436f6e74726f6c3a2063616e206f6e6c792072656e6f756e636560448201527f20726f6c657320666f722073656c6600000000000000000000000000000000006064820152608401610a24565b610d438282611c8f565b5050565b600080610d538161170b565b60005b83811015610d7957610d66610eeb565b5080610d7181613887565b915050610d56565b50600e545b91505b50919050565b610ac58383836040518060200160405280600081525061131f565b6000610dad8161170b565b7f0000000000000000000000000000000000000000000000000000000000000000841115610e275760405162461bcd60e51b815260206004820152602160248201527f43414e49534e46543a20544f4b454e20494420444f4553204e4f5420455849536044820152601560fa1b6064820152608401610a24565b610e32848484611d12565b6040516bffffffffffffffffffffffff831681526001600160a01b0384169085907fe361b60b9164428d036a601ec08552e653bfe8c44389b8a4ebfd47281eb8741a9060200160405180910390a350505050565b6000818152600260205260408120546001600160a01b03168061086d5760405162461bcd60e51b815260206004820152601860248201527f4552433732313a20696e76616c696420746f6b656e20494400000000000000006044820152606401610a24565b600080610ef78161170b565b610f05600e80546001019055565b6000610f10600e5490565b90507f0000000000000000000000000000000000000000000000000000000000000000811115610f825760405162461bcd60e51b815260206004820152601760248201527f4e46544341505045443a206361702065786365656465640000000000000000006044820152606401610a24565b610f8c3382611e2a565b91505b5090565b60006001600160a01b0382166110115760405162461bcd60e51b815260206004820152602960248201527f4552433732313a2061646472657373207a65726f206973206e6f74206120766160448201527f6c6964206f776e657200000000000000000000000000000000000000000000006064820152608401610a24565b506001600160a01b031660009081526003602052604090205490565b60006110388161170b565b7f00000000000000000000000000000000000000000000000000000000000000008211156110b25760405162461bcd60e51b815260206004820152602160248201527f43414e49534e46543a20544f4b454e20494420444f4553204e4f5420455849536044820152601560fa1b6064820152608401610a24565b60008281526008602052604081205560405182907fd4a4110af244550f74d1974351897a9bc1e3a968ab0e84dafdef47733eba6d5590600090a25050565b6000806110fe858585611e44565b905061114f604086013561111560208801886138a2565b8080601f0160208091040260200160405190810160405280939291908181526020018383808284376000920191909152506117f792505050565b61115d33866040013561177c565b61116c81338760400135610d87565b6040805190860135815233907fd8138f8a3f377c5259ca548e70e4c2de94f129f5a11036a15b69513cba2b426a9060200160405180910390a2505050506040013590565b60006111bb8161170b565b60006111c6600e5490565b90508084101580156111db5750600b54600a54115b801561120957507f0000000000000000000000000000000000000000000000000000000000000000600b5411155b6112555760405162461bcd60e51b815260206004820181905260248201527f43414e49534e46543a2057524f4e47204752494654494e4720494e44455845536044820152606401610a24565b600a849055600b839055600f84905560408051858152602081018590527f2e623480aa4cbd7c590a325ea0d2f6ba03f113824171eec3d6db75837ebbbc57910160405180910390a150505050565b60006112ae8161170b565b81516112c190600d9060208501906131cf565b50600d6040516112d191906138e9565b604051908190038120907f905d981207a7d0b6c62cc46ab0be2a076d0298e4a86d0ab79882dbd01ac3737890600090a25050565b6060600180546108e99061380e565b610d43338383612099565b61132933836118a0565b61138b5760405162461bcd60e51b815260206004820152602d60248201527f4552433732313a2063616c6c6572206973206e6f7420746f6b656e206f776e6560448201526c1c881bdc88185c1c1c9bdd9959609a1b6064820152608401610a24565b610b8684848484612168565b600d80546113a49061380e565b80601f01602080910402602001604051908101604052809291908181526020018280546113d09061380e565b801561141d5780601f106113f25761010080835404028352916020019161141d565b820191906000526020600020905b81548152906001019060200180831161140057829003601f168201915b505050505081565b60006114308161170b565b816114a35760405162461bcd60e51b815260206004820152602760248201527f43414e49534e46543a204d4158204d555354204245204752454154455220544860448201527f414e205a45524f000000000000000000000000000000000000000000000000006064820152608401610a24565b600c80549083905560408051828152602081018590527f16a3e0bd673c312def942f878be9ff5b14046d93d685905096a192fc8677eb5a910160405180910390a1505050565b606061086d826121e6565b60006114ff8161170b565b600061150a836122ef565b9050826001600160a01b03167fd27fb549aa167bf858a1420299ea6b1bbbc78233a5e884498b8b603ae4376b01826040516108cd91815260200190565b6000828152600960205260409020600101546115628161170b565b610ac58383611c8f565b60008061157a858585612426565b60408087013560009081526010602052205490915060ff161580156115a357506115a3816124c7565b9150935093915050565b6060600d80546108e99061380e565b6127106bffffffffffffffffffffffff8216111561162f5760405162461bcd60e51b815260206004820152602a60248201527f455243323938313a20726f79616c7479206665652077696c6c206578636565646044820152692073616c65507269636560b01b6064820152608401610a24565b6001600160a01b0382166116855760405162461bcd60e51b815260206004820152601960248201527f455243323938313a20696e76616c6964207265636569766572000000000000006044820152606401610a24565b604080518082019091526001600160a01b039092168083526bffffffffffffffffffffffff9091166020909201829052600160a01b90910217600755565b610d438282611bed565b60006001600160e01b031982167f7965db0b00000000000000000000000000000000000000000000000000000000148061086d575061086d8261257c565b61171581336125ba565b50565b6000818152600260205260409020546001600160a01b03166117155760405162461bcd60e51b815260206004820152601860248201527f4552433732313a20696e76616c696420746f6b656e20494400000000000000006044820152606401610a24565b6000818152600460205260409020805473ffffffffffffffffffffffffffffffffffffffff19166001600160a01b03841690811790915581906117be82610e86565b6001600160a01b03167f8c5be1e5ebec7d5bd14f71427d1e84f3dd0314c0f7b2291e5b200ac8c7c3b92560405160405180910390a45050565b6000828152600260205260409020546001600160a01b03166118815760405162461bcd60e51b815260206004820152602e60248201527f45524337323155524953746f726167653a2055524920736574206f66206e6f6e60448201527f6578697374656e7420746f6b656e0000000000000000000000000000000000006064820152608401610a24565b60008281526006602090815260409091208251610ac5928401906131cf565b6000806118ac83610e86565b9050806001600160a01b0316846001600160a01b031614806118f357506001600160a01b0380821660009081526005602090815260408083209388168352929052205460ff165b806119175750836001600160a01b031661190c8461096c565b6001600160a01b0316145b949350505050565b826001600160a01b031661193282610e86565b6001600160a01b0316146119965760405162461bcd60e51b815260206004820152602560248201527f4552433732313a207472616e736665722066726f6d20696e636f72726563742060448201526437bbb732b960d91b6064820152608401610a24565b6001600160a01b038216611a115760405162461bcd60e51b8152602060048201526024808201527f4552433732313a207472616e7366657220746f20746865207a65726f2061646460448201527f72657373000000000000000000000000000000000000000000000000000000006064820152608401610a24565b611a1e838383600161262f565b826001600160a01b0316611a3182610e86565b6001600160a01b031614611a955760405162461bcd60e51b815260206004820152602560248201527f4552433732313a207472616e736665722066726f6d20696e636f72726563742060448201526437bbb732b960d91b6064820152608401610a24565b6000818152600460209081526040808320805473ffffffffffffffffffffffffffffffffffffffff199081169091556001600160a01b0387811680865260038552838620805460001901905590871680865283862080546001019055868652600290945282852080549092168417909155905184937fddf252ad1be2c89b69c2b068fc378daa952ba7f163c4a11628f55a4df523b3ef91a4505050565b60008281526008602090815260408083208151808301909252546001600160a01b038116808352600160a01b9091046bffffffffffffffffffffffff16928201929092528291611bb15750604080518082019091526007546001600160a01b0381168252600160a01b90046bffffffffffffffffffffffff1660208201525b602081015160009061271090611bd5906bffffffffffffffffffffffff1687613985565b611bdf91906139a4565b915196919550909350505050565b60008281526009602090815260408083206001600160a01b038516845290915290205460ff16610d435760008281526009602090815260408083206001600160a01b03851684529091529020805460ff19166001179055611c4b3390565b6001600160a01b0316816001600160a01b0316837f2f8788117e7eff1d82e926ec794901d17c78024a50270940304540a733656f0d60405160405180910390a45050565b60008281526009602090815260408083206001600160a01b038516845290915290205460ff1615610d435760008281526009602090815260408083206001600160a01b0385168085529252808320805460ff1916905551339285917ff6391f5c32d9c69d2a47ea670b442974b53935d1edc7fd64eb21e047a839171b9190a45050565b6127106bffffffffffffffffffffffff82161115611d855760405162461bcd60e51b815260206004820152602a60248201527f455243323938313a20726f79616c7479206665652077696c6c206578636565646044820152692073616c65507269636560b01b6064820152608401610a24565b6001600160a01b038216611ddb5760405162461bcd60e51b815260206004820152601b60248201527f455243323938313a20496e76616c696420706172616d657465727300000000006044820152606401610a24565b6040805180820182526001600160a01b0393841681526bffffffffffffffffffffffff92831660208083019182526000968752600890529190942093519051909116600160a01b029116179055565b610d438282604051806020016040528060008152506126b7565b600080611e5285858561156c565b9250905080611ea35760405162461bcd60e51b815260206004820152601960248201527f43414e49534e46543a20496e76616c69642072657175657374000000000000006044820152606401610a24565b6000611eb2602087018761363d565b6001600160a01b03161415611f095760405162461bcd60e51b815260206004820152601d60248201527f43414e49534e46543a20726563697069656e7420756e646566696e65640000006044820152606401610a24565b7f000000000000000000000000000000000000000000000000000000000000000085604001351115611f7d5760405162461bcd60e51b815260206004820152601660248201527f43414e49534e46543a20636170206578636565646564000000000000000000006044820152606401610a24565b600e5485604001351115611ff95760405162461bcd60e51b815260206004820152603860248201527f43414e49534e46543a207265717565737420746f6b656e2069642063616e6e6f60448201527f742062652067726561746572207468616e206d696e74656400000000000000006064820152608401610a24565b468560600135146120725760405162461bcd60e51b815260206004820152603660248201527f43414e49534e46543a2074686520636861696e206964206d757374206265207460448201527f68652073616d6520617320746865206e6574776f726b000000000000000000006064820152608401610a24565b506040938401356000908152601060205293909320805460ff191660011790555090919050565b816001600160a01b0316836001600160a01b031614156120fb5760405162461bcd60e51b815260206004820152601960248201527f4552433732313a20617070726f766520746f2063616c6c6572000000000000006044820152606401610a24565b6001600160a01b03838116600081815260056020908152604080832094871680845294825291829020805460ff191686151590811790915591519182527f17307eab39ab6107e8899845ad3d59bd9653f200f220920489ca2b5937696c31910160405180910390a3505050565b61217384848461191f565b61217f84848484612735565b610b865760405162461bcd60e51b815260206004820152603260248201527f4552433732313a207472616e7366657220746f206e6f6e20455243373231526560448201527131b2b4bb32b91034b6b83632b6b2b73a32b960711b6064820152608401610a24565b60606121f182611718565b6000828152600660205260408120805461220a9061380e565b80601f01602080910402602001604051908101604052809291908181526020018280546122369061380e565b80156122835780601f1061225857610100808354040283529160200191612283565b820191906000526020600020905b81548152906001019060200180831161226657829003601f168201915b5050505050905060006122a160408051602081019091526000815290565b90508051600014156122b4575092915050565b8151156122e65780826040516020016122ce9291906139c6565b60405160208183030381529060405292505050919050565b6119178461288d565b60007f0000000000000000000000000000000000000000000000000000000000000000600f5411156123635760405162461bcd60e51b815260206004820152601760248201527f4e46544341505045443a206361702065786365656465640000000000000000006044820152606401610a24565b600a54600f541015801561237b5750600b54600f5411155b6123ed5760405162461bcd60e51b815260206004820152602660248201527f43414e49534e46543a2043414e4e4f54204d494e54204e4f4e2047494654414260448201527f4c45204e465400000000000000000000000000000000000000000000000000006064820152608401610a24565b6123f982600f5461177c565b6124063383600f54610d87565b600f805490600190600061241a8385613859565b90915550909392505050565b600061191783838080601f0160208091040260200160405190810160405280939291908181526020018383808284376000920191909152506124c192506124709150889050612900565b8051602091820120604080517f19457468657265756d205369676e6564204d6573736167653a0a33320000000081850152603c8082019390935281518082039093018352605c019052805191012090565b9061297c565b6001600160a01b03811660009081527fd5d09b8f3165a736d25b1a14611612ac91830c1b82012b1c33b2dac7c90a0649602052604081205460ff166125745760405162461bcd60e51b815260206004820152602760248201527f43414e49534e46543a206d7573742068617665206d696e74657220726f6c652060448201527f746f206d696e74000000000000000000000000000000000000000000000000006064820152608401610a24565b506001919050565b60006001600160e01b031982167f2a55205a00000000000000000000000000000000000000000000000000000000148061086d575061086d826129a0565b60008281526009602090815260408083206001600160a01b038516845290915290205460ff16610d43576125ed81612a3b565b6125f8836020612a4d565b6040516020016126099291906139f5565b60408051601f198184030181529082905262461bcd60e51b8252610a2491600401613355565b6001811115610b86576001600160a01b03841615612675576001600160a01b0384166000908152600360205260408120805483929061266f908490613a76565b90915550505b6001600160a01b03831615610b86576001600160a01b038316600090815260036020526040812080548392906126ac908490613859565b909155505050505050565b6126c18383612c35565b6126ce6000848484612735565b610ac55760405162461bcd60e51b815260206004820152603260248201527f4552433732313a207472616e7366657220746f206e6f6e20455243373231526560448201527131b2b4bb32b91034b6b83632b6b2b73a32b960711b6064820152608401610a24565b60006001600160a01b0384163b1561288257604051630a85bd0160e11b81526001600160a01b0385169063150b7a0290612779903390899088908890600401613a8d565b602060405180830381600087803b15801561279357600080fd5b505af19250505080156127c3575060408051601f3d908101601f191682019092526127c091810190613ac9565b60015b612868573d8080156127f1576040519150601f19603f3d011682016040523d82523d6000602084013e6127f6565b606091505b5080516128605760405162461bcd60e51b815260206004820152603260248201527f4552433732313a207472616e7366657220746f206e6f6e20455243373231526560448201527131b2b4bb32b91034b6b83632b6b2b73a32b960711b6064820152608401610a24565b805181602001fd5b6001600160e01b031916630a85bd0160e11b149050611917565b506001949350505050565b606061289882611718565b60006128af60408051602081019091526000815290565b905060008151116128cf5760405180602001604052806000815250610d7e565b806128d984612ddb565b6040516020016128ea9291906139c6565b6040516020818303038152906040529392505050565b606061290f602083018361363d565b61291c60208401846138a2565b60405161292a929190613ae6565b604080519182900382206bffffffffffffffffffffffff19606094851b166020840152603483015284013560548201529083013560748201526094016040516020818303038152906040529050919050565b600080600061298b8585612e7d565b9150915061299881612ec0565b509392505050565b60006001600160e01b031982167f80ac58cd000000000000000000000000000000000000000000000000000000001480612a0357506001600160e01b031982167f5b5e139f00000000000000000000000000000000000000000000000000000000145b8061086d57507f01ffc9a7000000000000000000000000000000000000000000000000000000006001600160e01b031983161461086d565b606061086d6001600160a01b03831660145b60606000612a5c836002613985565b612a67906002613859565b67ffffffffffffffff811115612a7f57612a7f6133ab565b6040519080825280601f01601f191660200182016040528015612aa9576020820181803683370190505b5090507f300000000000000000000000000000000000000000000000000000000000000081600081518110612ae057612ae0613871565b60200101906001600160f81b031916908160001a9053507f780000000000000000000000000000000000000000000000000000000000000081600181518110612b2b57612b2b613871565b60200101906001600160f81b031916908160001a9053506000612b4f846002613985565b612b5a906001613859565b90505b6001811115612bdf577f303132333435363738396162636465660000000000000000000000000000000085600f1660108110612b9b57612b9b613871565b1a60f81b828281518110612bb157612bb1613871565b60200101906001600160f81b031916908160001a90535060049490941c93612bd881613af6565b9050612b5d565b508315612c2e5760405162461bcd60e51b815260206004820181905260248201527f537472696e67733a20686578206c656e67746820696e73756666696369656e746044820152606401610a24565b9392505050565b6001600160a01b038216612c8b5760405162461bcd60e51b815260206004820181905260248201527f4552433732313a206d696e7420746f20746865207a65726f20616464726573736044820152606401610a24565b6000818152600260205260409020546001600160a01b031615612cf05760405162461bcd60e51b815260206004820152601c60248201527f4552433732313a20746f6b656e20616c7265616479206d696e746564000000006044820152606401610a24565b612cfe60008383600161262f565b6000818152600260205260409020546001600160a01b031615612d635760405162461bcd60e51b815260206004820152601c60248201527f4552433732313a20746f6b656e20616c7265616479206d696e746564000000006044820152606401610a24565b6001600160a01b0382166000818152600360209081526040808320805460010190558483526002909152808220805473ffffffffffffffffffffffffffffffffffffffff19168417905551839291907fddf252ad1be2c89b69c2b068fc378daa952ba7f163c4a11628f55a4df523b3ef908290a45050565b60606000612de883613029565b600101905060008167ffffffffffffffff811115612e0857612e086133ab565b6040519080825280601f01601f191660200182016040528015612e32576020820181803683370190505b5090508181016020015b600019017f3031323334353637383961626364656600000000000000000000000000000000600a86061a8153600a8504945084612e7857612998565b612e3c565b600080825160411415612eb45760208301516040840151606085015160001a612ea88782858561310b565b94509450505050610c8f565b50600090506002610c8f565b6000816004811115612ed457612ed4613b0d565b1415612edd5750565b6001816004811115612ef157612ef1613b0d565b1415612f3f5760405162461bcd60e51b815260206004820152601860248201527f45434453413a20696e76616c6964207369676e617475726500000000000000006044820152606401610a24565b6002816004811115612f5357612f53613b0d565b1415612fa15760405162461bcd60e51b815260206004820152601f60248201527f45434453413a20696e76616c6964207369676e6174757265206c656e677468006044820152606401610a24565b6003816004811115612fb557612fb5613b0d565b14156117155760405162461bcd60e51b815260206004820152602260248201527f45434453413a20696e76616c6964207369676e6174757265202773272076616c60448201527f75650000000000000000000000000000000000000000000000000000000000006064820152608401610a24565b6000807a184f03e93ff9f4daa797ed6e38ed64bf6a1f0100000000000000008310613072577a184f03e93ff9f4daa797ed6e38ed64bf6a1f010000000000000000830492506040015b6d04ee2d6d415b85acef8100000000831061309e576d04ee2d6d415b85acef8100000000830492506020015b662386f26fc1000083106130bc57662386f26fc10000830492506010015b6305f5e10083106130d4576305f5e100830492506008015b61271083106130e857612710830492506004015b606483106130fa576064830492506002015b600a831061086d5760010192915050565b6000807f7fffffffffffffffffffffffffffffff5d576e7357a4501ddfe92f46681b20a083111561314257506000905060036131c6565b6040805160008082526020820180845289905260ff881692820192909252606081018690526080810185905260019060a0016020604051602081039080840390855afa158015613196573d6000803e3d6000fd5b5050604051601f1901519150506001600160a01b0381166131bf576000600192509250506131c6565b9150600090505b94509492505050565b8280546131db9061380e565b90600052602060002090601f0160209004810192826131fd5760008555613243565b82601f1061321657805160ff1916838001178555613243565b82800160010185558215613243579182015b82811115613243578251825591602001919060010190613228565b50610f8f9291505b80821115610f8f576000815560010161324b565b6001600160e01b03198116811461171557600080fd5b60006020828403121561328757600080fd5b8135612c2e8161325f565b80356001600160a01b03811681146132a957600080fd5b919050565b80356bffffffffffffffffffffffff811681146132a957600080fd5b600080604083850312156132dd57600080fd5b6132e683613292565b91506132f4602084016132ae565b90509250929050565b60005b83811015613318578181015183820152602001613300565b83811115610b865750506000910152565b600081518084526133418160208601602086016132fd565b601f01601f19169290920160200192915050565b602081526000612c2e6020830184613329565b60006020828403121561337a57600080fd5b5035919050565b6000806040838503121561339457600080fd5b61339d83613292565b946020939093013593505050565b634e487b7160e01b600052604160045260246000fd5b604051601f8201601f1916810167ffffffffffffffff811182821017156133ea576133ea6133ab565b604052919050565b600067ffffffffffffffff83111561340c5761340c6133ab565b61341f601f8401601f19166020016133c1565b905082815283838301111561343357600080fd5b828260208301376000602084830101529392505050565b600082601f83011261345b57600080fd5b612c2e838335602085016133f2565b6000806040838503121561347d57600080fd5b82359150602083013567ffffffffffffffff81111561349b57600080fd5b6134a78582860161344a565b9150509250929050565b600080604083850312156134c457600080fd5b8235915060208084013567ffffffffffffffff808211156134e457600080fd5b818601915086601f8301126134f857600080fd5b81358181111561350a5761350a6133ab565b8060051b6135198582016133c1565b918252838101850191858101908a84111561353357600080fd5b86860192505b8383101561356f578235858111156135515760008081fd5b61355f8c89838a010161344a565b8352509186019190860190613539565b809750505050505050509250929050565b60008060006060848603121561359557600080fd5b61359e84613292565b92506135ac60208501613292565b9150604084013590509250925092565b600080604083850312156135cf57600080fd5b50508035926020909101359150565b600080604083850312156135f157600080fd5b823591506132f460208401613292565b60008060006060848603121561361657600080fd5b8335925061362660208501613292565b9150613634604085016132ae565b90509250925092565b60006020828403121561364f57600080fd5b612c2e82613292565b60008060006040848603121561366d57600080fd5b833567ffffffffffffffff8082111561368557600080fd5b908501906080828803121561369957600080fd5b909350602085013590808211156136af57600080fd5b818601915086601f8301126136c357600080fd5b8135818111156136d257600080fd5b8760208285010111156136e457600080fd5b6020830194508093505050509250925092565b60006020828403121561370957600080fd5b813567ffffffffffffffff81111561372057600080fd5b6119178482850161344a565b6000806040838503121561373f57600080fd5b61374883613292565b91506020830135801515811461375d57600080fd5b809150509250929050565b6000806000806080858703121561377e57600080fd5b61378785613292565b935061379560208601613292565b925060408501359150606085013567ffffffffffffffff8111156137b857600080fd5b8501601f810187136137c957600080fd5b6137d8878235602084016133f2565b91505092959194509250565b600080604083850312156137f757600080fd5b61380083613292565b91506132f460208401613292565b600181811c9082168061382257607f821691505b60208210811415610d8157634e487b7160e01b600052602260045260246000fd5b634e487b7160e01b600052601160045260246000fd5b6000821982111561386c5761386c613843565b500190565b634e487b7160e01b600052603260045260246000fd5b600060001982141561389b5761389b613843565b5060010190565b6000808335601e198436030181126138b957600080fd5b83018035915067ffffffffffffffff8211156138d457600080fd5b602001915036819003821315610c8f57600080fd5b600080835481600182811c91508083168061390557607f831692505b602080841082141561392557634e487b7160e01b86526022600452602486fd5b818015613939576001811461394a57613977565b60ff19861689528489019650613977565b60008a81526020902060005b8681101561396f5781548b820152908501908301613956565b505084890196505b509498975050505050505050565b600081600019048311821515161561399f5761399f613843565b500290565b6000826139c157634e487b7160e01b600052601260045260246000fd5b500490565b600083516139d88184602088016132fd565b8351908301906139ec8183602088016132fd565b01949350505050565b7f416363657373436f6e74726f6c3a206163636f756e7420000000000000000000815260008351613a2d8160178501602088016132fd565b7f206973206d697373696e6720726f6c65200000000000000000000000000000006017918401918201528351613a6a8160288401602088016132fd565b01602801949350505050565b600082821015613a8857613a88613843565b500390565b60006001600160a01b03808716835280861660208401525083604083015260806060830152613abf6080830184613329565b9695505050505050565b600060208284031215613adb57600080fd5b8151612c2e8161325f565b8183823760009101908152919050565b600081613b0557613b05613843565b506000190190565b634e487b7160e01b600052602160045260246000fdfea26469706673582212207b62bd0f54557c68d5b22ef90543f048634bf3910a889e468c8c427fde219f0464736f6c63430008090033",
  "devdoc": {
    "author": "Think and Dev",
    "kind": "dev",
    "methods": {
      "approve(address,uint256)": {
        "details": "See {IERC721-approve}."
      },
      "balanceOf(address)": {
        "details": "See {IERC721-balanceOf}."
      },
      "claim((address,string,uint256,uint256),bytes)": {
        "details": "Function that users has to call to get an NFT by signature",
        "params": {
          "request": "request data signed to claim a nft",
          "signature": "signature necesary for claim"
        }
      },
      "constructor": {
        "params": {
          "_contractUri": "Contract Uri",
          "_endGiftingIndex": "End index for giftable NFTs",
          "_startGiftingIndex": "Start index for gitftble NFTs",
          "cap_": "Max amount of NFTs to be minted. Cannot change",
          "defaultFeeNumerator": "Fees to be charged for royalties",
          "defaultRoyaltyReceiver": "NFT Royalties receiver for all the collection",
          "name": "NFT name",
          "symbol": "NFT symbol"
        }
      },
      "getApproved(uint256)": {
        "details": "See {IERC721-getApproved}."
      },
      "getRoleAdmin(bytes32)": {
        "details": "Returns the admin role that controls `role`. See {grantRole} and {revokeRole}. To change a role's admin, use {_setRoleAdmin}."
      },
      "gift(address)": {
        "params": {
          "to": "address to send gifted NFT"
        }
      },
      "grantRole(bytes32,address)": {
        "details": "Grants `role` to `account`. If `account` had not been already granted `role`, emits a {RoleGranted} event. Requirements: - the caller must have ``role``'s admin role. May emit a {RoleGranted} event."
      },
      "hasRole(bytes32,address)": {
        "details": "Returns `true` if `account` has been granted `role`."
      },
      "isApprovedForAll(address,address)": {
        "details": "See {IERC721-isApprovedForAll}."
      },
      "name()": {
        "details": "See {IERC721Metadata-name}."
      },
      "ownerOf(uint256)": {
        "details": "See {IERC721-ownerOf}."
      },
      "renounceRole(bytes32,address)": {
        "details": "Revokes `role` from the calling account. Roles are often managed via {grantRole} and {revokeRole}: this function's purpose is to provide a mechanism for accounts to lose their privileges if they are compromised (such as when a trusted device is misplaced). If the calling account had been revoked `role`, emits a {RoleRevoked} event. Requirements: - the caller must be `account`. May emit a {RoleRevoked} event."
      },
      "resetTokenRoyalty(uint256)": {
        "params": {
          "tokenId": "Id of the NFT to be modified"
        }
      },
      "revokeRole(bytes32,address)": {
        "details": "Revokes `role` from `account`. If `account` had been granted `role`, emits a {RoleRevoked} event. Requirements: - the caller must have ``role``'s admin role. May emit a {RoleRevoked} event."
      },
      "royaltyInfo(uint256,uint256)": {
        "details": "Returns how much royalty is owed and to whom, based on a sale price that may be denominated in any unit of exchange. The royalty amount is denominated and should be paid in that same unit of exchange."
      },
      "safeMint()": {
        "returns": {
          "_0": "id of the new minted NFT"
        }
      },
      "safeMintBatch(uint256)": {
        "params": {
          "quantity": "amount of NFTs to be minted"
        },
        "returns": {
          "_0": "id of the next NFT to be minted"
        }
      },
      "safeTransferFrom(address,address,uint256)": {
        "details": "See {IERC721-safeTransferFrom}."
      },
      "safeTransferFrom(address,address,uint256,bytes)": {
        "details": "See {IERC721-safeTransferFrom}."
      },
      "setApprovalForAll(address,bool)": {
        "details": "See {IERC721-setApprovalForAll}."
      },
      "setContractURI(string)": {
        "params": {
          "_contractUri": "contractUri"
        }
      },
      "setDefaultRoyalty(address,uint96)": {
        "details": "Set royalty receiver and feenumerator to be charged",
        "params": {
          "feeNumerator": "fees to be charged to users on sales",
          "receiver": "Royalty beneficiary"
        }
      },
      "setGiftingIndexes(uint256,uint256)": {
        "details": "Canno set a gift index for already minted NFTs",
        "params": {
          "endIndex": "end index",
          "startIndex": "start index"
        }
      },
      "setMaxClaim(uint256)": {
        "params": {
          "max": "number of new max claim"
        }
      },
      "setTokenRoyalty(uint256,address,uint96)": {
        "params": {
          "feeNumerator": "fees to be charged",
          "receiver": "address of the royalty beneficiary",
          "tokenId": "Id of the NFT to be modified"
        }
      },
      "setTokenURI(uint256,string)": {
        "params": {
          "_tokenURI": "tokenURI",
          "tokenId": "id of the NFT to change URI"
        }
      },
      "setTokenURIBatch(uint256,string[])": {
        "details": "The NFTs to be modified has to be consecutives",
        "params": {
          "startTokenId": "index to start modifying NFTs",
          "tokenURIs": "array of modified uris"
        }
      },
      "symbol()": {
        "details": "See {IERC721Metadata-symbol}."
      },
      "tokenURI(uint256)": {
        "custom:notice": "The following function is override required by Solidity."
      },
      "transferFrom(address,address,uint256)": {
        "details": "See {IERC721-transferFrom}."
      },
      "verify((address,string,uint256,uint256),bytes)": {
        "details": "Verifies that a mint request is signed by an authorized account."
      }
    },
    "stateVariables": {
      "CAP": {
        "details": "Max amount of NFTs to be minted"
      },
      "MINTER_ROLE": {
        "details": "Minter rol"
      },
      "contractUri": {
        "details": "ContractUri"
      },
      "endGiftingIndex": {
        "details": "End index where gifting ends"
      },
      "maxClaim": {
        "details": "End index where gifting ends"
      },
      "minted": {
        "details": "Mapping from mint request tokenId => whether the mint request is processed."
      },
      "startGiftingIndex": {
        "details": "Start index of nfts which will be gifted"
      },
      "tokenIdGiftedIndex": {
        "details": "Private counter to make internal security checks"
      }
    },
    "title": "Canis NFT contract",
    "version": 1
  },
  "userdoc": {
    "kind": "user",
    "methods": {
      "claim((address,string,uint256,uint256),bytes)": {
        "notice": "Claim an nft by signature"
      },
      "constructor": {
        "notice": "Init contract"
      },
      "contractURI()": {
        "notice": "openSea integration royalty. See https://docs.opensea.io/docs/contract-level-metadata"
      },
      "gift(address)": {
        "notice": "Gift an NFT"
      },
      "resetTokenRoyalty(uint256)": {
        "notice": "Reset token royalty to default one"
      },
      "safeMint()": {
        "notice": "Mint NFT"
      },
      "safeMintBatch(uint256)": {
        "notice": "Mint NFTs"
      },
      "setContractURI(string)": {
        "notice": "Modify contractUri for NFT collection"
      },
      "setDefaultRoyalty(address,uint96)": {
        "notice": "Royalties config"
      },
      "setGiftingIndexes(uint256,uint256)": {
        "notice": "Set Gifting indexes"
      },
      "setMaxClaim(uint256)": {
        "notice": "Modify a max claim by address"
      },
      "setTokenRoyalty(uint256,address,uint96)": {
        "notice": "Modify a particular token royalty"
      },
      "setTokenURI(uint256,string)": {
        "notice": "Set URI for an NFT"
      },
      "setTokenURIBatch(uint256,string[])": {
        "notice": "Modify tokenURis for several NFTs"
      }
    },
    "version": 1
  },
  "storageLayout": {
    "storage": [
      {
        "astId": 1597,
        "contract": "contracts/CanisNFT.sol:CanisNFT",
        "label": "_name",
        "offset": 0,
        "slot": "0",
        "type": "t_string_storage"
      },
      {
        "astId": 1599,
        "contract": "contracts/CanisNFT.sol:CanisNFT",
        "label": "_symbol",
        "offset": 0,
        "slot": "1",
        "type": "t_string_storage"
      },
      {
        "astId": 1603,
        "contract": "contracts/CanisNFT.sol:CanisNFT",
        "label": "_owners",
        "offset": 0,
        "slot": "2",
        "type": "t_mapping(t_uint256,t_address)"
      },
      {
        "astId": 1607,
        "contract": "contracts/CanisNFT.sol:CanisNFT",
        "label": "_balances",
        "offset": 0,
        "slot": "3",
        "type": "t_mapping(t_address,t_uint256)"
      },
      {
        "astId": 1611,
        "contract": "contracts/CanisNFT.sol:CanisNFT",
        "label": "_tokenApprovals",
        "offset": 0,
        "slot": "4",
        "type": "t_mapping(t_uint256,t_address)"
      },
      {
        "astId": 1617,
        "contract": "contracts/CanisNFT.sol:CanisNFT",
        "label": "_operatorApprovals",
        "offset": 0,
        "slot": "5",
        "type": "t_mapping(t_address,t_mapping(t_address,t_bool))"
      },
      {
        "astId": 2663,
        "contract": "contracts/CanisNFT.sol:CanisNFT",
        "label": "_tokenURIs",
        "offset": 0,
        "slot": "6",
        "type": "t_mapping(t_uint256,t_string_storage)"
      },
      {
        "astId": 2819,
        "contract": "contracts/CanisNFT.sol:CanisNFT",
        "label": "_defaultRoyaltyInfo",
        "offset": 0,
        "slot": "7",
        "type": "t_struct(RoyaltyInfo)2816_storage"
      },
      {
        "astId": 2824,
        "contract": "contracts/CanisNFT.sol:CanisNFT",
        "label": "_tokenRoyaltyInfo",
        "offset": 0,
        "slot": "8",
        "type": "t_mapping(t_uint256,t_struct(RoyaltyInfo)2816_storage)"
      },
      {
        "astId": 24,
        "contract": "contracts/CanisNFT.sol:CanisNFT",
        "label": "_roles",
        "offset": 0,
        "slot": "9",
        "type": "t_mapping(t_bytes32,t_struct(RoleData)19_storage)"
      },
      {
        "astId": 5039,
        "contract": "contracts/CanisNFT.sol:CanisNFT",
        "label": "startGiftingIndex",
        "offset": 0,
        "slot": "10",
        "type": "t_uint256"
      },
      {
        "astId": 5042,
        "contract": "contracts/CanisNFT.sol:CanisNFT",
        "label": "endGiftingIndex",
        "offset": 0,
        "slot": "11",
        "type": "t_uint256"
      },
      {
        "astId": 5046,
        "contract": "contracts/CanisNFT.sol:CanisNFT",
        "label": "maxClaim",
        "offset": 0,
        "slot": "12",
        "type": "t_uint256"
      },
      {
        "astId": 5049,
        "contract": "contracts/CanisNFT.sol:CanisNFT",
        "label": "contractUri",
        "offset": 0,
        "slot": "13",
        "type": "t_string_storage"
      },
      {
        "astId": 5056,
        "contract": "contracts/CanisNFT.sol:CanisNFT",
        "label": "_tokenIdCounter",
        "offset": 0,
        "slot": "14",
        "type": "t_struct(Counter)3358_storage"
      },
      {
        "astId": 5059,
        "contract": "contracts/CanisNFT.sol:CanisNFT",
        "label": "tokenIdGiftedIndex",
        "offset": 0,
        "slot": "15",
        "type": "t_uint256"
      },
      {
        "astId": 5078,
        "contract": "contracts/CanisNFT.sol:CanisNFT",
        "label": "minted",
        "offset": 0,
        "slot": "16",
        "type": "t_mapping(t_uint256,t_bool)"
      }
    ],
    "types": {
      "t_address": {
        "encoding": "inplace",
        "label": "address",
        "numberOfBytes": "20"
      },
      "t_bool": {
        "encoding": "inplace",
        "label": "bool",
        "numberOfBytes": "1"
      },
      "t_bytes32": {
        "encoding": "inplace",
        "label": "bytes32",
        "numberOfBytes": "32"
      },
      "t_mapping(t_address,t_bool)": {
        "encoding": "mapping",
        "key": "t_address",
        "label": "mapping(address => bool)",
        "numberOfBytes": "32",
        "value": "t_bool"
      },
      "t_mapping(t_address,t_mapping(t_address,t_bool))": {
        "encoding": "mapping",
        "key": "t_address",
        "label": "mapping(address => mapping(address => bool))",
        "numberOfBytes": "32",
        "value": "t_mapping(t_address,t_bool)"
      },
      "t_mapping(t_address,t_uint256)": {
        "encoding": "mapping",
        "key": "t_address",
        "label": "mapping(address => uint256)",
        "numberOfBytes": "32",
        "value": "t_uint256"
      },
      "t_mapping(t_bytes32,t_struct(RoleData)19_storage)": {
        "encoding": "mapping",
        "key": "t_bytes32",
        "label": "mapping(bytes32 => struct AccessControl.RoleData)",
        "numberOfBytes": "32",
        "value": "t_struct(RoleData)19_storage"
      },
      "t_mapping(t_uint256,t_address)": {
        "encoding": "mapping",
        "key": "t_uint256",
        "label": "mapping(uint256 => address)",
        "numberOfBytes": "32",
        "value": "t_address"
      },
      "t_mapping(t_uint256,t_bool)": {
        "encoding": "mapping",
        "key": "t_uint256",
        "label": "mapping(uint256 => bool)",
        "numberOfBytes": "32",
        "value": "t_bool"
      },
      "t_mapping(t_uint256,t_string_storage)": {
        "encoding": "mapping",
        "key": "t_uint256",
        "label": "mapping(uint256 => string)",
        "numberOfBytes": "32",
        "value": "t_string_storage"
      },
      "t_mapping(t_uint256,t_struct(RoyaltyInfo)2816_storage)": {
        "encoding": "mapping",
        "key": "t_uint256",
        "label": "mapping(uint256 => struct ERC2981.RoyaltyInfo)",
        "numberOfBytes": "32",
        "value": "t_struct(RoyaltyInfo)2816_storage"
      },
      "t_string_storage": {
        "encoding": "bytes",
        "label": "string",
        "numberOfBytes": "32"
      },
      "t_struct(Counter)3358_storage": {
        "encoding": "inplace",
        "label": "struct Counters.Counter",
        "members": [
          {
            "astId": 3357,
            "contract": "contracts/CanisNFT.sol:CanisNFT",
            "label": "_value",
            "offset": 0,
            "slot": "0",
            "type": "t_uint256"
          }
        ],
        "numberOfBytes": "32"
      },
      "t_struct(RoleData)19_storage": {
        "encoding": "inplace",
        "label": "struct AccessControl.RoleData",
        "members": [
          {
            "astId": 16,
            "contract": "contracts/CanisNFT.sol:CanisNFT",
            "label": "members",
            "offset": 0,
            "slot": "0",
            "type": "t_mapping(t_address,t_bool)"
          },
          {
            "astId": 18,
            "contract": "contracts/CanisNFT.sol:CanisNFT",
            "label": "adminRole",
            "offset": 0,
            "slot": "1",
            "type": "t_bytes32"
          }
        ],
        "numberOfBytes": "64"
      },
      "t_struct(RoyaltyInfo)2816_storage": {
        "encoding": "inplace",
        "label": "struct ERC2981.RoyaltyInfo",
        "members": [
          {
            "astId": 2813,
            "contract": "contracts/CanisNFT.sol:CanisNFT",
            "label": "receiver",
            "offset": 0,
            "slot": "0",
            "type": "t_address"
          },
          {
            "astId": 2815,
            "contract": "contracts/CanisNFT.sol:CanisNFT",
            "label": "royaltyFraction",
            "offset": 20,
            "slot": "0",
            "type": "t_uint96"
          }
        ],
        "numberOfBytes": "32"
      },
      "t_uint256": {
        "encoding": "inplace",
        "label": "uint256",
        "numberOfBytes": "32"
      },
      "t_uint96": {
        "encoding": "inplace",
        "label": "uint96",
        "numberOfBytes": "12"
      }
    }
  }
}