{
  "address": "0xc851B176cD3E76Ac4c02aF5ddF7435D4CBEfF4d9",
  "abi": [
    {
      "inputs": [
        {
          "internalType": "address[]",
          "name": "payees",
          "type": "address[]"
        },
        {
          "internalType": "uint256[]",
          "name": "shares",
          "type": "uint256[]"
        }
      ],
      "stateMutability": "nonpayable",
      "type": "constructor"
    },
    {
      "anonymous": false,
      "inputs": [
        {
          "indexed": true,
          "internalType": "contract IERC20",
          "name": "token",
          "type": "address"
        },
        {
          "indexed": false,
          "internalType": "address",
          "name": "to",
          "type": "address"
        },
        {
          "indexed": false,
          "internalType": "uint256",
          "name": "amount",
          "type": "uint256"
        }
      ],
      "name": "ERC20PaymentReleased",
      "type": "event"
    },
    {
      "anonymous": false,
      "inputs": [
        {
          "indexed": true,
          "internalType": "address",
          "name": "previousOwner",
          "type": "address"
        },
        {
          "indexed": true,
          "internalType": "address",
          "name": "newOwner",
          "type": "address"
        }
      ],
      "name": "OwnershipTransferred",
      "type": "event"
    },
    {
      "anonymous": false,
      "inputs": [
        {
          "indexed": false,
          "internalType": "address",
          "name": "account",
          "type": "address"
        },
        {
          "indexed": false,
          "internalType": "uint256",
          "name": "shares",
          "type": "uint256"
        }
      ],
      "name": "PayeeAdded",
      "type": "event"
    },
    {
      "anonymous": false,
      "inputs": [
        {
          "indexed": false,
          "internalType": "address",
          "name": "account",
          "type": "address"
        },
        {
          "indexed": false,
          "internalType": "uint256",
          "name": "shares",
          "type": "uint256"
        }
      ],
      "name": "PayeeRemove",
      "type": "event"
    },
    {
      "anonymous": false,
      "inputs": [
        {
          "indexed": false,
          "internalType": "address",
          "name": "from",
          "type": "address"
        },
        {
          "indexed": false,
          "internalType": "uint256",
          "name": "amount",
          "type": "uint256"
        }
      ],
      "name": "PaymentReceived",
      "type": "event"
    },
    {
      "anonymous": false,
      "inputs": [
        {
          "indexed": false,
          "internalType": "address",
          "name": "to",
          "type": "address"
        },
        {
          "indexed": false,
          "internalType": "uint256",
          "name": "amount",
          "type": "uint256"
        }
      ],
      "name": "PaymentReleased",
      "type": "event"
    },
    {
      "inputs": [
        {
          "internalType": "address",
          "name": "account",
          "type": "address"
        },
        {
          "internalType": "uint256",
          "name": "shares",
          "type": "uint256"
        }
      ],
      "name": "addPayee",
      "outputs": [],
      "stateMutability": "nonpayable",
      "type": "function"
    },
    {
      "inputs": [],
      "name": "owner",
      "outputs": [
        {
          "internalType": "address",
          "name": "",
          "type": "address"
        }
      ],
      "stateMutability": "view",
      "type": "function"
    },
    {
      "inputs": [
        {
          "internalType": "uint256",
          "name": "index",
          "type": "uint256"
        }
      ],
      "name": "payee",
      "outputs": [
        {
          "internalType": "address",
          "name": "",
          "type": "address"
        }
      ],
      "stateMutability": "view",
      "type": "function"
    },
    {
      "inputs": [
        {
          "internalType": "address",
          "name": "account",
          "type": "address"
        }
      ],
      "name": "releasable",
      "outputs": [
        {
          "internalType": "uint256",
          "name": "",
          "type": "uint256"
        }
      ],
      "stateMutability": "view",
      "type": "function"
    },
    {
      "inputs": [
        {
          "internalType": "contract IERC20",
          "name": "token",
          "type": "address"
        },
        {
          "internalType": "address",
          "name": "account",
          "type": "address"
        }
      ],
      "name": "releasable",
      "outputs": [
        {
          "internalType": "uint256",
          "name": "",
          "type": "uint256"
        }
      ],
      "stateMutability": "view",
      "type": "function"
    },
    {
      "inputs": [
        {
          "internalType": "address payable",
          "name": "account",
          "type": "address"
        }
      ],
      "name": "release",
      "outputs": [],
      "stateMutability": "nonpayable",
      "type": "function"
    },
    {
      "inputs": [
        {
          "internalType": "contract IERC20",
          "name": "token",
          "type": "address"
        },
        {
          "internalType": "address",
          "name": "account",
          "type": "address"
        }
      ],
      "name": "release",
      "outputs": [],
      "stateMutability": "nonpayable",
      "type": "function"
    },
    {
      "inputs": [
        {
          "internalType": "contract IERC20",
          "name": "token",
          "type": "address"
        },
        {
          "internalType": "address",
          "name": "account",
          "type": "address"
        }
      ],
      "name": "released",
      "outputs": [
        {
          "internalType": "uint256",
          "name": "",
          "type": "uint256"
        }
      ],
      "stateMutability": "view",
      "type": "function"
    },
    {
      "inputs": [
        {
          "internalType": "address",
          "name": "account",
          "type": "address"
        }
      ],
      "name": "released",
      "outputs": [
        {
          "internalType": "uint256",
          "name": "",
          "type": "uint256"
        }
      ],
      "stateMutability": "view",
      "type": "function"
    },
    {
      "inputs": [
        {
          "internalType": "uint256",
          "name": "indexPayee",
          "type": "uint256"
        },
        {
          "internalType": "address",
          "name": "account",
          "type": "address"
        }
      ],
      "name": "removePayee",
      "outputs": [],
      "stateMutability": "nonpayable",
      "type": "function"
    },
    {
      "inputs": [],
      "name": "renounceOwnership",
      "outputs": [],
      "stateMutability": "nonpayable",
      "type": "function"
    },
    {
      "inputs": [
        {
          "internalType": "address",
          "name": "account",
          "type": "address"
        }
      ],
      "name": "shares",
      "outputs": [
        {
          "internalType": "uint256",
          "name": "",
          "type": "uint256"
        }
      ],
      "stateMutability": "view",
      "type": "function"
    },
    {
      "inputs": [
        {
          "internalType": "contract IERC20",
          "name": "token",
          "type": "address"
        }
      ],
      "name": "totalReleased",
      "outputs": [
        {
          "internalType": "uint256",
          "name": "",
          "type": "uint256"
        }
      ],
      "stateMutability": "view",
      "type": "function"
    },
    {
      "inputs": [],
      "name": "totalReleased",
      "outputs": [
        {
          "internalType": "uint256",
          "name": "",
          "type": "uint256"
        }
      ],
      "stateMutability": "view",
      "type": "function"
    },
    {
      "inputs": [],
      "name": "totalShares",
      "outputs": [
        {
          "internalType": "uint256",
          "name": "",
          "type": "uint256"
        }
      ],
      "stateMutability": "view",
      "type": "function"
    },
    {
      "inputs": [
        {
          "internalType": "address",
          "name": "newOwner",
          "type": "address"
        }
      ],
      "name": "transferOwnership",
      "outputs": [],
      "stateMutability": "nonpayable",
      "type": "function"
    },
    {
      "stateMutability": "payable",
      "type": "receive"
    }
  ],
  "transactionHash": "0x3e79d8221f99f8cb62764eabba4d91ec9c335d2d4d703a90c2e6ddbdc1e71678",
  "args": [
    [
      "0x080D834838dc9EE7154a5d13E03073CA2ADd0C92",
      "0x7cce8F79d4edDB72C550a698d1ccc9CdF398c970"
    ],
    [
      60,
      40
    ]
  ],
  "numDeployments": 1,
  "solcInputHash": "54b06b5673001e9de5458fc6b9fb17c0",
  "bytecode": "0x60806040523480156200001157600080fd5b5060405162001b3938038062001b3983398101604081905262000034916200049c565b818162000041336200017d565b8051825114620000b35760405162461bcd60e51b815260206004820152603260248201527f5061796d656e7453706c69747465723a2070617965657320616e6420736861726044820152710cae640d8cadccee8d040dad2e6dac2e8c6d60731b60648201526084015b60405180910390fd5b6000825111620001065760405162461bcd60e51b815260206004820152601a60248201527f5061796d656e7453706c69747465723a206e6f207061796565730000000000006044820152606401620000aa565b60005b825181101562000172576200015d8382815181106200012c576200012c6200057a565b60200260200101518383815181106200014957620001496200057a565b6020026020010151620001cd60201b60201c565b806200016981620005a6565b91505062000109565b5050505050620005df565b600080546001600160a01b038381166001600160a01b0319831681178455604051919092169283917f8be0079c531659141344cd1fd0a4f28419497f9722a3daafe3b4186f6b6457e09190a35050565b6001600160a01b0382166200023a5760405162461bcd60e51b815260206004820152602c60248201527f5061796d656e7453706c69747465723a206163636f756e74206973207468652060448201526b7a65726f206164647265737360a01b6064820152608401620000aa565b600081116200028c5760405162461bcd60e51b815260206004820152601d60248201527f5061796d656e7453706c69747465723a207368617265732061726520300000006044820152606401620000aa565b6001600160a01b03821660009081526003602052604090205415620003085760405162461bcd60e51b815260206004820152602b60248201527f5061796d656e7453706c69747465723a206163636f756e7420616c726561647960448201526a206861732073686172657360a81b6064820152608401620000aa565b6005805460018082019092557f036b6384b5eca791c62761152d0c79bb0604c104a5fb6f4eb0703f3154bb3db00180546001600160a01b0319166001600160a01b03851690811790915560009081526003602052604090208290555462000371908290620005c4565b600155604080516001600160a01b0384168152602081018390527f40c340f65e17194d14ddddb073d3c9f888e3cb52b5aae0c6c7706b4fbc905fac910160405180910390a15050565b634e487b7160e01b600052604160045260246000fd5b604051601f8201601f191681016001600160401b0381118282101715620003fb57620003fb620003ba565b604052919050565b60006001600160401b038211156200041f576200041f620003ba565b5060051b60200190565b600082601f8301126200043b57600080fd5b81516020620004546200044e8362000403565b620003d0565b82815260059290921b840181019181810190868411156200047457600080fd5b8286015b8481101562000491578051835291830191830162000478565b509695505050505050565b60008060408385031215620004b057600080fd5b82516001600160401b0380821115620004c857600080fd5b818501915085601f830112620004dd57600080fd5b81516020620004f06200044e8362000403565b82815260059290921b840181019181810190898411156200051057600080fd5b948201945b83861015620005475785516001600160a01b0381168114620005375760008081fd5b8252948201949082019062000515565b918801519196509093505050808211156200056157600080fd5b50620005708582860162000429565b9150509250929050565b634e487b7160e01b600052603260045260246000fd5b634e487b7160e01b600052601160045260246000fd5b6000600019821415620005bd57620005bd62000590565b5060010190565b60008219821115620005da57620005da62000590565b500190565b61154a80620005ef6000396000f3fe6080604052600436106100f75760003560e01c80639852595c1161008a578063ce7c2ac211610059578063ce7c2ac214610312578063d79779b214610348578063e33b7de31461037e578063f2fde38b1461039357600080fd5b80639852595c1461027c5780639c1e4975146102b2578063a3f8eace146102d2578063c45ac050146102f257600080fd5b806348b75044116100c657806348b75044146101f1578063715018a6146102115780638b83209b146102265780638da5cb5b1461025e57600080fd5b806318f9b0231461014557806319165587146101675780633a98ef3914610187578063406072a9146101ab57600080fd5b36610140577f6ef95f06320e7a25a04a175ca677b7052bdd97131872c2192525a629f51be77033604080516001600160a01b0390921682523460208301520160405180910390a1005b600080fd5b34801561015157600080fd5b506101656101603660046112e8565b6103b3565b005b34801561017357600080fd5b50610165610182366004611314565b6103c9565b34801561019357600080fd5b506001545b6040519081526020015b60405180910390f35b3480156101b757600080fd5b506101986101c6366004611331565b6001600160a01b03918216600090815260076020908152604080832093909416825291909152205490565b3480156101fd57600080fd5b5061016561020c366004611331565b610548565b34801561021d57600080fd5b506101656106eb565b34801561023257600080fd5b5061024661024136600461136a565b6106ff565b6040516001600160a01b0390911681526020016101a2565b34801561026a57600080fd5b506000546001600160a01b0316610246565b34801561028857600080fd5b50610198610297366004611314565b6001600160a01b031660009081526004602052604090205490565b3480156102be57600080fd5b506101656102cd366004611383565b61072f565b3480156102de57600080fd5b506101986102ed366004611314565b610a62565b3480156102fe57600080fd5b5061019861030d366004611331565b610aaa565b34801561031e57600080fd5b5061019861032d366004611314565b6001600160a01b031660009081526003602052604090205490565b34801561035457600080fd5b50610198610363366004611314565b6001600160a01b031660009081526006602052604090205490565b34801561038a57600080fd5b50600254610198565b34801561039f57600080fd5b506101656103ae366004611314565b610b9d565b6103bb610c2d565b6103c58282610c87565b5050565b6001600160a01b0381166000908152600360205260409020546104425760405162461bcd60e51b815260206004820152602660248201527f5061796d656e7453706c69747465723a206163636f756e7420686173206e6f2060448201526573686172657360d01b60648201526084015b60405180910390fd5b600061044d82610a62565b9050806104b05760405162461bcd60e51b815260206004820152602b60248201527f5061796d656e7453706c69747465723a206163636f756e74206973206e6f742060448201526a191d59481c185e5b595b9d60aa1b6064820152608401610439565b6001600160a01b038216600090815260046020526040812080548392906104d89084906113be565b9250508190555080600260008282546104f191906113be565b9091555061050190508282610e95565b604080516001600160a01b0384168152602081018390527fdf20fd1e76bc69d672e4814fafb2c449bba3a5369d8359adf9e05e6fde87b05691015b60405180910390a15050565b6001600160a01b0381166000908152600360205260409020546105bc5760405162461bcd60e51b815260206004820152602660248201527f5061796d656e7453706c69747465723a206163636f756e7420686173206e6f2060448201526573686172657360d01b6064820152608401610439565b60006105c88383610aaa565b90508061062b5760405162461bcd60e51b815260206004820152602b60248201527f5061796d656e7453706c69747465723a206163636f756e74206973206e6f742060448201526a191d59481c185e5b595b9d60aa1b6064820152608401610439565b6001600160a01b038084166000908152600760209081526040808320938616835292905290812080548392906106629084906113be565b90915550506001600160a01b0383166000908152600660205260408120805483929061068f9084906113be565b909155506106a09050838383610fb3565b604080516001600160a01b038481168252602082018490528516917f3be5b7a71e84ed12875d241991c70855ac5817d847039e17a9d895c1ceb0f18a910160405180910390a2505050565b6106f3610c2d565b6106fd6000611033565b565b600060058281548110610714576107146113d6565b6000918252602090912001546001600160a01b031692915050565b610737610c2d565b6001600160a01b0381166107b25760405162461bcd60e51b8152602060048201526024808201527f526f79616c74793a206163636f756e7420697320746865207a65726f2061646460448201527f72657373000000000000000000000000000000000000000000000000000000006064820152608401610439565b6001600160a01b0381166000908152600360205260409020546108175760405162461bcd60e51b815260206004820152601f60248201527f526f79616c74793a206163636f756e74206e6f742068617320736861726573006044820152606401610439565b600554821061088e5760405162461bcd60e51b815260206004820152602760248201527f526f79616c74793a20696e6465785061796565206e6f7420657869737420696e60448201527f20706179656573000000000000000000000000000000000000000000000000006064820152608401610439565b806001600160a01b0316600583815481106108ab576108ab6113d6565b6000918252602090912001546001600160a01b0316146109335760405162461bcd60e51b815260206004820152603860248201527f526f79616c74793a206163636f756e74206973206e6f74207468652073616d6560448201527f206173206163636f756e7420696e2074686520696e64657800000000000000006064820152608401610439565b60058054610943906001906113ec565b81548110610953576109536113d6565b600091825260209091200154600580546001600160a01b03909216918490811061097f5761097f6113d6565b9060005260206000200160006101000a8154816001600160a01b0302191690836001600160a01b0316021790555060058054806109be576109be611403565b600082815260208082208301600019908101805473ffffffffffffffffffffffffffffffffffffffff191690559092019092556001600160a01b038316825260039052604081208054919055600154610a189082906113ec565b600155604080516001600160a01b0384168152602081018390527f22c40819e1f77dc9265c37f7edb29bebd1fb2e1cf46df8fd9a9ab5c83505d4fc910160405180910390a1505050565b600080610a6e60025490565b610a7890476113be565b9050610aa38382610a9e866001600160a01b031660009081526004602052604090205490565b611090565b9392505050565b6001600160a01b03821660009081526006602052604081205481906040517f70a082310000000000000000000000000000000000000000000000000000000081523060048201526001600160a01b038616906370a082319060240160206040518083038186803b158015610b1d57600080fd5b505afa158015610b31573d6000803e3d6000fd5b505050506040513d601f19601f82011682018060405250810190610b559190611419565b610b5f91906113be565b6001600160a01b03808616600090815260076020908152604080832093881683529290522054909150610b959084908390611090565b949350505050565b610ba5610c2d565b6001600160a01b038116610c215760405162461bcd60e51b815260206004820152602660248201527f4f776e61626c653a206e6577206f776e657220697320746865207a65726f206160448201527f64647265737300000000000000000000000000000000000000000000000000006064820152608401610439565b610c2a81611033565b50565b6000546001600160a01b031633146106fd5760405162461bcd60e51b815260206004820181905260248201527f4f776e61626c653a2063616c6c6572206973206e6f7420746865206f776e65726044820152606401610439565b6001600160a01b038216610d035760405162461bcd60e51b815260206004820152602c60248201527f5061796d656e7453706c69747465723a206163636f756e74206973207468652060448201527f7a65726f206164647265737300000000000000000000000000000000000000006064820152608401610439565b60008111610d535760405162461bcd60e51b815260206004820152601d60248201527f5061796d656e7453706c69747465723a207368617265732061726520300000006044820152606401610439565b6001600160a01b03821660009081526003602052604090205415610ddf5760405162461bcd60e51b815260206004820152602b60248201527f5061796d656e7453706c69747465723a206163636f756e7420616c726561647960448201527f20686173207368617265730000000000000000000000000000000000000000006064820152608401610439565b6005805460018082019092557f036b6384b5eca791c62761152d0c79bb0604c104a5fb6f4eb0703f3154bb3db001805473ffffffffffffffffffffffffffffffffffffffff19166001600160a01b038516908117909155600090815260036020526040902082905554610e539082906113be565b600155604080516001600160a01b0384168152602081018390527f40c340f65e17194d14ddddb073d3c9f888e3cb52b5aae0c6c7706b4fbc905fac910161053c565b80471015610ee55760405162461bcd60e51b815260206004820152601d60248201527f416464726573733a20696e73756666696369656e742062616c616e63650000006044820152606401610439565b6000826001600160a01b03168260405160006040518083038185875af1925050503d8060008114610f32576040519150601f19603f3d011682016040523d82523d6000602084013e610f37565b606091505b5050905080610fae5760405162461bcd60e51b815260206004820152603a60248201527f416464726573733a20756e61626c6520746f2073656e642076616c75652c207260448201527f6563697069656e74206d617920686176652072657665727465640000000000006064820152608401610439565b505050565b604080516001600160a01b038416602482015260448082018490528251808303909101815260649091019091526020810180517bffffffffffffffffffffffffffffffffffffffffffffffffffffffff167fa9059cbb00000000000000000000000000000000000000000000000000000000179052610fae9084906110ce565b600080546001600160a01b0383811673ffffffffffffffffffffffffffffffffffffffff19831681178455604051919092169283917f8be0079c531659141344cd1fd0a4f28419497f9722a3daafe3b4186f6b6457e09190a35050565b6001546001600160a01b038416600090815260036020526040812054909183916110ba9086611432565b6110c49190611451565b610b9591906113ec565b6000611123826040518060400160405280602081526020017f5361666545524332303a206c6f772d6c6576656c2063616c6c206661696c6564815250856001600160a01b03166111b39092919063ffffffff16565b805190915015610fae57808060200190518101906111419190611473565b610fae5760405162461bcd60e51b815260206004820152602a60248201527f5361666545524332303a204552433230206f7065726174696f6e20646964206e60448201527f6f742073756363656564000000000000000000000000000000000000000000006064820152608401610439565b6060610b95848460008585600080866001600160a01b031685876040516111da91906114c5565b60006040518083038185875af1925050503d8060008114611217576040519150601f19603f3d011682016040523d82523d6000602084013e61121c565b606091505b509150915061122d87838387611238565b979650505050505050565b606083156112a457825161129d576001600160a01b0385163b61129d5760405162461bcd60e51b815260206004820152601d60248201527f416464726573733a2063616c6c20746f206e6f6e2d636f6e74726163740000006044820152606401610439565b5081610b95565b610b9583838151156112b95781518083602001fd5b8060405162461bcd60e51b815260040161043991906114e1565b6001600160a01b0381168114610c2a57600080fd5b600080604083850312156112fb57600080fd5b8235611306816112d3565b946020939093013593505050565b60006020828403121561132657600080fd5b8135610aa3816112d3565b6000806040838503121561134457600080fd5b823561134f816112d3565b9150602083013561135f816112d3565b809150509250929050565b60006020828403121561137c57600080fd5b5035919050565b6000806040838503121561139657600080fd5b82359150602083013561135f816112d3565b634e487b7160e01b600052601160045260246000fd5b600082198211156113d1576113d16113a8565b500190565b634e487b7160e01b600052603260045260246000fd5b6000828210156113fe576113fe6113a8565b500390565b634e487b7160e01b600052603160045260246000fd5b60006020828403121561142b57600080fd5b5051919050565b600081600019048311821515161561144c5761144c6113a8565b500290565b60008261146e57634e487b7160e01b600052601260045260246000fd5b500490565b60006020828403121561148557600080fd5b81518015158114610aa357600080fd5b60005b838110156114b0578181015183820152602001611498565b838111156114bf576000848401525b50505050565b600082516114d7818460208701611495565b9190910192915050565b6020815260008251806020840152611500816040850160208701611495565b601f01601f1916919091016040019291505056fea2646970667358221220a39dc8bb16d6dbb284e04cee1ca286037b1945fdff47a774bc254b8210b5450764736f6c63430008090033",
  "devdoc": {
    "author": "Think and Dev",
    "kind": "dev",
    "methods": {
      "addPayee(address,uint256)": {
        "details": "Add a new payee to the contract.",
        "params": {
          "account": "The address of the payee to add.",
          "shares": "The number of shares owned by the payee."
        }
      },
      "constructor": {
        "details": "Creates an instance of `PaymentSplitter` where each account in `payees` is assigned the number of shares at the matching position in the `shares` array. All addresses in `payees` must be non-zero. Both arrays must have the same non-zero length, and there must be no duplicates in `payees`.",
        "params": {
          "payees": "addresses of payees",
          "shares": "values of shares"
        }
      },
      "owner()": {
        "details": "Returns the address of the current owner."
      },
      "payee(uint256)": {
        "details": "Getter for the address of the payee number `index`."
      },
      "releasable(address)": {
        "details": "Getter for the amount of payee's releasable Ether."
      },
      "releasable(address,address)": {
        "details": "Getter for the amount of payee's releasable `token` tokens. `token` should be the address of an IERC20 contract."
      },
      "release(address)": {
        "details": "Triggers a transfer to `account` of the amount of Ether they are owed, according to their percentage of the total shares and their previous withdrawals."
      },
      "release(address,address)": {
        "details": "Triggers a transfer to `account` of the amount of `token` tokens they are owed, according to their percentage of the total shares and their previous withdrawals. `token` must be the address of an IERC20 contract."
      },
      "released(address)": {
        "details": "Getter for the amount of Ether already released to a payee."
      },
      "released(address,address)": {
        "details": "Getter for the amount of `token` tokens already released to a payee. `token` should be the address of an IERC20 contract."
      },
      "removePayee(uint256,address)": {
        "details": "Remove a payee to the contract.",
        "params": {
          "account": "The address of the payee to remove.",
          "indexPayee": "The index of payee to remove it."
        }
      },
      "renounceOwnership()": {
        "details": "Leaves the contract without owner. It will not be possible to call `onlyOwner` functions anymore. Can only be called by the current owner. NOTE: Renouncing ownership will leave the contract without an owner, thereby removing any functionality that is only available to the owner."
      },
      "shares(address)": {
        "details": "Getter for the amount of shares held by an account."
      },
      "totalReleased()": {
        "details": "Getter for the total amount of Ether already released."
      },
      "totalReleased(address)": {
        "details": "Getter for the total amount of `token` already released. `token` should be the address of an IERC20 contract."
      },
      "totalShares()": {
        "details": "Getter for the total shares held by payees."
      },
      "transferOwnership(address)": {
        "details": "Transfers ownership of the contract to a new account (`newOwner`). Can only be called by the current owner."
      }
    },
    "title": "Canis Royalty",
    "version": 1
  },
  "userdoc": {
    "kind": "user",
    "methods": {
      "constructor": {
        "notice": "Init contract"
      }
    },
    "version": 1
  },
  "storageLayout": {
    "storage": [
      {
        "astId": 396,
        "contract": "contracts/Royalty.sol:Royalty",
        "label": "_owner",
        "offset": 0,
        "slot": "0",
        "type": "t_address"
      },
      {
        "astId": 6098,
        "contract": "contracts/Royalty.sol:Royalty",
        "label": "_totalShares",
        "offset": 0,
        "slot": "1",
        "type": "t_uint256"
      },
      {
        "astId": 6100,
        "contract": "contracts/Royalty.sol:Royalty",
        "label": "_totalReleased",
        "offset": 0,
        "slot": "2",
        "type": "t_uint256"
      },
      {
        "astId": 6104,
        "contract": "contracts/Royalty.sol:Royalty",
        "label": "_shares",
        "offset": 0,
        "slot": "3",
        "type": "t_mapping(t_address,t_uint256)"
      },
      {
        "astId": 6108,
        "contract": "contracts/Royalty.sol:Royalty",
        "label": "_released",
        "offset": 0,
        "slot": "4",
        "type": "t_mapping(t_address,t_uint256)"
      },
      {
        "astId": 6111,
        "contract": "contracts/Royalty.sol:Royalty",
        "label": "_payees",
        "offset": 0,
        "slot": "5",
        "type": "t_array(t_address)dyn_storage"
      },
      {
        "astId": 6116,
        "contract": "contracts/Royalty.sol:Royalty",
        "label": "_erc20TotalReleased",
        "offset": 0,
        "slot": "6",
        "type": "t_mapping(t_contract(IERC20)1185,t_uint256)"
      },
      {
        "astId": 6123,
        "contract": "contracts/Royalty.sol:Royalty",
        "label": "_erc20Released",
        "offset": 0,
        "slot": "7",
        "type": "t_mapping(t_contract(IERC20)1185,t_mapping(t_address,t_uint256))"
      }
    ],
    "types": {
      "t_address": {
        "encoding": "inplace",
        "label": "address",
        "numberOfBytes": "20"
      },
      "t_array(t_address)dyn_storage": {
        "base": "t_address",
        "encoding": "dynamic_array",
        "label": "address[]",
        "numberOfBytes": "32"
      },
      "t_contract(IERC20)1185": {
        "encoding": "inplace",
        "label": "contract IERC20",
        "numberOfBytes": "20"
      },
      "t_mapping(t_address,t_uint256)": {
        "encoding": "mapping",
        "key": "t_address",
        "label": "mapping(address => uint256)",
        "numberOfBytes": "32",
        "value": "t_uint256"
      },
      "t_mapping(t_contract(IERC20)1185,t_mapping(t_address,t_uint256))": {
        "encoding": "mapping",
        "key": "t_contract(IERC20)1185",
        "label": "mapping(contract IERC20 => mapping(address => uint256))",
        "numberOfBytes": "32",
        "value": "t_mapping(t_address,t_uint256)"
      },
      "t_mapping(t_contract(IERC20)1185,t_uint256)": {
        "encoding": "mapping",
        "key": "t_contract(IERC20)1185",
        "label": "mapping(contract IERC20 => uint256)",
        "numberOfBytes": "32",
        "value": "t_uint256"
      },
      "t_uint256": {
        "encoding": "inplace",
        "label": "uint256",
        "numberOfBytes": "32"
      }
    }
  }
}